:020000040800F2
:100000007840002001010008C92A000825010008E5
:10001000C52A00083307000851440008000000000A
:10002000000000000000000000000000CD300008CB
:10003000C522000800000000192D0008613A0008E0
:100040001B0100081B0100081B0100081B01000820
:100050001B0100081B0100081B0100081B01000810
:100060001B0100081B0100081B0100080D1C0008F3
:10007000111C0008311C0008551C0008791C0008E0
:100080001B0100081B0100081B0100081B010008E0
:10009000254400081B0100081B0100082D2300084F
:1000A0001B0100081B0100081B0100081B010008C0
:1000B000C53A0008553B00081B0100081B01000859
:1000C0001B0100081B0100081B0100081B010008A0
:1000D0001B010008FD3E00081B0100081B01000871
:1000E0001B0100081B010008A5410008DFF80CD027
:1000F00000F054FA00480047DD5E00087840002018
:100100000648804706480047FEE7FEE7FEE7FEE7B1
:10011000FEE7FEE7FEE7FEE7FEE7FEE7653A0008DA
:10012000ED0000087046694604F09EFFFFF7FEFFF1
:1001300040EA01039B0703D009E008C9121F08C069
:10014000042AFAD203E011F8013B00F8013B521EE9
:10015000F9D27047D2B201E000F8012B491EFBD260
:1001600070470022F6E710B513460A4604461946C2
:10017000FFF7F0FF204610BD10B5044604E00B78F1
:1001800000F8013B03B1491C521EF8D2204610BDB5
:10019000421C10F8011B0029FBD1801A704730B5B2
:1001A0000B46014600202022012409E021FA02F535
:1001B0009D4205D303FA02F5491B04FA02F52844CF
:1001C000151EA2F10102F1DC30BD2DE9F05F0546FC
:1001D000002092469B4688460646814640241BE006
:1001E000284641464746224600F0F9F953465A460A
:1001F000C01A914110D311461846224600F0E0F98A
:100200002D1A67EB01084F4622460120002100F01D
:10021000D7F917EB00094E41201EA4F10104DFDCE1
:10022000484631462A464346BDE8F09F2DE9FE4F39
:10023000804681EA0300C00F0C46009021F0004187
:1002400023F00045B8EB0200A94105D24046214603
:1002500090461C460B46024623F00040104347D010
:10026000270DC7F30A00C3F30A510290401A019008
:1002700040286BDAC3F3130040F4801B00989246C9
:1002800020B10023D2EB030A63EB0B0B0198594614
:10029000C0F14002504600F093F906460D46504624
:1002A0005946019A00F0ABF910EB080061410024B7
:1002B00087EA115284EAE7731A4340D0009A62B386
:1002C000019A012A4FEA075215DC001B61EB02017B
:1002D0004FF0004202EA0752CDE90042001C41F50E
:1002E000801132462B4600F0ABF903B0BDE8F08F29
:1002F00040462146F9E7001B61EB0201001C41F575
:10030000801300185B412018A2F5001747EB03018A
:1003100040EAD570B6196D4111E06D084FEA360616
:1003200045EAC0754FEA0752001B61EB0201001C51
:1003300041F5801149084FEA300000195141324619
:100340002B4603B0BDE8F04F00F06BB900980122D6
:1003500040000023D0EB020263EBE07300982146DB
:100360004FEAE074B8EB000061EB0401E9E783F0C9
:1003700000435BE781F0004158E72DE9FE4F81EA39
:10038000030404F0004421F0004100944FF0000BFE
:1003900023F0004350EA01045ED052EA03045BD02C
:1003A000C3F30A54C1F30A552C44A4F2F334019464
:1003B000A0FB0254C1F3130141F48011C3F31303F2
:1003C00043F4801301FB024400FB034E840A970AA6
:1003D00044EA815447EA8357A4FB076802958D0AD3
:1003E00005FB07854FEA932C04FB0C542705029D5F
:1003F0004FEA065847EA1637B5EB08056EEB070CCF
:10040000870E920E47EA811742EA8312A7FB020188
:10041000B6EB0B0164EB00042B0D43EA0C335E18C2
:1004200044EB1C50DA465146E7FB0201C5F31304C6
:100430004FEA0B3343EA14534FEA0432019C43EA78
:100440000603A4F10C040294009CCDE900B400F072
:10045000F7F803B0BDE8F08F00200146F9E72DE979
:10046000F04D81EA030404F0004B21F000451446EE
:100470004FF0000A23F0004150EA050220D054EA70
:1004800001021DD0C5F30A570246C5F31303C1F399
:100490001300C1F30A5640F4801543F48013A7EB10
:1004A0000608101BD64608F2FD3873EB050002D390
:1004B00008F1010801E092185B41B8F1000F03DA7E
:1004C00000200146BDE8F08D00204FF48011064663
:1004D00084460EE0171B73EB050705D3121B63EB75
:1004E000050306434CEA010C49084FEA3000921814
:1004F0005B4150EA0107EDD152EA030012D082EAD3
:10050000040083EA0501084305D0101BAB4106D265
:100510000122002306E000224FF0004302E06FF0CA
:10052000010253101AEB06004CEB085110EB0A00C5
:1005300041EB0B01BDE8F04D00F073B8C1F30A5276
:10054000C1F3130140F2FF3341F480119A4202DA01
:1005500000200146704740F233439A42A2F23342F0
:1005600002DC524200F03BB800F02AB830B5041E5D
:1005700071F1000404DB4FF00044404264EB0101E0
:10058000141E73F1000405DB1C464FF00043524279
:1005900063EB0403994208BF904230BD064C074DFF
:1005A00006E0E06840F0010394E807009847103443
:1005B000AC42F6D3FFF79EFDE47200080473000816
:1005C000202A04DB203A00FA02F100207047914013
:1005D000C2F1200320FA03F3194390407047202A08
:1005E00004DB203A21FA02F00021704721FA02F3DD
:1005F000D040C2F120029140084319467047202A9A
:1006000006DBCB17203A41FA02F043EAE07306E03A
:1006100041FA02F3D040C2F120029140084319464A
:10062000704710B5141E73F1000408DA401C41F144
:10063000000192185B411A4301D120F0010010BD66
:100640002DE9F04D92469B4611B1B1FA81F202E0DC
:10065000B0FA80F220329046FFF7B2FF04460F4610
:1006600040EA0A0041EA0B0153465A46084313D0B8
:10067000114653EA010019D0C8F140025046FFF775
:10068000AEFF05460E46504659464246FFF798FFD4
:10069000084305D0012004E020463946BDE8F08D2E
:1006A0000020054346EAE0762C4337430A98630569
:1006B000E40AA0EB08000022FD0A44EA47540A308D
:1006C00002D500200146E9E7010510196941DDE97D
:1006D000084500196941BDE8F04DA2E770B58C18D6
:1006E00010F8015B15F0070301D110F8013B2A1146
:1006F00006D110F8012B03E010F8016B01F8016B33
:100700005B1EF9D12B0705D40023521E0DD401F82E
:10071000013BFAE710F8013BCB1A921C03E013F8F7
:10072000015B01F8015B521EF9D5A142D8D300202C
:1007300070BD00BFFEE70146CAB20B1243EA0220B9
:1007400070470000F0B502460D460021002300244A
:10075000A5E0481C105C02280DD1081D105C524E0B
:10076000B0723046807A022801DDFE20F0BD481DBF
:10077000105C4D4E3071481C105C04284CD14A4826
:10078000807A984246D00024581CC3B2881C165C5C
:10079000581E00EB800707EBC00743480B30C655D7
:1007A000081D165C581E00EB800707EBC0073E488B
:1007B0000B3038440671581E00EB800606EBC0066D
:1007C00039480B3030440079022801DDFC20CDE7A8
:1007D000481D165C581E00EB800707EBC007324827
:1007E0000B3038444670881D165C581E00EB80079D
:1007F00007EBC0072C480B3038448670C81D165CC8
:10080000581E00EB800707EBC00727480B30384421
:10081000C67001E0FB20A9E7481C105C05283BD10D
:10082000581E00EB800606EBC0061F480B30304414
:100830000079A0422ED0601CC4B2881C175C581EE0
:1008400000EB800606EBC00617480B303044401D15
:10085000661E00F82670C81C175C581E00EB800648
:1008600006EBC00610480B303044401D661E00EBFE
:1008700086008770081D175C581E00EB800606EB8B
:10088000C00609480B303044401D661E00EB860050
:10089000C77001E0FB2069E7505C084481B2A942BF
:1008A000FFF657AF142061E75036002010B500F076
:1008B00093F9FF2800D110BD072000F015FB044676
:1008C000142C01D0FF20F6E70F2004F0DBFD0620FA
:1008D00000F00AFB0446142C01D0FF20EBE700F0E7
:1008E00045FB0446152C03D10020034988701424CD
:1008F00000F0E8FA2046DEE75036002010B500F0A0
:10090000D3F860B10A48007878B9FA2004F0BAFD4B
:1009100000F0CAF848B101200549087005E0044814
:100920000078002801DD00F0EBF90148007810BDE7
:10093000503600207FB5054614A103C9CDE900015A
:100940008DF8045002AA03A9284600F0C5F8044611
:10095000142C02D0204604B070BD00221146684617
:1009600000F01AF80446142C0ED100219DF80C005A
:1009700000EB800202EBC00206481044401D9DF8C7
:10098000082000EB820041702046E4E702010000ED
:10099000000000005B3600202DE9F74F05468B462E
:1009A0004FF00008D946C246022000F0B1FAA879FB
:1009B000E97940EA01260821284600F0E9FA0D22EB
:1009C0004146002000F0BBFA0746142F67D188F09B
:1009D0000108287800F0800008B31DE00922414694
:1009E000002000F0ACFA0746142F12D188F001085D
:1009F000484600F0F9F904460AEB04001FFA80FAB1
:100A00002848C078A04200DD08E0A144301B86B22F
:100A100002E03846BDE8FE8F002EDFD123E020E063
:100A20002048C078B04202DA1E48C07800E0304664
:100A3000C4B22146484600F0ABFA012241460020EC
:100A400000F07DFA0746142F09D188F001080AEB5F
:100A500004001FFA80FAA144301B86B201E0384638
:100A6000D8E7002EDCD14FF00108287800F0800094
:100A700050B10021484600F08BFA01224146002087
:100A800000F05DFA074605E009224146002000F02B
:100A900056FA07460298A0F800A03846BAE738464A
:100AA000B8E700005036002010B502F07BF908B11D
:100AB00000F0B2F8162005F099FD052004F014FDB1
:100AC00005F060FD0446152C01D0182C01D1012041
:100AD00010BD0020FCE7000070B503460C4615462B
:100AE00000211DE0002210E001EB810000EBC106B7
:100AF0000F483044401D10F82200984203D1217065
:100B00002A70142070BD501CC2B201EB810000EBB2
:100B1000C1060748304400799042E5DC481CC1B268
:100B200003480B38807A8842DCDCF920EAE70000D1
:100B30005B3600207CB504460D4612A103C9CDE901
:100B4000000104208DF806002A4621466846FFF77A
:100B500023FF0646142E12D1A0788DF80600E07807
:100B60008DF807002A4621466846FFF715FF06461E
:100B7000142E04D129882046FFF7E4FD06463046AE
:100B80007CBD0000800600020000000070B5044635
:100B90000D46462005F02AFD012005F051FD00F02C
:100BA000E5F90646142E12D1204600F01DF92880E2
:100BB000E0790849C870207A617A00EB0120054984
:100BC000C880A07AE17A00EB012002490881304612
:100BD00070BD00005036002010B5052000F084F9EB
:100BE0000446142C01D0FF2010BD0A2005F0FEFCA5
:100BF000072005F025FD05F0C5FC044604F01000B3
:100C000018B101200349487002E0002001494870F2
:100C10002046E9E75036002010B5222005F0E6FC1A
:100C200005F0B0FC0446204610BD00002DE9FC474D
:100C300006460F4690461D46B946002000F068F96A
:100C400046F080006A4601A9FFF746FF0446142CCF
:100C500002D02046BDE8FC874CE09DF8040000EB84
:100C6000800202EBC00225481044401D9DF8002080
:100C700000EB820041780922304600F060F904461A
:100C8000142C23D19DF8040000EB800101EBC0017E
:100C90001A480844401D9DF8001000EB8100407880
:100CA00080F001019DF8040000EB800202EBC0021D
:100CB00012481044401D9DF8002000EB8200417056
:100CC000484600F091F8A8F8000014E02E2C05D159
:100CD00046F08000FFF72EFE04460CE02A2C08D1D7
:100CE00005B908E04FF6FF70854203DA681E85B249
:100CF00000E000E0B1E700BF2046ABE75B36002034
:100D000010B526210348FFF72CFA08200149C870C6
:100D100010BD0000503600202DE9FC4780460E46ED
:100D200017461D46B146002000F0F2F86A4601A9B8
:100D30004046FFF7D1FE0446142C02D02046BDE801
:100D4000FC874AE0F9B2484600F022F99DF8040019
:100D500000EB800202EBC00222481044401D9DF8C7
:100D6000002000EB820041780122404600F0E7F8C5
:100D70000446142C1ED19DF8040000EB800101EB09
:100D8000C00118480844401D9DF8001000EB810088
:100D9000407880F001019DF8040000EB800202EB36
:100DA000C00210481044401D9DF8002000EB820056
:100DB000417013E02E2C04D14046FFF7BBFD0446E2
:100DC0000CE02A2C08D105B908E04FF6FF708542E7
:100DD00003DA681E85B200E000E0B3E700BF2046FA
:100DE000ADE700005B36002070B50446282005F012
:100DF000FDFB05F0C7FB0646054646B100BF05F002
:100E0000C1FB2070641C701EC0B2061EF7D12846BC
:100E100070BD000070B50446452005F0E7FB204694
:100E200005F00EFC00F0A2F80546142D07D11320A2
:100E300005F0DCFB204605F003FC024884702846E0
:100E400070BD0000503600207CB506461AA103C9CB
:100E5000CDE90001492005F0C9FB304605F0F0FB63
:100E600000F084F80546142D23D1002418E004EB8B
:100E7000840000EBC40112480844407803280DD1D7
:100E800004EB840000EBC4010D48405C8DF80400C5
:100E9000002211466846FFF77FFD0546601CC4B27C
:100EA00007480B38807AA042E1D1022004490B396F
:100EB000087028467CBD0000210A000000000000E8
:100EC0005B36002010B5042005F090FB0548407803
:100ED000012803D1022005F0B3FB02E0002005F059
:100EE000AFFB10BD5036002070B50446152005F04C
:100EF0007DFB204605F0A4FB142004F0F5FA05F074
:100F000041FB0546512D01D1142070BDFA20FCE7AC
:100F100010B504460B2005F069FB252005F090FB79
:100F20001CB9052005F08CFB08E0012C03D1C5207D
:100F300005F086FB02E0852005F082FB10BD70B550
:100F400004460D4616464E2005F050FB1DB1C0204C
:100F500005F076FB02E0002005F072FB46EA041182
:100F6000C8B205F06DFB00F001F870BD10B50024AB
:100F700006E001F017FF10B1FFF74EFE10BD641C34
:100F800002488442F5D3FA20F8E70000404B4C00B9
:100F900070B504460D462B2005F028FB284605F0C9
:100FA0004FFB03E014F8010B05F04AFB281EA5F1E6
:100FB0000101CDB2F6D170BD92B004F055FF0546E7
:100FC000142D07D000BFFBA005F01EFAFEA005F00F
:100FD0001BFA00BFFFF794FE4FF4FA726421FB483E
:100FE00005F06CFAF94805F073FABDE2FFF786FCEC
:100FF00001287CD100BFF6A005F006FAF2A005F0AA
:1010000003FA00BFFFF752FC0546142D07D000BFBE
:10101000F3A005F0F9F9ECA005F0F6F900BF6420A3
:1010200004F030FA11A9F248FFF7B0FD0546142D7F
:1010300022D100BFEFA005F0E7F900BF002408E0CF
:1010400000BFEB48015DEEA005F0DEF900BF601CBB
:10105000C4B2BDF844008442F2DB00BFDAA005F060
:10106000D3F9D9A005F0D0F900BFBDF84420E0497C
:10107000E54803F00FF808E000BF2946E3A005F0BB
:10108000C3F9D1A005F0C0F900BF0220FFF7C2FEEE
:101090000546142D08D000BF2946E4A005F0B4F998
:1010A000C9A005F0B1F900BF11A9D148FFF742FD71
:1010B0000546142D1CD100BFE2A005F0A5F900BF24
:1010C000002408E000BFCA48015DCDA005F09CF9EE
:1010D00000BF601CC4B2BDF844008442F2DB00BF14
:1010E000D1A005F091F9B8A005F08EF909E03EE035
:1010F00000BF2946D6A005F087F9B3A005F084F912
:1011000000BF0120FFF7A0FE0546142D07D000BF49
:10111000D6A005F079F9ACA005F076F900BF00BFC4
:10112000D7480178D7A005F06FF9A7A005F06CF9B2
:1011300000BF00BFD248817AD9A005F065F9A2A00E
:1011400005F062F900BF00BFCD48C17BDBA005F010
:101150005BF99DA005F058F900BF00BFC848017FAA
:10116000D6A005F051F998A005F04EF900BFC4488B
:10117000007802286BD100245DE000274FE004EBEB
:10118000840000EBC401BE480B300844401D00EB56
:1011900087008078032840D104EB840000EBC40171
:1011A000B7480B300844401D10F8270000F08000BD
:1011B00098B304EB840101EBC402B1490B31114433
:1011C000491D11F8271001F00F000A2311AA8849C0
:1011D000FFF72CFD0546142D1FD1BDF84400E0B1EA
:1011E00044216846FEF7BDFFBDF84400402813DAED
:1011F000BDF84400C0B28DF80000BDF844207C4921
:101200000DF10100FEF794FFBDF84400401CC2B28E
:101210006946B14802F0E1FD00BF781CC7B204EB9B
:10122000840000EBC40196480B3008440079B842B2
:10123000A5D1601CC4B29248807AA0429DD1634877
:101240000FC805F033F910B1604805F034F9A34830
:1012500000680E90A1488088ADF83C009F48C08887
:10126000ADF83E009D480089ADF840000EA807C8C3
:1012700005F022F838B1994804F0C2FFC6B23146F1
:10128000002003F07FF9944800680D909248808810
:10129000ADF838009048C088ADF83A008E48008913
:1012A000ADF83C008C484089ADF83E008A48808902
:1012B000ADF840000DA80FC802F0DBFD002877D084
:1012C000874A4B49844802F052FD49480278411C44
:1012D0008448FEF72DFF46480078814908704FF09A
:1012E0000008434890F839007F490870404890F85A
:1012F0003A0048703E4890F83B0088703C4890F8AF
:101300003C00C87040480089000A08713E48007AD5
:1013100048713D484089000A88713B48807AC8710D
:1013200000260BE0714901EBC6036E4901EBC600D4
:1013300001226D4904F0FEF8701CC6B2072EF1DBE5
:101340002B4890F83900694981F83800284890F80E
:101350003A0081F83900264890F83B0081F83A00BD
:10136000234890F83C0081F83B00214B5A1C38215F
:101370005E4801F033F91E480078D0B100BF5CA090
:1013800005F042F800BF002409E000BF184A601CC5
:10139000115C1BA005F038F800BF601CC4B21448F3
:1013A0000078A042F1DC00BF07A005F02DF8A3E013
:1013B000ACE0A2E0636833373520696E697420655C
:1013C00072726F0A000000000D0A000078360020DB
:1013D00044657669636520436F6E6E6563740A00C9
:1013E000427573205265736574204572726F0A00EE
:1013F00076370020C9E8B1B8C3E8CAF6B7FB0000E9
:101400002530327820000000EC360020476574203B
:101410004465766963652044657363722045727222
:101420006F3A3078253032780A0000005365742016
:1014300041646472204572726F3A30782530327898
:101440000A000000C5E4D6C3C3E8CAF6B7FB000033
:1014500047657420436F6E66204465736372204550
:1014600072726F3A3078253032780A0053657420F2
:10147000436F6E666967204572726F0A0000000054
:1014800050360020555342442E7374617475732096
:101490002020202020202020203D202530325800F0
:1014A000555342442E6974666D6F756E742020200A
:1014B00020202020203D2025303258005553424422
:1014C0002E6974665B695D2E6564706D6F756E74F0
:1014D000203D202530325800E01700205C210020FC
:1014E00016020020333A002002020020F3390020C7
:1014F000BFD8D6C6B0E5200000BFB8F1000F04D1B8
:101500001A4801781A4801F0D9F800BF1948006854
:101510000D9018488088ADF838001648C088ADF89E
:101520003A0014480089ADF83C0012484089ADF8F3
:101530003E0010488089ADF840000DA80FC802F0A9
:1015400098FC48B10C4A0D490A4802F010FC0B48BF
:101550000178401C01F0E0F809480FC804F0A6FF2C
:1015600010B1074804F0A7FF40E500001602002074
:10157000333A0020D01700201702002076370020D1
:101580007836002008B50121502001F041FCFF20F1
:10159000ADF8000003208DF8020010208DF8030044
:1015A00069461C4800F0ECFE4FF4C060ADF8000046
:1015B00003208DF8020010208DF8030069461548BD
:1015C00000F0DEFE0120ADF8000003208DF80200DF
:1015D00010208DF8030069460F4800F0D1FE02206C
:1015E000ADF8000003208DF8020004208DF8030000
:1015F0006946094800F0C4FE01200849086008490E
:10160000C1F8A4010020074908604FF044300149A7
:10161000086008BD0018014000080140A8012342ED
:10162000000023428001214208B50020009022E101
:101630009748008800F00F00964908700846007827
:1016400000287CD1944800689449088008460088A6
:1016500000F03000924908809048008800F4405023
:101660008E4908808C4909684BF6BF7201EA020076
:1016700080F4005080F0200040F4004141F08001EF
:10168000854A11608248008800F0100090BB104627
:10169000006848F60F7108401146086001F0A4F890
:1016A0007D4909684BF6BF7201EA02007B4909884F
:1016B00001F4805109B180F480507849098801F41F
:1016C000005109B180F400507549098801F01001FA
:1016D00009B180F010007249098801F0200109B1B8
:1016E00080F0200081B241F4004141F080016A4A5B
:1016F000116008BDFFE76848006880B20090BDF83F
:10170000000000F40060B0B363480068C0F30E004E
:1017100048F68F7108406049086001F06BFE5E4931
:1017200009684BF6BF7201EA02005C49098801F4BE
:10173000805109B180F480505849098800E056E092
:1017400001F4005109B180F400505549098801F0B5
:10175000100109B180F010005149098801F0200101
:1017600009B180F0200081B241F4004141F08001D4
:10177000494A1160BDE7FFE7BDF8000000F40040F2
:10178000002878D044480068C0F30E0048F68F71F6
:1017900008404149086001F083FA3F4909684BF667
:1017A000BF7201EA02003D49098801F4805109B184
:1017B00080F480503949098801F4005109B180F45E
:1017C00000503749098801F0100109B180F010007C
:1017D0003349098801F0200109B180F0200081B26D
:1017E00041F4004141F080012B4A116081E7294812
:1017F00000782C4901EB8000D0F8000C80B20090FA
:10180000BDF8000000F40040C0B12248007801EBB0
:101810008000D0F8000CC0F30E0048F68F7108402D
:101820001C4909781F4A02EB8101C1F8000C1949D3
:101830000978491E1C4A52F821008047BDF8000073
:1018400000F08000B8B113480078164901EB800021
:10185000D0F8000C48F60F7108400E490978114A7B
:1018600002EB8101C1F8000C0A490978491E0F4AB0
:1018700052F82100804708484430006880B204498B
:10188000088000F4004000287FF4D2AE00BF30E7AB
:1018900014010020E0000020005C0040F400002063
:1018A000F6000020005000403C01002020010020F4
:1018B0000146C8888A88904201D0012070470020E4
:1018C000FCE700000B4A02EB8001D1F8001C01F498
:1018D000804171B102EB8001D1F8001C48F68F7293
:1018E00011404CF280021143024B03EB8002C2F81C
:1018F000001C7047005000400B4A02EB8001D1F8F9
:10190000001C01F0400171B102EB8001D1F8001C14
:1019100048F68F72114048F2C0021143024B03EBAC
:101920008002C2F8001C704700500040084A02EBD9
:101930008001D1F8001C48F68F62114048F2800205
:101940001143034B03EB8002C2F8001C70470000F8
:101950000050004070B5054620480068808808B1F6
:10196000022070BD0024062D14D11C4800680078A8
:1019700000F07F0001280DD11848006880782228E7
:1019800001D1174C1BE0154800688078212816D13A
:10199000144C14E011480068007800F07F00212802
:1019A0000DD1032D02D0092D07D101E00E4C05E029
:1019B0000E4C09200E49087000E000BF00BF0CB9B2
:1019C0000220CEE7054800688461002103480068D2
:1019D00041820020A0470020C3E70000E40000206F
:1019E0004D1A00081D1A0008311A0008C51B00080E
:1019F0005D01002010B504460249204601F022FE98
:101A000010BD0000BC01002010B50446024920466C
:101A100001F018FE10BD0000B401002010B504460E
:101A20000249204601F00EFE10BD0000CC0100204E
:101A3000014629B90120034A12681082002070472C
:101A40000148FCE7E40000205801002010B50446DE
:101A50000249204601F0F6FD10BD0000C40100203F
:101A600070B5054606480068C478042C01DD0020E6
:101A700070BD044800EBC401284601F0E3FDF7E720
:101A8000E4000020D40100200246002901DD0220EC
:101A90007047002A01DD0220FAE70020F8E7000085
:101AA00000B5024606480068007800F07F00212853
:101AB00004D10B2A02D100F079F800BD0220FCE726
:101AC000E400002010B500202849096888722749E1
:101AD0000968C8722648C0792449096848720020FC
:101AE00001F0F6FA4FF40071002001F0EBFB102139
:101AF000002001F0ADFB4021002001F019FB802106
:101B0000002001F087FB0020FFF710FF194890F834
:101B10002C10002001F01EFB002001F061FB4FF4AF
:101B2000C061012001F0CEFB4FF48071012001F073
:101B300071FB4FF4A071012001F0FAFA402101205D
:101B400001F078FB4021012001F004FB4FF44051EB
:101B5000012001F025FB2021012001F079FB00206C
:101B600001F0BEFA01200449086010BDE400002025
:101B70007C6B000860010020F4010020054800682B
:101B8000807A30B105200449086042F210700349A0
:101B900008807047E4000020F4010020420000208B
:101BA0000420014908607047F401002003480068E0
:101BB000C17803480160002070470000E400002065
:101BC00058010020014629B94020034A12681082BA
:101BD000002070470148FCE7E4000020F0350020B9
:101BE0007047704710B500F0DFFC00200549096818
:101BF000887201F0B7F802F019FC0220024908606F
:101C000010BD0000E4000020F40100207047000037
:101C100010B5202000F002F9012806D10021034868
:101C200000F04AF8202000F039F810BD1C000240F6
:101C300010B54FF4007000F0F1F8012807D1002131
:101C4000034800F039F84FF4007000F027F810BD99
:101C50003000024010B54FF4005000F0DFF80128CA
:101C600007D10021034800F027F84FF4005000F09E
:101C700015F810BD4400024010B54FF4003000F0DC
:101C8000CDF8012807D10021034800F015F84FF4E2
:101C9000003000F003F810BD5800024000F0805101
:101CA00011B10349086001E0024948607047000033
:101CB000040402400000024021B1026842F0010227
:101CC000026004E002684FF6FE731A40026070473B
:101CD00001684FF6FE721140016000210160416011
:101CE0008160C1604B49884208D14A490839496836
:101CF00041F00F01474A083A51608AE045491431E2
:101D0000884208D143490839496841F0F001414A05
:101D1000083A51607DE03F492831884208D13D4969
:101D20000839496841F470613A4A083A516070E0F4
:101D300038493C31884208D136490839496841F46C
:101D40007041344A083A516063E032495031884268
:101D500008D130490839496841F470212D4A083AC0
:101D6000516056E02B496431884208D1294908392D
:101D7000496841F47001274A083A516049E0254911
:101D80007831884208D123490839496841F07061A7
:101D9000204A083A51603CE01F49884206D1011FA1
:101DA000096841F00F01021F116032E01A49143135
:101DB000884208D11849091F096841F0F001164A04
:101DC000121F116025E014492831884208D11249B8
:101DD000091F096841F470610F4A121F116018E071
:101DE0000D493C31884208D10B49091F096841F46B
:101DF0007041094A121F11600BE0074950318842B7
:101E000007D10549091F096841F47021024A121FD0
:101E1000116070470800024008040240014600209B
:101E2000002201F0805313B1054B1A6801E0054B05
:101E30001A6802EA01030BB1012000E0002070479C
:101E400000040240000002401AB103680B43036023
:101E500002E003688B430360704710B500220268FC
:101E600047F6F0739A430C6A8B6823430C6923434B
:101E70004C6923438C692343CC6923434C6A234335
:101E80008C6A23431A430260CB6843600B6883600B
:101E90004B68C36010BD0021016041608160C1607A
:101EA000016141618161C16101624162816270478A
:101EB0002DE9F0472848006800F110052E882648D3
:101EC0000068077AD6B9042F18D124480078012871
:101ED0000FD100212248006880B2801C214A42F8BC
:101EE000101030202049088000BF00201B490870D6
:101EF00003E0072710201C49088027E0AC88A64291
:101F000001D8042000E002200746B44200D934463C
:101F1000A0B2A96888478046002000F029FB8146CE
:101F2000A2B24946404602F061FBA1B2002001F096
:101F300081F92888001B2880688820446880302028
:101F40000949088000020949088000BF0249096860
:101F50000F72BDE8F0870000E4000020DE000020E2
:101F6000505C004000600040F6000020F4000020BB
:101F70002DE9F0412848006800F110042688A06887
:101F8000C0B1BEB1A588B54200D93546A8B2A16896
:101F9000884707462088401B20806088284460804E
:101FA000002000F0C3FA8046AAB24146384600F04D
:101FB0009FFE00BF208850B14FF440501749088061
:101FC0000021084601F036F93020154908802088A4
:101FD000A188884204DB03200F490968087218E0D1
:101FE0002088002804DD05200B490968087210E0EC
:101FF000208870B90620084909680872002109483C
:10200000006880B2801C084A42F810103020044951
:102010000880BDE8F0810000E4000020F40000200A
:10202000F6000020505C0040006000402DE9F84FB1
:102030009B48006845780027BA46062D1BD1984872
:102040000068007800F07F00002813D194490968E7
:102050008878012803D193490968CF690AE00228EA
:1020600003D1904909680F6A04E0032802D18D4921
:1020700009684F6A94E0002D64D18948006840885F
:1020800000285FD186480068C08802285AD1844859
:1020900000680079002855D181480068007800F078
:1020A0007F0028B97E480068808808B97E4F77E0B5
:1020B0007B480068007800F07F00012810D1784943
:1020C00009684879774909688A690021904700289A
:1020D00066D173480068807A002861D0724F5FE053
:1020E0006F480068007800F07F00022858D16C48E3
:1020F0000068407900F00F0669480068407900F0F8
:10210000700967480068407900F0800038B167497D
:1021100001EB8600D0F8000C00F0300806E06349BF
:1021200001EB8600D0F8000C00F4405860480078BD
:10213000B04235D9B9F1000F32D1B8F1000F2FD02C
:10214000594F2DE0082D07D155480068007800F060
:102150007F0028BB574F23E00A2D21D1504800684B
:10216000007800F07F0001281AD14D480068807A7D
:10217000B0B14B480068408890B949480068007980
:1021800070B947480068C088012809D144490968E6
:102190004879444909688A690021904700B9464F47
:1021A00057B13F480068A0F812A03D480068876119
:1021B0000020B84700240FE0394A12685078394AA5
:1021C0001268116988470446032C05D10920344957
:1021D00009680872BDE8F88F31480068008A4FF638
:1021E000FF71884204D109202D4909680872F1E77E
:1021F000022C03D02A480068008A20B90820284908
:1022000009680872E6E726480068007800F0800058
:10221000E0B323480068C088009021480068008A25
:102220000099884204D91E4900980968088223E071
:102230001B480068008A1A490968C98888421BDA65
:1022400017480068008A1749096891F82C108842DD
:1022500003DA0020194908700EE011480068008A6E
:102260001049096891F82C1090FBF1F201FB120063
:1022700010B90120114908700A48006890F82C1024
:10228000074800688182FFF713FE07E0FFE703209D
:1022900003490968087200030949088000BF99E7EB
:1022A000E4000020E80000209536000800500040BF
:1022B0005E0100201936000869360008DE000020A3
:1022C000F4000020704700000120014908707047A9
:1022D0000400002010B592B00024012000F036F96F
:1022E000C4B222464FF4A0710E4800F001FD012057
:1022F00000F076FF402C12DA48216846FDF731FFE6
:102300008DF80040224607490DF10100FDF710FF4E
:10231000601CC2B26946044801F05FFD00BF12B004
:1023200010BD0000B0350020D0170020704700001D
:1023300001490860704700001404014010B50023F3
:10234000012219460248006803F07CF910BD000024
:102350008000002008B50121102000F059FD4FF445
:102360000070ADF8000003208DF8020010208DF8F9
:1023700003006946014800F003F808BD0010014061
:102380002DE9F0410246002500260020002300240C
:10239000002791F803C00CF00F0591F803C00CF072
:1023A000100CBCF1000F03D091F802C04CEA0505F7
:1023B00091F800C0BCF1000F31D0146800202BE070
:1023C0004FF0010C0CFA00F3B1F800C00CEA030660
:1023D0009E4220D183004FF00F0C0CFA03F7BC4350
:1023E00005FA03FC4CEA040491F803C0BCF1280F81
:1023F00006D14FF0010C0CFA00FCC2F814C00AE040
:1024000091F803C0BCF1480F05D14FF0010C0CFA54
:1024100000FCC2F810C0401C0828D1D31460B1F8E9
:1024200000C0BCF1FF0F34DD546800202EE000F145
:10243000080C4FF0010808FA0CF3B1F800C00CEAE0
:1024400003069E4221D183004FF00F0C0CFA03F7D4
:10245000BC4305FA03FC4CEA040491F803C0BCF148
:10246000280F05D100F1080C08FA0CF8C2F8148006
:1024700091F803C0BCF1480F07D100F1080C4FF0F0
:10248000010808FA0CF8C2F81080401C0828CED3C6
:102490005460BDE8F0810000F0B50A460023002436
:1024A0000021002500F00046B6F1004F02D11D4E7C
:1024B000F16901E01B4E7168C0F3034583B200F47B
:1024C0004016B6F5401F08D121F07061154E7668B0
:1024D00026F07066134F7E6012E000F48016B6F5A9
:1024E000801F06D1032606FA05F4A14341F070616E
:1024F00006E0460D360103FA06F6B14341F070617D
:1025000022B1460D360103FA06F6314300F00046CB
:10251000B6F1004F02D1034EF16101E0014E71604E
:10252000F0BD000000000140016170470146054810
:10253000006880B200EBC100001D034A32F81000B1
:1025400080B27047505C0040006000400146064881
:10255000006880B200EBC100801D044A32F8100010
:10256000C0F3090070470000505C0040006000406C
:1025700001460548006880B200EBC100034A32F80A
:10258000100080B270470000505C004000600040C6
:102590000146044A02EB8100D0F8000C00F0300044
:1025A000704700000050004070B50A480468001DE4
:1025B0000568001D0668344454B1082206492046C7
:1025C00000F04AF9042204491031284600F044F989
:1025D00070BD0000E8F7FF1FFA0000202DE9F04170
:1025E00090B004460E461746984640216846FDF7CF
:1025F000B8FD0025012050E02E49097831B10129AC
:102600000BD0022923D0032944D12EE0215C492993
:1026100002D10121274A11703CE0215C432912D1EB
:10262000492329466A1CD5B20DF8013043232946B7
:102630006A1CD5B20DF8013002211E4A117000212A
:102640001D4A117002E000211A4A117022E0215C3B
:10265000491C194A1170235C29466A1CD5B20DF831
:1026600001300321134A117014E01349097821B194
:1026700011490978491E104A1170235C29466A1CC9
:10268000D5B20DF801300C49097811B90021094A79
:10269000117000BF00BF411CC8B2B042ACDB2A467B
:1026A00069463846FDF744FD88F8005010B0BDE893
:1026B000F0810000CF000020D000002070B590B065
:1026C00004460D4640216846FDF74BFD1148006861
:1026D000052801D010B070BD4120B5FBF0F100FB22
:1026E0001156324621466846FDF722FD00BF012003
:1026F000FFF74EFF3028FAD040229100684601F0E3
:1027000075FF3C21012000F095FD012000F0C0FD87
:1027100000BFDFE7F40100202DE9F04106460F4637
:102720000025002426480078022846D100BF24480E
:10273000007C01281DD12249097C01F00F000023F3
:102740003C223146FEF7E8FA0546142D35D0601CD0
:10275000C4B2032C00DAEAE700BF294619A003F04F
:1027600053FE1CA003F050FE00BF00201449087067
:1027700023E01348007D01281FD11149097D01F094
:102780000F0000233C223146FEF7C6FA0546142D01
:1027900013D0601CC4B20A2C03DA642002F0A4FE39
:1027A000C5E700BF29460CA003F02EFE09A003F0E8
:1027B0002BFE00BF002002490870BDE8F081000038
:1027C000503600207472616E73204572723120257C
:1027D000303258000D0A00007472616E7320457229
:1027E000723220253032580010B518480068047A3B
:1027F000022C01D0042C05D1FFF75AFB13480068C6
:10280000047A1CE0062C19D110480068407805288D
:102810000ED10E480068007800F07F0040B90B49E7
:102820000968C87800F05CFC09490968086A8047B3
:102830000849096888688047082400E0082403499B
:1028400009680C7200F06AFA10BD0000E400002074
:10285000F0000020E800002030B50B46002100BF4A
:1028600016E00A24B4EB107F05D9302404EB107471
:1028700003F8114005E0412404EB10740A3C03F80E
:102880001140000100254C00641C1D554C1CE1B298
:102890009142E6DB30BD000070B500245A48006864
:1028A0005A49097860F34101584801705648183870
:1028B00000685649497860F34101544841705448D2
:1028C00000685249897860F341015048817050484E
:1028D000001F00684D49C97860F341014B48C17041
:1028E00000250EE04949481903F0F8FB4748405DD0
:1028F000C0F3C00018B10120A8402043C4B2681C36
:10290000C5B2042DEEDB4348007820B14148007881
:10291000401E40490870032C14D105203E49087020
:102920003E48007850B900BF3DA003F06DFD40A0C7
:1029300003F06AFD00BF0120384908700A203549BC
:10294000087060E0012C15D13248007890B9012060
:102950003149087031480078002854D100BF35A0B3
:1029600003F052FD32A003F04FFD00BF01202B49C0
:10297000087048E0022C15D12648007890B9022052
:10298000254908702548007800283CD100BF2DA0BB
:1029900003F03AFD26A003F037FD00BF01201F49D8
:1029A000087030E0042C14D11A48007888B903204C
:1029B000194908701948007808BB00BF25A003F02A
:1029C00023FD1BA003F020FD00BF01201349087068
:1029D00019E0082C14D10F48007888B904200E495A
:1029E00008700E48007850B900BF1EA003F00CFD1F
:1029F0000FA003F009FD00BF01200849087002E0A4
:102A000000200649087070BD24812142D6000020B4
:102A100030012242DA000020D5000020DB00002037
:102A20003EB1BEBED6B3F620CDF520350000000085
:102A30000D0A00003EB1BEBED6B3F620BADACCD243
:102A4000203100003EB1BEBED6B3F620BAECCCD2E7
:102A5000203200003EB1BEBED6B3F620C3B7BBA83D
:102A6000203300003EB1BEBED6B3F620B7BDBFE9ED
:102A700020340000002008E00549095C21F0010134
:102A8000491C034A1154411CC8B20428F4DB7047A6
:102A9000D600002010B5084CA07A38B105200749AF
:102AA000086042F210700649088002E001200349E4
:102AB000086000F0D7FF10BD94350020F40100201D
:102AC0004200002000BFFEE77047704700F01F0281
:102AD000012191404209920002F1E022C2F8001166
:102AE0007047000070B5002100230F22C47804B3A2
:102AF000154C246804F4E064C4F5E064210AC1F1D3
:102B00000403CA40447804FA03F184781440214352
:102B100009010E4C0678A155047804F01F05012424
:102B2000AC4005786D11AD0005F1E025C5F8004118
:102B300009E0047804F01F050124AC40044D067838
:102B4000761145F8264070BD0CED00E000E400E091
:102B500080E100E002490143024A11607047000031
:102B60000000FA050CED00E070B502264748006849
:102B7000447846480068007800F07F00002844D17F
:102B8000092C03D100F006FE06465FE0052C14D1A7
:102B90003E480068C0787F280BDC3C48006880789D
:102BA00038B93A480068808818B938480068807A8F
:102BB00008B1082565E0002648E0032C0ED1334813
:102BC0000068C078012807D130480068808818B9AB
:102BD00000F004FE064639E0022637E0012C35D12C
:102BE0002A480068C07801280DD1284800688088EC
:102BF00048B926480068407A00F0200018B100F07B
:102C000055FC064622E0022620E0204800680078B5
:102C100000F07F00012805D10B2C17D100F05AFEDF
:102C2000064613E019480068007800F07F0002288B
:102C30000BD1012C03D100F039FC064606E0032C31
:102C400004D100F0DFFD064600E002264EB1E0B2FE
:102C50000F4A1268516988470646032E01D109259B
:102C60000FE00EB108250CE0062500210948006898
:102C700080B2801C084A42F81010302007490880B2
:102C800000BF024909680D7270BD0000E400002019
:102C9000E8000020505C004000600040F60000208A
:102CA00010B511480068047A022C01D0042C01D11F
:102CB000082412E0032C01D0052C05D1FFF758F9A8
:102CC00009480068047A08E0072C05D1074909681B
:102CD000C8688047082400E00824034909680C728A
:102CE00000F01CF810BD0000E4000020E800002007
:102CF000F0B5561C7510074E06EB41042B4605E057
:102D000034F8047B20F8017B401C5B1E002BF7D1BC
:102D1000F0BD0000006000407047000010B50D4895
:102D200090F82C10002000F015FA0B480068007A8B
:102D3000082805D140020949088010200849088068
:102D400005480068007A092801D1012010BD002043
:102D5000FCE7000060010020E4000020F4000020F7
:102D6000F600002010B5012001F022FA01240B48E2
:102D7000046000200A490880084600880749086066
:102D80000020091D08604FF4E050054908800846FE
:102D9000008802490860002010BD0000405C00402F
:102DA000EE0000200348006808B9012070470020A9
:102DB000FCE700000401214201460020034A50685C
:102DC00020F440400843506070470000001002406B
:102DD00029B1064A52690243044B5A6104E0034A8E
:102DE00052698243014B5A61704700000010024053
:102DF00029B1064AD2690243044BDA6104E0034A6E
:102E0000D2698243014BDA61704700000010024032
:102E100029B1064A92690243044B9A6104E0034ACD
:102E200092698243014B9A61704700000010024092
:102E300030B500210022002400232D4D6D6805F0DF
:102E40000C0121B1042905D0082923D105E0294D21
:102E5000056022E0274D05601FE0254D6D6805F4F3
:102E60007012234D6D6805F48034022505EB924203
:102E70001CB9214D554305600BE01D4D6D6805F4EF
:102E800000351DB11C4D5543056002E0194D5543F9
:102E9000056002E0174D056000BF00BF144D6D686E
:102EA00005F0F0010909154D6B5C0568DD404560D2
:102EB0000F4D6D6805F4E061090A104D6B5C4568C3
:102EC000DD4085600A4D6D6805F46051C90A0B4DFF
:102ED0006B5C4568DD40C560054D6D6805F440419B
:102EE000890B074D6B5CC568B5FBF3F5056130BD1B
:102EF0000010024000127A0000093D005800002036
:102F0000680000200149086070470000D800424274
:102F100070B50546072D01D0344805703348007858
:102F200033490870334800780978884203D0304824
:102F30000078304908702D48007808284ED2DFE824
:102F400000F004111A202B384E4F2B48006828B986
:102F500000F056F806202549087002E005202349B4
:102F6000087041E000F04CF804202049087001206E
:102F70002149086038E002201C494870032008708D
:102F800032E01A484078401E184948700846407898
:102F900008B90420087027E01848006884B244F09B
:102FA0001004164804600520104908700A20487073
:102FB0001AE00E484078401E0C4948700846407898
:102FC00058B90E48006884B224F010040B4804601D
:102FD0000620087000200849086005E000BF00BF17
:102FE00006200249087000BF00BF70BDF901002033
:102FF0000002002001020020FC010020405C004093
:1030000010B50748006884B224F004040448046042
:10301000FFF740FD4FF43F400149086010BD00003C
:10302000405C004021B1028842F40052028004E07A
:1030300002884DF6FF731A400280704721B1028862
:1030400042F04002028004E002884FF6BF731A404B
:10305000028070471AB183880B43838002E0838823
:103060008B43838070470246002013890B400BB1CD
:10307000012000E00020704710B50022028802F411
:1030800041520B884C8823438C882343CC882343AC
:103090000C8923434C8923438C892343CC892343C4
:1030A0001A430280838B4FF2FF74234083830B8A81
:1030B000038210BD0021018041808180C180018197
:1030C00041818181C18107210182704770470000E1
:1030D0004FF6F8710140014A11607047505C0040A2
:1030E00030B501460F4B1A78002014E003060E4C51
:1030F00004EB9353D3F8003C48F68F74234048F216
:1031000080042343C4B223430406074D05EB9454C3
:10311000C4F8003C401C9042E8D341F08003034CCB
:10312000236030BD5E010020005000404C5C004038
:1031300010B54A105300054A126892B202EBC00261
:10314000121D034C44F8123010BD0000505C0040CA
:103150000060004010B502460F48006880B200EBE6
:10316000C200801D0D4C04EB40033E290BDD4811CD
:1031700001F01F040CB9441EA0B24FF4004444EA0D
:1031800080241C6007E0481001F001040CB1441CCD
:10319000A0B284021C6010BD505C00400060004082
:1031A00030B50E4C04EB8003D3F8003C4BF68F7423
:1031B00003EA040201F480530BB182F4805201F45B
:1031C00000530BB182F4005242F4004343F08003F9
:1031D000024D05EB8004C4F8003C30BD00500040B7
:1031E00010B50B4B03EB8002D2F8002C4BF68F731B
:1031F00002EA030181F4805181F4005141F400425C
:1032000042F08002024C04EB8003C3F8002C10BD96
:103210000050004010B54A105200044B1B689BB28E
:1032200003EBC003024C44F8132010BD505C004077
:1032300000600040044A126892B202EBC002921C85
:10324000024B43F812107047505C00400060004091
:1032500030B50E4C04EB8003D3F8003C48F6BF7445
:1032600003EA040201F010030BB182F0100201F036
:1032700020030BB182F0200242F4004343F08003AC
:10328000024D05EB8004C4F8003C30BD0050004006
:1032900010B50B4B03EB8002D2F8002C48F6BF733D
:1032A00002EA030181F0100181F0200141F40042A3
:1032B00042F08002024C04EB8003C3F8002C10BDE6
:1032C0000050004010B5074B03EB8002D2F8002CF1
:1032D00048F68F131A400A43024C04EB8003C3F8EC
:1032E000002C10BD0050004010B500F001F810BDDA
:1032F0000CB50020019000903348006840F4803005
:103300003149086000BF3048006800F40030009088
:103310000198401C0190009818B90198B0F5A06F71
:10332000F1D12948006800F4003010B1012000906C
:1033300001E0002000900098012843D12348006854
:1033400040F01000214908600846006820F00300A2
:1033500008600846006840F0020008601A484068AB
:10336000194948600846406848600846406840F48B
:10337000806048600846406820F47C104860084639
:10338000406840F4E81048600846006840F08070EB
:10339000086000BF0C48006800F000700028F9D0F9
:1033A0000948406820F00300074948600846406823
:1033B00040F00200486000BF0348406800F00C0085
:1033C0000828F9D10CBD0000001002400020024086
:1033D00010B54FF44040FFF7EFFCFEF7BBFF10BD08
:1033E00010B50020FFF78EFD0121C805FFF700FD95
:1033F00010BD000038B501242948006880B2001DC6
:10340000284931F8100080B201EB400000902648B6
:103410000068007A092832D00098007822490968AB
:1034200008700098401C0090009800781E490968B8
:1034300048700098401C0090009800EB44000090F9
:10344000009931F8020B0091FDF775F916490968EA
:103450004880009800EB44000090009931F8020B7E
:103460000091FDF768F9104909688880009800EB21
:1034700044000090009800880B490968C88001202A
:1034800009490968087208480068C08810B9FFF740
:103490006BFB01E0FEF7CAFDFFF740FC38BD000002
:1034A000505C004000600040E40000202DE9F0473F
:1034B00054480068007800F07F08B8F1000F0AD186
:1034C00050480068407A00F0DF004E4909684872B1
:1034D0000020BDE8F087B8F1020F7CD149480068B0
:1034E000408818B947480068007908B10220F0E721
:1034F000DFF8149143480068477927F080052C468F
:1035000040480068407900F0800038B13F4901EB45
:103510008400D0F8000C00F0300606E03B4901EBD7
:103520008400D0F8000C00F4405699F80000A8423E
:1035300004D91EB133480068807A08B90220C8E770
:1035400007F0800080B1314901EB8400D0F8000C15
:1035500000F0300010284BD1E0B2FEF7CDF9E0B218
:103560003021FFF775FE43E0284901EB8400D0F8D5
:10357000000C00F44050B0F5805F39D1E4B9244A22
:1035800092F82C10E0B2FFF7E5FD204A02EB84012F
:10359000D1F8001C4BF68F7201EA020080F48050D3
:1035A00080F4005040F4004141F08001174B03EBE0
:1035B0008402C2F8001C1BE0E0B2FEF783F9134A54
:1035C00002EB8401D1F8001C4BF68F7201EA020075
:1035D00080F4805000E011E080F4005040F400419D
:1035E00041F08001094B03EB8402C2F8001C00BFCC
:1035F000084909684869804700206AE700BF02203F
:1036000067E70000E40000205E0100200050004059
:1036100060010020F000002010B504462CB9012004
:10362000064909680882002010BD05490968086834
:103630008047024800680A30F6E70000E4000020F6
:10364000F000002010B5024606480068438A32B9EF
:103650008888C01A034C24682082002010BD0868A6
:103660001844FBE7E400002010B504462CB9012003
:10367000064909680882002010BD05490968886864
:103680008047024800680C30F6E70000E4000020A4
:10369000F000002010B504462CB902203949096811
:1036A0000882002010BD0020374908803548006896
:1036B000007800F07F0018BB32490968487A00F0B2
:1036C000200131B13049097841F002012E4A1170D0
:1036D00005E02D49097801F0FD012B4A117000F039
:1036E000400131B12849097841F00101264A1170A1
:1036F00005E02549097801F0FE01234A11703AE0FE
:1037000020480068007800F07F00012801D11E48A1
:10371000C8E71C480068007800F07F00022828D124
:10372000184A1268517901F00F0001F080027AB155
:10373000164B03EB8002D2F8002C02F03002102A64
:1037400016D1114A127842F001020F4B1A700FE0A5
:103750000E4B03EB8002D2F8002C02F44052B2F57B
:10376000805F05D1084A127842F00102064B1A70B8
:1037700001E0002096E70649096808698047024889
:1037800090E70000E4000020DC0000200050004032
:10379000F000002010B50E480068C0780D49497847
:1037A000884213DC0A480068807878B908480068C5
:1037B000808858B906480068C07805490968887249
:1037C0000549096848688047002010BD0220FCE7D1
:1037D000E40000205E010020F000002010B5074842
:1037E0000068407A40F020000449096848720449A2
:1037F0000968C8698047002010BD0000E40000206F
:10380000F00000202DE9F0412E480068467926F0AE
:1038100080073C462B480068407900F0800038B1B2
:10382000294901EB8400D0F8000C00F0300506E0D7
:10383000254901EB8400D0F8000C00F440552348E2
:103840000078A04208D91F480068408820B91DB1FF
:103850001C480068807A10B90220BDE8F08106F0AB
:103860008000A0B1184A02EB8401D1F8001C48F690
:10387000BF7201EA020080F0100040F4004141F004
:103880008001114B03EB8402C2F8001C14E00E4AC5
:1038900002EB8401D1F8001C4BF68F7201EA0200A2
:1038A00080F4805040F4004141F08001064B03EB6E
:1038B0008402C2F8001C00BF054909688869804776
:1038C0000020CAE7E4000020005000405E01002014
:1038D000F000002010B5174B1B68D978154B1B68FA
:1038E0005879154B1B689A6990470446114800683F
:1038F000807AE8B13CB90F480068007918B90D48E2
:103900000068807808B1022010BD8CB90B490968A5
:10391000C868804707480068407906490968C87246
:1039200004480068C0780349096808730020EBE781
:103930000220E9E7E4000020E8000020F000002079
:1039400038B50021002200230093364B1B6898B243
:1039500000BF09E0344C04EB8103D3F8003C9BB278
:10396000324C44F82130491C0829F3D340F48060DC
:103970002C4B186040F00100186020F00100186026
:1039800000BF284B1B1D1B6803F48063002BF8D07D
:103990004FF6FF33234C241D2360002109E0234B05
:1039A00053F821309BB2204D05EB8104C4F8003C54
:1039B000491C0829F3D340F008001A4B18601B6813
:1039C00098B240F00400174B1860194B1B68009325
:1039D000174B1A6822F0030242F001021A60154BDD
:1039E0001B6843F00403134C23600E4B1B1D1B6824
:1039F00003F48053A3B14EF6FF730A4C241D2360D9
:103A0000231F1B6898B220F00800231F1860084C81
:103A1000009B2360074B1B6823F00403054C2360C5
:103A200038BD0000405C00400050004030360020AF
:103A30000070004010ED00E0042808D14FF0E021B4
:103A4000096941F004014FF0E022116107E04FF0F5
:103A5000E021096921F004014FF0E0221161704773
:103A60007047000010B51348006840F0010011498C
:103A7000086008464068104908400E4948600846FA
:103A800000680E4908400B4908600846006820F4A9
:103A9000802008600846406820F4FE0048604FF42B
:103AA0001F008860FFF720FC4FF0006004490860A9
:103AB00010BD0000001002400000FFF8FFFFF6FEFE
:103AC00008ED00E010B50121880700F060F800283B
:103AD00032D00121880700F04BF818480088401CBC
:103AE000164908801648008850B94FF4FA701449F6
:103AF00008801448006880F480701249086004E06F
:103B00000F480088401E0E49088001200E490870A9
:103B100002F0C6FC0D48008820B10C480088401E09
:103B20000A4908800A48008820B109480088401ED8
:103B300007490880FEF7B0FE10BD0000900000208D
:103B4000920000200C08014040000020C600002028
:103B50004200002010B50121044800F018F818B107
:103B60000121024800F004F810BD000000040040EC
:103B7000CA430282704721B1028842F001020280EA
:103B800004E002884FF6FE731A400280704730B599
:103B90000246002000230024158A05EA01039589C6
:103BA00005EA010413B10CB1012000E0002030BD92
:103BB0001AB183890B43838102E083898B4383811C
:103BC00070470000002202881D4B98420ED01D4B0A
:103BD00098420BD0B0F1804F08D01B4B984205D0D3
:103BE0001A4B984202D01A4B984204D14FF68F7369
:103BF0001A404B881A43174B984207D0164B9842ED
:103C000004D04FF6FF431A40CB881A4302808B88BA
:103C100083850B8803850A4B98420BD0094B984249
:103C200008D00E4B984205D00D4B984202D00D4B58
:103C3000984201D10B7A03860123838270470000EA
:103C4000002C014000340140000400400008004006
:103C5000000C0040001000400014004000400140F3
:103C6000004401400048014001464FF48430081AE6
:103C7000C0F38F207047000000B502461046FFF7E2
:103C8000F3FF012101FA00F0024989690843014963
:103C9000886100BD001002402DE9F84381460D46C1
:103CA00016461F464846FFF7DFFF00F0FF080024D6
:103CB00018E00120A040284090B10C4830F81800CE
:103CC0000121A1400843094921F81800ADF800502E
:103CD0008DF803608DF8027069464846FEF750FB88
:103CE000601CC4B2102CE4DBBDE8F8836403002040
:103CF0002DE9F04105460C4616461F460CB9BDE8B5
:103D0000F0812846FFF7B8FF3B4632462146284659
:103D1000FFF7C2FF00BFF2E700B5412340F21452A3
:103D20000849094800F04EF8412340F63C72074923
:103D3000074800F047F83C23B4220649064800F043
:103D400041F800BD80030020D01700209408002017
:103D5000E0170020F0170020A41800200146C888B2
:103D60008A88904201D0012070470020FCE72DE9AD
:103D7000F04104460D461746E0886189484386B203
:103D8000206810B90020BDE8F0812046FFF7E6FF6B
:103D9000B0B1002005E032182168895C2954411C2B
:103DA00088B261898142F6DCE088401CE080E088CE
:103DB000A18990FBF1F201FB1200E0800120E2E713
:103DC0000020E0E710B50160028143810024C48037
:103DD000848092FBF3F4848110BDFFB504460D4648
:103DE0001646A0886189484387B2206800B9FFBDA4
:103DF00020680090A088ADF80400E088ADF80600C7
:103E00002089ADF808006089ADF80A00A089ADF8F6
:103E10000C009DE80F0000F02CF8A189491E884293
:103E200009D1E088401CE080E088A18990FBF1F294
:103E300001FB1200E08000200CE0B04204DA295CB3
:103E40003B182268D15403E000213B182268D1546A
:103E5000411C88B261898142EFDCA088401CA080AF
:103E6000A088A18990FBF1F201FB1200A08000BFA5
:103E7000BDE70FB5BDF80400BDF80610884205DBAC
:103E8000BDF80400BDF80610401A07E0BDF80400B4
:103E9000BDF80C100844BDF80610401A80B204B0FA
:103EA00000BD7FB505460C4601210846FEF7A0FF80
:103EB000ADF80850ADF804400020ADF80A00ADF8A8
:103EC000060001A94FF08040FFF77CFE0122114659
:103ED0009007FFF76DFE1C208DF8000003208DF881
:103EE00001008DF8020001208DF803006846FEF7FE
:103EF000F9FD01218807FFF73EFE7FBD10B5074899
:103F0000008800F0200040B10448001D0088C4B2C1
:103F10002146034802F09EF900BF10BD0038014061
:103F20008019002001F40072B2F5007F00D100BFBB
:103F3000CA430280704721B1828942F400528281D3
:103F400004E082894DF6FF731A4082817047024671
:103F50000020B1F5007F00D100BF13880B400BB1EA
:103F6000012000E000207047F0B503460024002641
:103F70000025002040F66A17B94200D100BF18465C
:103F8000C1F3421401F01F06012707FA06F5012CC0
:103F900001D10C3004E0022C01D1103000E01430CB
:103FA0001AB107682F43076002E00768AF43076054
:103FB000F0BD00002DE9F04786B005460E4600240E
:103FC000A24600BFA1460027B08900B100BF2F461E
:103FD0002C8A4CF6FF700440F08804432C82AC8994
:103FE0004EF6F3100440B0883189084371890843C4
:103FF0000443AC81AC8A4FF6FF400440B0890443CF
:10400000AC8201A8FEF714FF1F48874202D1DDF8F9
:1040100010A001E0DDF80CA0A88900F4004040B138
:104020000AEBCA0000EB0A1031684900B0FBF1F856
:1040300007E00AEBCA0000EB0A1031688900B0FB08
:10404000F1F86420B8FBF0F004012009642101FBC1
:104050001089A88900F4004040B1322000EBC9006B
:10406000B0FBF1F000F00700044308E0322000EB61
:1040700009106421B0FBF1F000F00F0004432C8123
:1040800006B0BDE8F087000000380140C1F3080227
:10409000828070477FB504460D461646287820700A
:1040A00068786070A978E87801EB00206080287952
:1040B000207168796071A879A071E879E07100BF1A
:1040C000E079A17962792379CDE90032CDE9021056
:1040D0006388627821781AA002F096F924A002F091
:1040E00093F900BF082E29DD297A687A01EB0020B8
:1040F0002081A97AE87A01EB00206081297B687B26
:1041000001EB0020A081A87BA073E87BE073287CF2
:104110002074687C607400BF627C207CE17BA37BA0
:10412000CDE90031CDE90202A3896289218911A07C
:1041300002F06AF90EA002F067F900BF7FBD00002F
:104140003E446576446573635F31202530325820E4
:10415000253032582025303458202530325820253B
:104160003032582025303258202530325800000097
:104170000D0A00003E446576446573635F32202576
:1041800030345820253034582025303458202530FC
:1041900032582025303258202530325820253032F0
:1041A0005800000010B54FF48020FEF7C1F810BD94
:1041B00010B5044624B94FF400710248FEF7B4F973
:1041C00010BD00000010014010B5FFF701F900F02C
:1041D00025F8FFF705F900F003F8FEF711FF10BD11
:1041E00010B50848084908600220096808720748A5
:1041F00007490860074808490860054909680868D0
:10420000804710BD94350020E400002060010020AC
:10421000E800002090010020F000002008B51420E4
:104220008DF8000001208DF8010000208DF80200BB
:1042300001208DF803006846FEF754FC2A208DF813
:10424000000000208DF8010001208DF80300684671
:10425000FEF748FC08BD000010B588B0002468488F
:104260000068684908800846008800F400406649F4
:104270000988084008B1FDF7D7F96248008800F4C2
:10428000806061490988084030B14FF6FF305C49D1
:1042900008605E49486880475A48008800F400502A
:1042A00059490988084018B14DF6FF705449086013
:1042B0005448008800F4805053490988084030B1C0
:1042C0004EF6FF704E4908600020FEF721FE4D4873
:1042D000008800F400604C490988084060B14C48EF
:1042E000007810B1FFF72CFB02E00220FEF710FE71
:1042F0004FF2FF70424908604248008800F40070A5
:1043000041490988084040B14FF6FF503C490860D8
:1043100040480078401C3F4908703A48008800F443
:104320008070394909880840002866D04FF6FF6040
:1043300033490860081D006800F40040002856D08A
:1043400035480068401C3449086008460068032866
:1043500050D92B48001F006800F00800002849D100
:104360002748001F006880B22C490860002408E03C
:104370002B4901EB8400D0F8000C80B24DF82400EA
:10438000641C082CF4D32548006840F00100234940
:1043900008600846006880B21949091F08601F4874
:1043A000006820F001001D4908600846006880B2DE
:1043B0001349091F086000BF1148006800F48060BD
:1043C0000028F9D04FF6FF300D490860002408E0BE
:1043D0005DF8240080B2124A02EB8401C1F8000C9F
:1043E000641C082CF4D300200B49086002E0002074
:1043F000094908600720FEF78BFD08B010BD0000DA
:10440000445C004014010020EE0000206001002008
:10441000F801002016010020180100201C010020D6
:104420000050004010B5FFF717FF10BD00200649EF
:1044300008604FF43F40054908800846008802495B
:10444000091F086000207047445C0040EE00002017
:1044500000BFFEE7F0B587B004460F4615461E467E
:104460003E4951F824103E4A52F82420114341F0AD
:1044700001000121FEF7CCFC01203A49085534B96E
:10448000394951F824000121FEF7C2FC08E0012C53
:1044900000D000BF344951F824000121FEF7A8FCE8
:1044A00018208DF81B00314830F81400ADF81800C2
:1044B00003208DF81A002E4951F8240006A9FDF7B3
:1044C0005FFF04208DF81B002A4830F81400ADF877
:1044D0001800294951F8240006A9FDF751FF029759
:1044E0000020ADF80C00ADF80E00ADF81000ADF8EE
:1044F00014000C20ADF81200204951F8240002A944
:10450000FFF758FD1D4951F824000121FFF713FD65
:104510001A4951F82400012240F22551FFF724FDE9
:10452000164951F824004021FFF7FCFC0F2D00DB59
:104530000F250F2E00DB0F26114810F814008DF800
:1045400004008DF805508DF8066001208DF80700F5
:1045500001A8FEF7C7FA07B0F0BD00009467000895
:10456000A0670008B800002088670008AC67000852
:10457000A0000020B2670008AC00002094000020DA
:104580008067000870B504460D460A48005D00B912
:1045900070BD094951F824002946FFF777FD00BF97
:1045A000054951F824008021FFF7D1FC0028F7D0FD
:1045B00000BFEDE7B80000209400002070B505466C
:1045C0000C4616460848405D00B970BD04E014F87A
:1045D000011B2846FFF7D6FF301EA6F101018EB25F
:1045E000F5D100BFF1E70000B8000020F0B5144697
:1045F00004F1010C4FEA6C07DFF824C00CEB410317
:104600003D460AE00678401C90F800C046EA0C22BD
:1046100023F8022B9B1C401C6D1E002DF2D1F0BD17
:10462000006000400FB4084B10B504A902AA03981B
:1046300000F0F4F8044602A9002000F091FC2046A6
:1046400010BC5DF814FB0000614F00087CB5044607
:1046500000201D46164600290BD0491ECDE9004119
:10466000044B6A462946304600F0D8F8009A0021EB
:1046700011707CBD4B4F000802E008C8121F08C132
:10468000002AFAD170477047002001E001C1121FD3
:10469000002AFBD1704700002DE9FF5F82B00021A6
:1046A000DDE90430020DDDF840B0034318D044F6D4
:1046B0001050A2F2FF3242431514119801281FD066
:1046C000A5EB0B00401C5FEA000A4FF000064E4FBE
:1046D000DFF83891B046504615D5CAF1000413E012
:1046E000119801244AA3012801D16FEA0B01029815
:1046F000119AC0E90031C0E9024206B0BDE8F09F5E
:10470000CBF10000DFE704460021404A491842EBA4
:104710000450CDE9001012E0E00707D032463B46D6
:1047200040464946FBF729FE8046894632463B46CD
:1047300010461946FBF721FE06460F466410002C72
:10474000EAD1DDE90401DDE90023BAF1000F06DA60
:10475000FBF713FE42464B46FBF70FFE05E0FBF767
:104760007EFE42464B46FBF77AFE04460E4600228A
:10477000284BFBF7FBFE03D84FF0FF30014607E064
:104780000022254B20463146FBF750FDFBF7D6FEB5
:10479000102409E0002C0ADB0A220023FBF715FD98
:1047A000039B30321A55641E50EA0102F2D1641C98
:1047B000039AC4F111031444119A012A03D001226F
:1047C00008430DD10AE0084304D000204FF0110B3C
:1047D000119072E7A3EB0B056D1E0DE05B4504DD48
:1047E0004FF0000205F1010504E003DA4FF000028A
:1047F000A5F10105002AECD002981199C0E9023117
:10480000C0E9004579E70000000014400000F03FD7
:10481000300000000000F0430000E03F2DE9FF4FB2
:1048200095B09B468946064600250FE2252877D19C
:1048300000242746F84A0121059400E0044316F8B5
:10484000013F203B01FA03F01042F7D130782A28CB
:1048500011D06FF02F033078A0F13002092A16D85A
:10486000059A44F0020402EB820203EB4202104478
:10487000761C0590EFE759F8042B0592002A03DA1D
:10488000504244F40054059044F00204761C307801
:104890002E2816D116F8010F44F004042A280DD052
:1048A0006FF02F023078A0F13003092B09D807EB05
:1048B000870302EB4303C718761CF3E759F8047B20
:1048C000761C30786C280FD006DC4C2817D068286E
:1048D0000DD06A2814D104E0742810D07A280FD1A2
:1048E0000DE044F400140AE044F4801401E044F4C0
:1048F00040147278824202D104F58014761C761C32
:10490000307866280BD013DC582877D009DC0028D3
:1049100075D04528F6D04628F4D047281AD19DE115
:1049200018E0632835D0642879D0652812D195E144
:10493000702873D008DC6728F1D069286FD06E2802
:104940000DD06F2806D1B5E073282CD0752875D00E
:10495000782874D05A46179990476D1C75E1C4F3B6
:104960000250022809D003280DD0D9F800100428DD
:104970000DD00D6009F1040967E1D9F80010EA17BC
:10498000C1E90052F6E7D9F800100D80F2E70D708A
:10499000F0E719F8041B8DF8001000208DF80100D5
:1049A000EA46012003E059F804AB4FF0FF306107FD
:1049B0004FF0000102D40DE008F101018846B94230
:1049C0000FDA8045F8DB1AF808100029F4D108E066
:1049D00008F1010188468142FADB1AF80810002923
:1049E000F6D105985B46A0EB080721463846179A92
:1049F00000F094FA284400EB080507E04DE029E1B7
:104A00000DE01AF8010B5A4617999047B8F10108C2
:104A1000F7D25B4621463846179A13E142E00A2254
:104A20000092C4F302524FF0000A022A08D059F84B
:104A300004CB032A4FEAEC710AD00DE029E02AE00A
:104A400009F1070121F00702F2E802C1914609E0ED
:104A50000FFA8CFC4FEAEC71042A03D14FFA8CFC5C
:104A60004FEAEC71002907DA0A460021DCF1000C5C
:104A700061EB02012D2202E0220504D52B228DF8E4
:104A80000420012203E0E20701D02022F7E790464C
:104A900059E00A2102E010220DE010214FF0000A37
:104AA00000910BE010224FF0000A44F004040827A4
:104AB000009203E008224FF0000A0092C4F3025271
:104AC000022A05D059F804CB0021032A08D009E0B6
:104AD00009F1070121F00702F2E802C1914605E061
:104AE0001FFA8CFC042A01D10CF0FF0C4FF00008D7
:104AF000220728D5702806D0009B83F0100353EAC4
:104B00000A0305D00EE040228DF80420012208E0BF
:104B10005CEA010206D030228DF804208DF80500F1
:104B200002229046009B83F0080353EA0A030AD14D
:104B30005CEA010201D1620705D530228DF804201C
:104B40004FF001087F1E582804D034A003900EA80F
:104B500002900DE036A0F9E753466046009AFBF755
:104B600034FB84460398825C0298401E02900270D7
:104B70005CEA0100F0D1029806A9081A00F1200AA7
:104B8000600702D524F4803400E00127574502DD98
:104B9000A7EB0A0000E0002000EB0A010090059856
:104BA0004144401A0590E00306D45B462146179A1B
:104BB000059800F0B3F90544002706E001A85A461D
:104BC000C05D179990476D1C7F1C4745F6DBE003DD
:104BD0000CD55B462146179A059800F09FF90544CD
:104BE00004E030205A46179990476D1C0099481EE2
:104BF00000900029F5DC08E0029802995A460078F6
:104C0000491C0291179990476D1CBAF10001AAF155
:104C1000010AF1DC65E1000009280100303132337E
:104C200034353637383961626364656600000000E8
:104C300030313233343536373839414243444546D2
:104C40000000000000F058F90544761C3078002878
:104C50007FF4ECAD19B02846BDE8F08F620700D4B0
:104C6000062709F1070222F0070CFCE80223E146BF
:104C700003F000485FEA080C02D00FF2702C0DE040
:104C80005FEA045C02D50FF2682C07E05FEAC47C9F
:104C900002D00FF2602C01E0AFF2700C4FF0FF3841
:104CA00023F00043CDF850C065280CD006DC452821
:104CB00009D046281DD047283DD13DE0662818D0B0
:104CC00067287ED138E00021112F01DB112000E0A0
:104CD000781CCDE9000106A90EA8FFF7DDFCDDE98F
:104CE0000F010E9A03910021009207F1010A04912D
:104CF0004DE04FF000400097CDE9011006A90EA845
:104D0000FFF7CAFCDDE90F0203920E9B1199002206
:104D1000DDF80CA00093049211B9791C00EB010A94
:104D2000B7EB0A0004D4C0F1FF3007F1010A049088
:104D3000AAEB0700019044E0012F00DA01270021CF
:104D4000112F01DD112000E03846CDE9000106A950
:104D50000EA8FFF7A1FCDDE90F010E9A03910021D7
:104D600004910092BA4621070CD40399514500DA08
:104D70008A46BAF1010F05DD009AAAF10101515CE2
:104D8000302908D0B84202DA10F1040F06DA012106
:104D9000CDE9011015E0AAF10101E9E7002805DCE1
:104DA000049901440491AAEB000102E0411C514521
:104DB00000DD8A460499401A401C01904FF00040E3
:104DC0000290200704D40198504501DBCDF80480FF
:104DD00000208DF84F0002980DF14F07B0F1004F01
:104DE00025D02B200E9002984FF0020800280CDAF4
:104DF000404202902D200E9007E00A210298FBF716
:104E0000CEF93031029007F8011DB8F10001A8F188
:104E10000108F2DC02980028EFD1791E0E98087084
:104E2000307800F0200040F0450007F8020D12A88D
:104E3000C01B00F107081498007800B1012000EBB6
:104E40000A01019801EBE07105984144401A401EA7
:104E50000590E00306D45B462146179A059800F0BA
:104E60005DF805441498007818B15A461799904790
:104E70006D1CE00324D55B462146179A059800F087
:104E80004DF805441CE00498002807DBDDE9030128
:104E9000884203DD0098405C179901E017993020A3
:104EA0005A469047049805F10105401C049001986A
:104EB000401E019004D12E205A46179990476D1C30
:104EC000BAF10001AAF1010ADDDC05E017F8010BD7
:104ED0005A46179990476D1CB8F10001A8F10108D6
:104EE000F4DC5B462146179A0598ABE62D000000DE
:104EF0002B000000200000002DE9F04104460025B1
:104F00001E461746880404D405E039462020B047E1
:104F10006D1C641EF9D52846BDE8F0812DE9F041ED
:104F2000044600251E469046C80301D5302700E000
:104F30002027880404D505E041463846B0476D1C5B
:104F4000641EF9D52846BDE8F0814A68002A06D0DB
:104F50000A68531C0B6010704868401E4860704718
:104F60000A68531C0B601070704700002DE9F05F59
:104F70000746894616463548D0F800800025344853
:104F8000D0F800A0AB463348007800B33248007830
:104F9000E8B93248826928466D1C47F820202F481E
:104FA0004069441E2E480068844210D32C48006893
:104FB0002C4909680844A04209D3102D07D24D4559
:104FC00005D228466D1C47F820404FF0010B2248BF
:104FD000007848B1464501D2464605E008EB0A0094
:104FE000B04201D208EB0A0629E03068041F04F041
:104FF000010000B922E03068441E1948006884426C
:105000001BD317480068174909680844A04214D305
:10501000102D12D2201F00F08EFC70B14D450CD225
:10502000022D06D1BBF1000F03D07868A04200D159
:1050300004E028466D1C47F8204000BF361D08EBF1
:105040000A00B042D1D82846BDE8F09F6C0000208D
:10505000700000207D0000207E0000202003002042
:1050600074000020780000202DE9F0438DB08046C8
:105070000E4635462C462022644905A8FBF758F811
:10508000634807686348D0F800903246414662A002
:1050900001F0BAF966A001F0B7F96648007848B99E
:1050A000654A66A167A001F0AFF961A001F0ACF913
:1050B00000BFFEE76B48007848B15F4A6AA161A073
:1050C00001F0A2F95AA001F09FF900BFFEE701200C
:1050D0006449087067A001F097F955A001F094F9B0
:1050E00000F008F96449C86A01F08EF950A001F097
:1050F0008BF92035BD4203D307EB0900A84202D249
:1051000001205E4908702A464946384600F02CFCCA
:105110005A48007800284BD15749086B01F074F9C0
:1051200043A001F071F95649206808606068486042
:10513000A0688860E068C8602069086160694861AB
:10514000A0698861E069C8610846C0684C4A08994E
:105150009268079BCDE90132CDE9031048484068C9
:1051600000904748069B026846A0059901F04CF95B
:105170002FA001F049F94248C06941490C9A896958
:105180000B9BCDE90131CDE903203D4840690090FA
:105190003B480A9B02693BA0099901F035F924A01C
:1051A00001F032F942A001F02FF921A001F02CF911
:1051B0004F480068324908624D48001D007881F868
:1051C00024004B481030006888624948401D007830
:1051D00081F82C0046481430006808634448801D5C
:1051E00000888886424808300068886340480C3050
:1051F0000088C8633E4818300088086400F04AFC04
:10520000284600F0B1FF0DB0BDE8F08360670008EC
:105210006C000020700000204C523A2558202020BD
:105220005043286572722041646472293A256400F3
:105230000D0A00007C0000204C670008696E69744C
:105240005F6F6B0028257329206861732061737379
:10525000657274206661696C6564206174202573D1
:105260002E0000007D000020216F6E5F6661756C6E
:105270007400000000000000A06600087E0000200E
:1052800020030020202025733A2025303878202064
:1052900025733A2025303878202025733A20253090
:1052A0003878202025733A20253038780000000017
:1052B0003D3D3D3D3D3D3D3D3D3D3D3D3D3D3D3D1E
:1052C0003D3D3D3D3D3D3D3D3D3D3D3D3D3D3D3D0E
:1052D0003D3D3D3D3D3D3D3D3D3D3D3D3D3D3D3DFE
:1052E0003D3D3D3D3D3D3D3D3D3D3D3D3D3D000068
:1052F00024ED00E010B50549054B064A486806490B
:1053000001F082F805A001F07FF810BDA06600084A
:105310007002002050020020300200200D0A000020
:1053200070B504460E461546202221461648FAF767
:1053300023FF202231461548FAF71EFF2022294676
:105340001348FAF719FF134813490860134809680E
:10535000401A134908601348134908601348096844
:10536000401A134908600E48006838B911490868A6
:1053700001F04AF810A001F047F870BD01200F4974
:10538000087000BFF9E70000300200205002002042
:1053900070020020783C00206C0000207840002043
:1053A0007000002000000008740000200473000852
:1053B00078000020A06600080D0A00007C00002094
:1053C0007FB50646002404E0305D18490855601C8E
:1053D000C4B2082CF8DB3823154A02A9304601F084
:1053E0009FF800241EE0002504E002A800F0B0FFB2
:1053F000681CC5B20F48005DA842F6DC40230E4A87
:10540000694602A801F08CF8002507E01DF80500A8
:105410000A4901EBC4014855681CC5B2082DF5DBEB
:10542000601CC4B2102CDEDB7FBD0000BD0000207C
:105430007A680008526B0008B26800081435002032
:1054400010B56FF00400FEF7F7FA0A4800680A4941
:10545000B0FBF1F0094908700846007800EB400104
:10546000C1EBC0104FF6FF7101EAC000044908808B
:1054700010BD00004400002000127A008C000020C3
:105480008E00002010B5044602E0012000F006F86E
:10549000201EA4F101018CB2F7D110BD0146114AC2
:1054A00012884A434FF0E0235A6100229A611A465B
:1054B000126942F001021A6100BF4FF0E022106948
:1054C00000F001021AB100F48032002AF5D04FF04A
:1054D000E022126922F001024FF0E0231A6100225B
:1054E0009A6170478E0000200146114A12784A43A3
:1054F0004FF0E0235A6100229A611A46126942F085
:1055000001021A6100BF4FF0E022106900F00102B1
:105510001AB100F48032002AF5D04FF0E02212696F
:1055200022F001024FF0E0231A6100229A617047D5
:105530008C0000202DE9F04F87B082460F46904640
:10554000994600250AE0785D3A49495D884203D0D2
:105550003846FFF735FF0725681CC5B2082DF2DB7A
:105560004023354A05A9504600F0DAFF012536E010
:10557000002405E005A8005D03A90855601CC4B21D
:10558000082CF7DBB8F1000F04D1681E2B4901EBA2
:10559000C00B04E0C5F11000284901EBC00B00244A
:1055A00006E003A9201D085C05A90855601CC4B2CB
:1055B000042CF6DB01AA05A9584600F03DFA0024A8
:1055C00009E003A8005D01A9095D484005AA211D65
:1055D0005054601CC4B2042CF3DB681CC5B2112DFE
:1055E000C6DB9DF814609DF818008DF814008DF846
:1055F00018609DF815609DF819008DF815008DF85C
:1056000019609DF816609DF81A008DF816008DF847
:105610001A609DF817609DF81B008DF817008DF833
:105620001B604023064A494605A800F079FF07B0F1
:10563000BDE8F08FBD000020BA67000814350020D7
:10564000FA670008F8B504460D4616461F46F5B938
:1056500089482060894860601020E0812020A08176
:1056600040202081802060818548E06120202062E8
:105670000C206062824814302061401560610D206A
:10568000A061012141F20500FDF7C2FB44E0012DBC
:105690001ED1794820607B4860600420E0810820AA
:1056A000A08110202081202060817548E0612020A9
:1056B00020620C20606272481430206140156061E5
:1056C0000D20A061012141F20900FDF7A1FB23E0BB
:1056D000022D21D16C4820606A4860608014E0810E
:1056E0004000A08140002081400060816448283053
:1056F000E061280320620E20606261483C30206136
:10570000280460610F20A06101218803FDF770FB70
:1057100001210920FDF77CFBA08961890843ADF8D0
:10572000000003208DF8020018208DF80300694660
:105730006068FCF725FEE089ADF8000010208DF8C8
:10574000030069466068FCF71BFE6068C068E18979
:1057500008436168C8602089ADF8000048208DF8D2
:10576000030069466068FCF70BFE04F15400FDF786
:10577000A1FC0020A4F854004FF48271562001537C
:105780000021582001534FF400715E200153602026
:10579000075300216220015336B1012E0AD0022E98
:1057A0000FD0032E1BD113E000215A2001535C209F
:1057B00001531BE000215A20015301215C200153B9
:1057C00014E002215A20015300215C2001530DE016
:1057D00002215A20015301215C20015306E00021DF
:1057E0005A20015301215C20015300BF00BF00215A
:1057F0002068FDF717FC04F154012068FDF73CFC1C
:1058000001212068FDF71AFC01210846FDF7E0FAA6
:1058100004F12800FCF73FFBE069FCF759FA206926
:10582000FCF756FA20680C30A0620021A1638021A9
:10583000E163002121646164A1644FF40051E164DB
:105840000021216594F8241048B2FDF73FF90122A8
:105850000221E069FCF7F8FA217E48B2FDF736F93B
:10586000012202212069FCF7EFFA012203212068BE
:10587000FDF7F0FB2046F8BD003001400008014074
:105880001C000240000C01400038004070B5044686
:105890000D461646E56266630021A1648021E1633E
:1058A0000021216361642164204600F001F870BD8D
:1058B00010B5044604F12801E069FCF7CEFA012195
:1058C000E069FCF7F9F910BD70B504460D461646BF
:1058D000E56266630021A1648021E16310212163F8
:1058E000002161642164204600F00FF870BD41681A
:1058F000C968C28991434268D16070474168C968EC
:10590000C28911434268D160704710B5044604F162
:1059100028012069FCF7A1FA01212069FCF7CCF9E4
:1059200010BD10B5044600BF80212068FDF79BFB29
:105930000128F9D010BD01460B884A8802F478404E
:10594000B0F5784F06D103F47840B0F5704F01D12F
:105950000120704702F47F40B0F58E4F01D1012045
:10596000F7E70020F5E7000070B505460E4614463F
:105970001C480078D8B11C48007840B11B498869A0
:10598000214600F041FD1AA000F03EFD07E0174956
:10599000C869214600F038FD15A000F035FDAC4285
:1059A00001D22C4603E0A819A04200D2AC190F493D
:1059B000086900F029FD0EA000F026FD08E0214650
:1059C0000CA0226800F020FD09A000F01DFD241DA0
:1059D000A819A042F3D80EA000F016FD04A000F014
:1059E00013FD70BD7E0000207F000020A06600082F
:1059F0000D0A00002020616464723A202530387856
:105A000020202020646174613A202530387800001D
:105A10003D3D3D3D3D3D3D3D3D3D3D3D3D3D3D3DB6
:105A20003D3D3D3D3D3D3D3D3D3D3D3D3D3D3D3DA6
:105A30003D3D3D3D00000000F0B587B005460E46F7
:105A400017464023104A05A9304600F069FD00249E
:105A500010E005A8005D295D484000F03F0003A963
:105A600008550A4800EB8410095D405C01A90855FF
:105A7000601CC4B2082CECDB2023054A394601A87F
:105A800000F04EFD07B0F0BDF26800085269000852
:105A90003269000810B5B14890F83800C0F34000F2
:105AA00030B1AF49486B00F0AFFCAEA000F0ACFCE9
:105AB000AA48806BC0F3807000287DD0A74890F87A
:105AC000240000284ED0A54890F8240000F00100E2
:105AD00030B1A349886B00F097FCA2A000F094FCC1
