:020000040800F2
:100000000840002001010008AD2A00082501000871
:10001000A92A000833070008554300080000000023
:10002000000000000000000000000000D12F0008C8
:10003000E121000800000000E52C000865390008F7
:100040001B0100081B0100081B0100081B01000820
:100050001B0100081B0100081B0100081B01000810
:100060001B0100081B0100081B010008DD1C000823
:10007000E11C0008011D0008251D0008491D00089D
:100080001B0100081B0100081B0100081B010008E0
:10009000294300081B0100081B0100084922000831
:1000A0001B0100081B0100081B0100081B010008C0
:1000B000C9390008593A00081B0100081B01000853
:1000C0001B0100081B0100081B0100081B010008A0
:1000D0001B010008013E00081B0100081B0100086D
:1000E0001B0100081B010008A9400008DFF80CD024
:1000F00000F054FA004800473D5A0008084000202C
:100100000648804706480047FEE7FEE7FEE7FEE7B1
:10011000FEE7FEE7FEE7FEE7FEE7FEE769390008D7
:10012000ED0000087046694604F020FFFFF7FEFF6F
:1001300040EA01039B0703D009E008C9121F08C069
:10014000042AFAD203E011F8013B00F8013B521EE9
:10015000F9D27047D2B201E000F8012B491EFBD260
:1001600070470022F6E710B513460A4604461946C2
:10017000FFF7F0FF204610BD10B5044604E00B78F1
:1001800000F8013B03B1491C521EF8D2204610BDB5
:10019000421C10F8011B0029FBD1801A704730B5B2
:1001A0000B46014600202022012409E021FA02F535
:1001B0009D4205D303FA02F5491B04FA02F52844CF
:1001C000151EA2F10102F1DC30BD2DE9F05F0546FC
:1001D000002092469B4688460646814640241BE006
:1001E000284641464746224600F0F9F953465A460A
:1001F000C01A914110D311461846224600F0E0F98A
:100200002D1A67EB01084F4622460120002100F01D
:10021000D7F917EB00094E41201EA4F10104DFDCE1
:10022000484631462A464346BDE8F09F2DE9FE4F39
:10023000804681EA0300C00F0C46009021F0004187
:1002400023F00045B8EB0200A94105D24046214603
:1002500090461C460B46024623F00040104347D010
:10026000270DC7F30A00C3F30A510290401A019008
:1002700040286BDAC3F3130040F4801B00989246C9
:1002800020B10023D2EB030A63EB0B0B0198594614
:10029000C0F14002504600F093F906460D46504624
:1002A0005946019A00F0ABF910EB080061410024B7
:1002B00087EA115284EAE7731A4340D0009A62B386
:1002C000019A012A4FEA075215DC001B61EB02017B
:1002D0004FF0004202EA0752CDE90042001C41F50E
:1002E000801132462B4600F0ABF903B0BDE8F08F29
:1002F00040462146F9E7001B61EB0201001C41F575
:10030000801300185B412018A2F5001747EB03018A
:1003100040EAD570B6196D4111E06D084FEA360616
:1003200045EAC0754FEA0752001B61EB0201001C51
:1003300041F5801149084FEA300000195141324619
:100340002B4603B0BDE8F04F00F06BB900980122D6
:1003500040000023D0EB020263EBE07300982146DB
:100360004FEAE074B8EB000061EB0401E9E783F0C9
:1003700000435BE781F0004158E72DE9FE4F81EA39
:10038000030404F0004421F0004100944FF0000BFE
:1003900023F0004350EA01045ED052EA03045BD02C
:1003A000C3F30A54C1F30A552C44A4F2F334019464
:1003B000A0FB0254C1F3130141F48011C3F31303F2
:1003C00043F4801301FB024400FB034E840A970AA6
:1003D00044EA815447EA8357A4FB076802958D0AD3
:1003E00005FB07854FEA932C04FB0C542705029D5F
:1003F0004FEA065847EA1637B5EB08056EEB070CCF
:10040000870E920E47EA811742EA8312A7FB020188
:10041000B6EB0B0164EB00042B0D43EA0C335E18C2
:1004200044EB1C50DA465146E7FB0201C5F31304C6
:100430004FEA0B3343EA14534FEA0432019C43EA78
:100440000603A4F10C040294009CCDE900B400F072
:10045000F7F803B0BDE8F08F00200146F9E72DE979
:10046000F04D81EA030404F0004B21F000451446EE
:100470004FF0000A23F0004150EA050220D054EA70
:1004800001021DD0C5F30A570246C5F31303C1F399
:100490001300C1F30A5640F4801543F48013A7EB10
:1004A0000608101BD64608F2FD3873EB050002D390
:1004B00008F1010801E092185B41B8F1000F03DA7E
:1004C00000200146BDE8F08D00204FF48011064663
:1004D00084460EE0171B73EB050705D3121B63EB75
:1004E000050306434CEA010C49084FEA3000921814
:1004F0005B4150EA0107EDD152EA030012D082EAD3
:10050000040083EA0501084305D0101BAB4106D265
:100510000122002306E000224FF0004302E06FF0CA
:10052000010253101AEB06004CEB085110EB0A00C5
:1005300041EB0B01BDE8F04D00F073B8C1F30A5276
:10054000C1F3130140F2FF3341F480119A4202DA01
:1005500000200146704740F233439A42A2F23342F0
:1005600002DC524200F03BB800F02AB830B5041E5D
:1005700071F1000404DB4FF00044404264EB0101E0
:10058000141E73F1000405DB1C464FF00043524279
:1005900063EB0403994208BF904230BD064C074DFF
:1005A00006E0E06840F0010394E807009847103443
:1005B000AC42F6D3FFF79EFD906D0008B06D0008C9
:1005C000202A04DB203A00FA02F100207047914013
:1005D000C2F1200320FA03F3194390407047202A08
:1005E00004DB203A21FA02F00021704721FA02F3DD
:1005F000D040C2F120029140084319467047202A9A
:1006000006DBCB17203A41FA02F043EAE07306E03A
:1006100041FA02F3D040C2F120029140084319464A
:10062000704710B5141E73F1000408DA401C41F144
:10063000000192185B411A4301D120F0010010BD66
:100640002DE9F04D92469B4611B1B1FA81F202E0DC
:10065000B0FA80F220329046FFF7B2FF04460F4610
:1006600040EA0A0041EA0B0153465A46084313D0B8
:10067000114653EA010019D0C8F140025046FFF775
:10068000AEFF05460E46504659464246FFF798FFD4
:10069000084305D0012004E020463946BDE8F08D2E
:1006A0000020054346EAE0762C4337430A98630569
:1006B000E40AA0EB08000022FD0A44EA47540A308D
:1006C00002D500200146E9E7010510196941DDE97D
:1006D000084500196941BDE8F04DA2E770B58C18D6
:1006E00010F8015B15F0070301D110F8013B2A1146
:1006F00006D110F8012B03E010F8016B01F8016B33
:100700005B1EF9D12B0705D40023521E0DD401F82E
:10071000013BFAE710F8013BCB1A921C03E013F8F7
:10072000015B01F8015B521EF9D5A142D8D300202C
:1007300070BD00BFFEE70146CAB20B1243EA0220B9
:1007400070470000F0B502460D460021002300244A
:10075000A5E0481C105C02280DD1081D105C524E0B
:10076000B0723046807A022801DDFE20F0BD481DBF
:10077000105C4D4E3071481C105C04284CD14A4826
:10078000807A984246D00024581CC3B2881C165C5C
:10079000581E00EB800707EBC00743480B30C655D7
:1007A000081D165C581E00EB800707EBC0073E488B
:1007B0000B3038440671581E00EB800606EBC0066D
:1007C00039480B3030440079022801DDFC20CDE7A8
:1007D000481D165C581E00EB800707EBC007324827
:1007E0000B3038444670881D165C581E00EB80079D
:1007F00007EBC0072C480B3038448670C81D165CC8
:10080000581E00EB800707EBC00727480B30384421
:10081000C67001E0FB20A9E7481C105C05283BD10D
:10082000581E00EB800606EBC0061F480B30304414
:100830000079A0422ED0601CC4B2881C175C581EE0
:1008400000EB800606EBC00617480B303044401D15
:10085000661E00F82670C81C175C581E00EB800648
:1008600006EBC00610480B303044401D661E00EBFE
:1008700086008770081D175C581E00EB800606EB8B
:10088000C00609480B303044401D661E00EB860050
:10089000C77001E0FB2069E7505C084481B2A942BF
:1008A000FFF657AF142061E7E435002010B500F0E3
:1008B00093F9FF2800D110BD072000F015FB044676
:1008C000142C01D0FF20F6E70F2004F05DFD062078
:1008D00000F00AFB0446142C01D0FF20EBE700F0E7
:1008E00045FB0446152C03D10020034988701424CD
:1008F00000F0E8FA2046DEE7E435002010B500F00D
:10090000D3F860B10A48007878B9FA2004F03CFDC9
:1009100000F0CAF848B101200549087005E0044814
:100920000078002801DD00F0EBF90148007810BDE7
:10093000E43500207FB5054614A103C9CDE90001C7
:100940008DF8045002AA03A9284600F0C5F8044611
:10095000142C02D0204604B070BD00221146684617
:1009600000F01AF80446142C0ED100219DF80C005A
:1009700000EB800202EBC00206481044401D9DF8C7
:10098000082000EB820041702046E4E702010000ED
:1009900000000000EF3500202DE9F74F05468B469B
:1009A0004FF00008D946C246022000F0B1FAA879FB
:1009B000E97940EA01260821284600F0E9FA0D22EB
:1009C0004146002000F0BBFA0746142F67D188F09B
:1009D0000108287800F0800008B31DE00922414694
:1009E000002000F0ACFA0746142F12D188F001085D
:1009F000484600F0F9F904460AEB04001FFA80FAB1
:100A00002848C078A04200DD08E0A144301B86B22F
:100A100002E03846BDE8FE8F002EDFD123E020E063
:100A20002048C078B04202DA1E48C07800E0304664
:100A3000C4B22146484600F0ABFA012241460020EC
:100A400000F07DFA0746142F09D188F001080AEB5F
:100A500004001FFA80FAA144301B86B201E0384638
:100A6000D8E7002EDCD14FF00108287800F0800094
:100A700050B10021484600F08BFA01224146002087
:100A800000F05DFA074605E009224146002000F02B
:100A900056FA07460298A0F800A03846BAE738464A
:100AA000B8E70000E435002010B502F061F908B1A4
:100AB00000F0B2F8162005F0EFFA052004F096FCDD
:100AC00005F0B6FA0446152C01D0182C01D10120EE
:100AD00010BD0020FCE7000070B503460C4615462B
:100AE00000211DE0002210E001EB810000EBC106B7
:100AF0000F483044401D10F82200984203D1217065
:100B00002A70142070BD501CC2B201EB810000EBB2
:100B1000C1060748304400799042E5DC481CC1B268
:100B200003480B38807A8842DCDCF920EAE70000D1
:100B3000EF3500207CB504460D4612A103C9CDE96E
:100B4000000104208DF806002A4621466846FFF77A
:100B500023FF0646142E12D1A0788DF80600E07807
:100B60008DF807002A4621466846FFF715FF06461E
:100B7000142E04D129882046FFF7E4FD06463046AE
:100B80007CBD0000800600020000000070B5044635
:100B90000D46462005F080FA012005F0A7FA00F086
:100BA000E5F90646142E12D1204600F01DF92880E2
:100BB000E0790849C870207A617A00EB0120054984
:100BC000C880A07AE17A00EB012002490881304612
:100BD00070BD0000E435002010B5052000F084F958
:100BE0000446142C01D0FF2010BD0A2005F054FA51
:100BF000072005F07BFA05F01BFA044604F010000C
:100C000018B101200349487002E0002001494870F2
:100C10002046E9E7E435002010B5222005F03CFA33
:100C200005F006FA0446204610BD00002DE9FC47F9
:100C300006460F4690461D46B946002000F068F96A
:100C400046F080006A4601A9FFF746FF0446142CCF
:100C500002D02046BDE8FC874CE09DF8040000EB84
:100C6000800202EBC00225481044401D9DF8002080
:100C700000EB820041780922304600F060F904461A
:100C8000142C23D19DF8040000EB800101EBC0017E
:100C90001A480844401D9DF8001000EB8100407880
:100CA00080F001019DF8040000EB800202EBC0021D
:100CB00012481044401D9DF8002000EB8200417056
:100CC000484600F091F8A8F8000014E02E2C05D159
:100CD00046F08000FFF72EFE04460CE02A2C08D1D7
:100CE00005B908E04FF6FF70854203DA681E85B249
:100CF00000E000E0B1E700BF2046ABE7EF350020A1
:100D000010B526210348FFF72CFA08200149C870C6
:100D100010BD0000E43500202DE9FC4780460E465A
:100D200017461D46B146002000F0F2F86A4601A9B8
:100D30004046FFF7D1FE0446142C02D02046BDE801
:100D4000FC874AE0F9B2484600F022F99DF8040019
:100D500000EB800202EBC00222481044401D9DF8C7
:100D6000002000EB820041780122404600F0E7F8C5
:100D70000446142C1ED19DF8040000EB800101EB09
:100D8000C00118480844401D9DF8001000EB810088
:100D9000407880F001019DF8040000EB800202EB36
:100DA000C00210481044401D9DF8002000EB820056
:100DB000417013E02E2C04D14046FFF7BBFD0446E2
:100DC0000CE02A2C08D105B908E04FF6FF708542E7
:100DD00003DA681E85B200E000E0B3E700BF2046FA
:100DE000ADE70000EF35002070B50446282005F07F
:100DF00053F905F01DF90646054646B100BF05F05A
:100E000017F92070641C701EC0B2061EF7D1284668
:100E100070BD000070B50446452005F03DF9204640
:100E200005F064F900F0A2F80546142D07D113204F
:100E300005F032F9204605F059F902488470284639
:100E400070BD0000E43500207CB506461AA103C938
:100E5000CDE90001492005F01FF9304605F046F9BB
:100E600000F084F80546142D23D1002418E004EB8B
:100E7000840000EBC40112480844407803280DD1D7
:100E800004EB840000EBC4010D48405C8DF80400C5
:100E9000002211466846FFF77FFD0546601CC4B27C
:100EA00007480B38807AA042E1D1022004490B396F
:100EB000087028467CBD0000210A000000000000E8
:100EC000EF35002010B5042005F0E6F8054840781D
:100ED000012803D1022005F009F902E0002005F005
:100EE00005F910BDE435002070B50446152005F065
:100EF000D3F8204605F0FAF8142004F077FA05F04C
:100F000097F80546512D01D1142070BDFA20FCE759
:100F100010B504460B2005F0BFF8252005F0E6F8D3
:100F20001CB9052005F0E2F808E0012C03D1C5202A
:100F300005F0DCF802E0852005F0D8F810BD70B5AA
:100F400004460D4616464E2005F0A6F81DB1C020F9
:100F500005F0CCF802E0002005F0C8F846EA0411DC
:100F6000C8B205F0C3F800F001F870BD10B5002458
:100F700006E001F0FDFE10B1FFF74EFE10BD641C4F
:100F800002488442F5D3FA20F8E70000404B4C00B9
:100F900070B504460D462B2005F07EF8284605F076
:100FA000A5F803E014F8010B05F0A0F8281EA5F140
:100FB0000101CDB2F6D170BD92B004F005FD054639
:100FC000142D07D000BFFBA004F074FFFEA004F0B6
:100FD00071FF00BFFFF794FE4FF4FA726421FB48E3
:100FE00004F0C2FFF94804F0C9FF1FE3FFF786FCD5
:100FF00001287CD100BFF6A004F05CFFF2A004F051
:1010000059FF00BFFFF752FC0546142D07D000BF63
:10101000F3A004F04FFFECA004F04CFF00BF6420ED
:1010200004F0B2F911A9F248FFF7B0FD0546142DFE
:1010300022D100BFEFA004F03DFF00BF002408E074
:1010400000BFEB48015DEEA004F034FF00BF601C60
:10105000C4B2BDF844008442F2DB00BFDAA004F061
:1010600029FFD9A004F026FF00BFBDF84420E049C5
:10107000E54802F091FF08E000BF2946E3A004F034
:1010800019FFD1A004F016FF00BF0220FFF7C2FE37
:101090000546142D08D000BF2946E4A004F00AFF3D
:1010A000C9A004F007FF00BF11A9D148FFF742FD16
:1010B0000546142D1CD100BFE2A004F0FBFE00BFCA
:1010C000002408E000BFCA48015DCDA004F0F2FE94
:1010D00000BF601CC4B2BDF844008442F2DB00BF14
:1010E000D1A004F0E7FEB8A004F0E4FE09E03EE081
:1010F00000BF2946D6A004F0DDFEB3A004F0DAFE5E
:1011000000BF0120FFF7A0FE0546142D07D000BF49
:10111000D6A004F0CFFEACA004F0CCFE00BF00BF10
:10112000D7480178D7A004F0C5FEA7A004F0C2FEFE
:1011300000BF00BFD248817AD9A004F0BBFEA2A0B4
:1011400004F0B8FE00BF00BFCD48C17BDBA004F0B7
:10115000B1FE9DA004F0AEFE00BF00BFC848017FF5
:10116000D6A004F0A7FE98A004F0A4FE00BFC448D7
:10117000007802286BD100245DE000274FE004EBEB
:10118000840000EBC401BE480B300844401D00EB56
:1011900087008078032840D104EB840000EBC40171
:1011A000B7480B300844401D10F8270000F08000BD
:1011B00098B304EB840101EBC402B1490B31114433
:1011C000491D11F8271001F00F000A2311AA8849C0
:1011D000FFF72CFD0546142D1FD1BDF84400E0B1EA
:1011E00044216846FEF7BDFFBDF84400402813DAED
:1011F000BDF84400C0B28DF80000BDF844207C4921
:101200000DF10100FEF794FFBDF84400401CC2B28E
:101210006946B14802F063FD00BF781CC7B204EB19
:10122000840000EBC40196480B3008440079B842B2
:10123000A5D1601CC4B29248807AA0429DD1634877
:101240000FC804F089FE10B1604804F08AFEA3487C
:1012500000680E90A1488088ADF83C009F48C08887
:10126000ADF83E009D480089ADF840000EA807C8C3
:1012700004F096FD38B1994804F036FDC6B2314607
:10128000002003F001F9944800680D90924880888E
:10129000ADF838009048C088ADF83A008E48008913
:1012A000ADF83C008C484089ADF83E008A48808902
:1012B000ADF840000DA80FC802F05DFD002877D002
:1012C000874A4B49844802F0D4FC49480278411CC3
:1012D0008448FEF72DFF46480078814908704FF09A
:1012E0000008434890F839007F490870404890F85A
:1012F0003A0048703E4890F83B0088703C4890F8AF
:101300003C00C87040480089000A08713E48007AD5
:1013100048713D484089000A88713B48807AC8710D
:1013200000260BE0714901EBC6036E4901EBC600D4
:1013300001226D4904F080F8701CC6B2072EF1DB63
:101340002B4890F83900694981F83800284890F80E
:101350003A0081F83900264890F83B0081F83A00BD
:10136000234890F83C0081F83B00214B5A1C38215F
:101370005E4801F0B5F81E480078D0B100BF5CA00F
:1013800004F098FD00BF002409E000BF184A601C6B
:10139000115C1BA004F08EFD00BF601CC4B2144899
:1013A0000078A042F1DC00BF07A004F083FDA3E0B9
:1013B000ACE0A2E0636833373520696E697420655C
:1013C00072726F0A000000000D0A00000C36002047
:1013D00044657669636520436F6E6E6563740A00C9
:1013E000427573205265736574204572726F0A00EE
:1013F0000A370020C9E8B1B8C3E8CAF6B7FB000055
:1014000025303278200000008036002047657420A7
:101410004465766963652044657363722045727222
:101420006F3A3078253032780A0000005365742016
:1014300041646472204572726F3A30782530327898
:101440000A000000C5E4D6C3C3E8CAF6B7FB000033
:1014500047657420436F6E66204465736372204550
:1014600072726F3A3078253032780A0053657420F2
:10147000436F6E666967204572726F0A0000000054
:10148000E4350020555342442E7374617475732003
:101490002020202020202020203D202530325800F0
:1014A000555342442E6974666D6F756E742020200A
:1014B00020202020203D2025303258005553424422
:1014C0002E6974665B695D2E6564706D6F756E74F0
:1014D000203D202530325800DC170020F02000206D
:1014E00012020020C7390020FE01002087390020A9
:1014F000BFD8D6C6B0E5200000BFB8F1000F04D1B8
:101500004B4801784B4801F05BF800BF4A4800683F
:101510000D9049488088ADF838004748C088ADF83C
:101520003A0045480089ADF83C0043484089ADF891
:101530003E0041488089ADF840000DA80FC802F078
:101540001AFC00286AD03A4A3C493B4802F091FB19
:101550003A480278411C3748FEF7EAFD37480078E0
:101560003349087035480178401C01F057F833487A
:1015700090F8390032490870304890F83A004870C5
:101580002E4890F83B0088702C4890F83C00C870BA
:101590002C480089000A08712A48007A48712948B5
:1015A0004089000A88712748807AC87100260EE0B9
:1015B000012101EBC601214A8B18012101EBC60173
:1015C000881801221E4903F037FF701CC6B2072E8F
:1015D000EEDB1A4B5A1C3821104601F0F5F917487A
:1015E0000078D8B100BF18A004F064FC00BF00244C
:1015F0000AE000BF114A601C115CAFF2FC1004F05D
:1016000059FC00BF601CC4B20C480078A042F0DC5A
:1016100000BFAFF24C2004F04DFC00BF0C480FC8D7
:1016200004F09AFC10B10A4804F09BFCDEE40000D0
:1016300012020020C7390020CC1700200A370020F2
:10164000FE01002080360020C9CFCEBBBBFA2000AF
:101650000C36002008B50121502001F0AFFBFF201F
:10166000ADF8000003208DF8020010208DF8030073
:1016700069461C4800F006FE4FF4C060ADF800005B
:1016800003208DF8020010208DF8030069461548EC
:1016900000F0F8FD0120ADF8000003208DF80200F5
:1016A00010208DF8030069460F4800F0EBFD022082
:1016B000ADF8000003208DF8020004208DF803002F
:1016C0006946094800F0DEFD012008490860084924
:1016D000C1F8A4010020074908604FF044300149D7
:1016E000086008BD0018014000080140A80123421D
:1016F000000023428001214208B50020009022E131
:101700009748008800F00F00964908700846007856
:1017100000287CD1944800689449088008460088D5
:1017200000F03000924908809048008800F4405052
:101730008E4908808C4909684BF6BF7201EA0200A5
:1017400080F4005080F0200040F4004141F080011E
:10175000854A11608248008800F0100090BB104656
:10176000006848F60F7108401146086000F0BEFF9F
:101770007D4909684BF6BF7201EA02007B4909887E
:1017800001F4805109B180F480507849098801F44E
:10179000005109B180F400507549098801F0100129
:1017A00009B180F010007249098801F0200109B1E7
:1017B00080F0200081B241F4004141F080016A4A8A
:1017C000116008BDFFE76848006880B20090BDF86E
:1017D000000000F40060B0B363480068C0F30E007E
:1017E00048F68F7108406049086001F085FD5E4948
:1017F00009684BF6BF7201EA02005C49098801F4EE
:10180000805109B180F480505849098800E056E0C1
:1018100001F4005109B180F400505549098801F0E4
:10182000100109B180F010005149098801F0200130
:1018300009B180F0200081B241F4004141F0800103
:10184000494A1160BDE7FFE7BDF8000000F4004021
:10185000002878D044480068C0F30E0048F68F7125
:1018600008404149086001F001FA3F4909684BF618
:10187000BF7201EA02003D49098801F4805109B1B3
:1018800080F480503949098801F4005109B180F48D
:1018900000503749098801F0100109B180F01000AB
:1018A0003349098801F0200109B180F0200081B29C
:1018B00041F4004141F080012B4A116081E7294841
:1018C00000782C4901EB8000D0F8000C80B2009029
:1018D000BDF8000000F40040C0B12248007801EBE0
:1018E0008000D0F8000CC0F30E0048F68F7108405D
:1018F0001C4909781F4A02EB8101C1F8000C194903
:101900000978491E1C4A52F821008047BDF80000A2
:1019100000F08000B8B113480078164901EB800050
:10192000D0F8000C48F60F7108400E490978114AAA
:1019300002EB8101C1F8000C0A490978491E0F4ADF
:1019400052F82100804708484430006880B20449BA
:10195000088000F4004000287FF4D2AE00BF30E7DA
:1019600010010020DC000020005C0040F00000209E
:10197000F200002000500040380100201C0100202F
:101980000146C8888A88904201D001207047002013
:10199000FCE700000B4A02EB8001D1F8001C01F4C7
:1019A000804171B102EB8001D1F8001C48F68F72C2
:1019B00011404CF280021143024B03EB8002C2F84B
:1019C000001C7047005000400B4A02EB8001D1F828
:1019D000001C01F0400171B102EB8001D1F8001C44
:1019E00048F68F72114048F2C0021143024B03EBDC
:1019F0008002C2F8001C704700500040084A02EB09
:101A00008001D1F8001C48F68F62114048F2800234
:101A10001143034B03EB8002C2F8001C7047000027
:101A20000050004070B5054620480068808808B125
:101A3000022070BD0024062D14D11C4800680078D7
:101A400000F07F0001280DD1184800688078222816
:101A500001D1174C1BE0154800688078212816D169
:101A6000144C14E011480068007800F07F00212831
:101A70000DD1032D02D0092D07D101E00E4C05E058
:101A80000E4C09200E49087000E000BF00BF0CB9E1
:101A90000220CEE705480068846100210348006801
:101AA00041820020A0470020C3E70000E0000020A2
:101AB0001D1B0008ED1A0008011B0008951C0008FA
:101AC0005901002010B504460249204601F03CFDB2
:101AD00010BD0000B801002010B5044602492046A0
:101AE00001F032FD10BD0000B001002010B5044629
:101AF0000249204601F028FD10BD0000C801002069
:101B0000014629B90120034A12681082002070475B
:101B10000148FCE7E00000205401002010B5044615
:101B20000249204601F010FD10BD0000C001002058
:101B300070B5054606480068C478042C01DD002015
:101B400070BD044800EBC401284601F0FDFCF7E736
:101B5000E0000020D00100200246002901DD022023
:101B60007047002A01DD0220FAE70020F8E70000B4
:101B700000B5024606480068007800F07F00212882
:101B800004D10B2A02D100F079F800BD0220FCE755
:101B9000E000002010B50020284909688872274914
:101BA0000968C8722648C07924490968487200202B
:101BB00001F010FA4FF40071002001F005FB102134
:101BC000002001F0C7FA4021002001F033FA802103
:101BD000002001F0A1FA0020FFF710FF194890F84B
:101BE0002C10002001F038FA002001F07BFA4FF4AD
:101BF000C061012001F0E8FA4FF48071012001F08A
:101C00008BFA4FF4A071012001F014FA4021012059
:101C100001F092FA4021012001F01EFA4FF44051E8
:101C2000012001F03FFA2021012001F093FA002069
:101C300001F0D8F901200449086010BDE00000203F
:101C4000286600085C010020F001002005480068BB
:101C5000807A30B105200449086042F210700349CF
:101C600008807047E0000020F001002042000020C2
:101C70000420014908607047F00100200348006813
:101C8000C17803480160002070470000E000002098
:101C900054010020014629B94020034A12681082ED
:101CA000002070470148FCE7E00000208435002058
:101CB0007047704710B500F0F9FB0020054909682E
:101CC000887201F035F802F033FB02200249086007
:101CD00010BD0000E0000020F0010020704700006F
:101CE00010B5202000F05CF8012806D1002103483F
:101CF00000F04AF8202000F039F810BD1C00024026
:101D000010B54FF4007000F04BF8012807D1002106
:101D1000034800F039F84FF4007000F027F810BDC8
:101D20003000024010B54FF4005000F039F801289F
:101D300007D10021034800F027F84FF4005000F0CD
:101D400015F810BD4400024010B54FF4003000F00B
:101D500027F8012807D10021034800F015F84FF4B7
:101D6000003000F003F810BD5800024000F0805130
:101D700011B10349086001E0024948607047000062
:101D8000040402400000024021B1026842F0010256
:101D9000026004E002684FF6FE731A40026070476A
:101DA00001460020002201F0805313B1054B1A6850
:101DB00001E0054B1A6802EA01030BB1012000E0C3
:101DC0000020704700040240000002402DE9F04767
:101DD0002848006800F110052E8826480068077A18
:101DE000D6B9042F18D12448007801280FD100213A
:101DF0002248006880B2801C214A42F8101030202E
:101E00002049088000BF00201B49087003E0072715
:101E100010201C49088027E0AC88A64201D8042085
:101E200000E002200746B44200D93446A0B2A968B7
:101E300088478046002000F01DFB8146A2B249463B
:101E4000404602F055FBA1B2002001F075F9288848
:101E5000001B288068882044688030200949088059
:101E600000020949088000BF024909680F72BDE8F5
:101E7000F0870000E0000020DA000020505C004005
:101E800000600040F2000020F00000202DE9F04149
:101E90002848006800F110042688A068C0B1BEB1CF
:101EA000A588B54200D93546A8B2A168884707463B
:101EB0002088401B2080608828446080002000F03B
:101EC000B7FA8046AAB24146384600F0F7FE00BF96
:101ED000208850B14FF4405017490880002108462F
:101EE00001F02AF93020154908802088A18888420D
:101EF00004DB03200F490968087218E020880028D5
:101F000004DD05200B490968087210E0208870B9CB
:101F1000062008490968087200210948006880B253
:101F2000801C084A42F81010302004490880BDE89F
:101F3000F0810000E0000020F0000020F20000200E
:101F4000505C0040006000402DE9F84F9B4800685D
:101F500045780027BA46062D1BD1984800680078BE
:101F600000F07F00002813D194490968887801287F
:101F700003D193490968CF690AE0022803D1904947
:101F800009680F6A04E0032802D18D4909684F6A85
:101F900094E0002D64D189480068408800285FD112
:101FA00086480068C08802285AD1844800680079B1
:101FB000002855D181480068007800F07F0028B9DA
:101FC0007E480068808808B97E4F77E07B480068CB
:101FD000007800F07F00012810D17849096848791D
:101FE000774909688A6900219047002866D17348BB
:101FF0000068807A002861D0724F5FE06F48006807
:10200000007800F07F00022858D16C4800684079C1
:1020100000F00F0669480068407900F070096748D1
:102020000068407900F0800038B1674901EB860014
:10203000D0F8000C00F0300806E0634901EB8600A0
:10204000D0F8000C00F4405860480078B04235D910
:10205000B9F1000F32D1B8F1000F2FD0594F2DE058
:10206000082D07D155480068007800F07F0028BB94
:10207000574F23E00A2D21D150480068007800F026
:102080007F0001281AD14D480068807AB0B14B48D2
:102090000068408890B949480068007970B947489D
:1020A0000068C088012809D1444909684879444931
:1020B00009688A690021904700B9464F57B13F48E7
:1020C0000068A0F812A03D48006887610020B8476A
:1020D00000240FE0394A12685078394A12681169B1
:1020E00088470446032C05D1092034490968087241
:1020F000BDE8F88F31480068008A4FF6FF718842CA
:1021000004D109202D4909680872F1E7022C03D097
:102110002A480068008A20B90820284909680872FE
:10212000E6E726480068007800F08000E0B3234826
:102130000068C088009021480068008A00998842A1
:1021400004D91E4900980968088223E01B480068EA
:10215000008A1A490968C98888421BDA174800684A
:10216000008A1749096891F82C10884203DA002088
:10217000194908700EE011480068008A1049096882
:1021800091F82C1090FBF1F201FB120010B9012024
:10219000114908700A48006890F82C100748006838
:1021A0008182FFF713FE07E0FFE703200349096878
:1021B000087200030949088000BF99E7E000002089
:1021C000E400002099350008005000405A0100202A
:1021D0001D3500086D350008DA000020F0000020F1
:1021E000704700000120014908707047040000207A
:1021F00010B592B00024012000F02AF9C4B22246A2
:102200004FF4A0710E4800F059FD012000F06AFF64
:10221000402C12DA48216846FDF7A3FF8DF80040F4
:10222000224607490DF10100FDF782FF601CC2B292
:102230006946044801F053FD00BF12B010BD000014
:1022400044350020CC170020704700000149086089
:10225000704700001404014008B50121102000F06F
:10226000ADFD4FF40070ADF8000003208DF80200C2
:1022700010208DF803006946014800F003F808BDFE
:10228000001001402DE9F041024600250026002003
:1022900000230024002791F803C00CF00F0591F8EB
:1022A00003C00CF0100CBCF1000F03D091F802C079
:1022B0004CEA050591F800C0BCF1000F31D014685C
:1022C00000202BE04FF0010C0CFA00F3B1F800C035
:1022D0000CEA03069E4220D183004FF00F0C0CFA4B
:1022E00003F7BC4305FA03FC4CEA040491F803C06D
:1022F000BCF1280F06D14FF0010C0CFA00FCC2F81B
:1023000014C00AE091F803C0BCF1480F05D14FF0AA
:10231000010C0CFA00FCC2F810C0401C0828D1D3F4
:102320001460B1F800C0BCF1FF0F34DD5468002028
:102330002EE000F1080C4FF0010808FA0CF3B1F898
:1023400000C00CEA03069E4221D183004FF00F0C1F
:102350000CFA03F7BC4305FA03FC4CEA040491F8B9
:1023600003C0BCF1280F05D100F1080C08FA0CF8E5
:10237000C2F8148091F803C0BCF1480F07D100F1F6
:10238000080C4FF0010808FA0CF8C2F81080401C45
:102390000828CED35460BDE8F0810000F0B50A46AD
:1023A000002300240021002500F00046B6F1004F74
:1023B00002D11D4EF16901E01B4E7168C0F3034567
:1023C00083B200F44016B6F5401F08D121F07061C9
:1023D000154E766826F07066134F7E6012E000F4AA
:1023E0008016B6F5801F06D1032606FA05F4A14330
:1023F00041F0706106E0460D360103FA06F6B1437E
:1024000041F0706122B1460D360103FA06F6314300
:1024100000F00046B6F1004F02D1034EF16101E039
:10242000014E7160F0BD0000000001400161704785
:1024300001460548006880B200EBC100001D034A58
:1024400032F8100080B27047505C004000600040DD
:1024500001460648006880B200EBC100801D044AB6
:1024600032F81000C0F3090070470000505C0040D3
:102470000060004001460548006880B200EBC100E2
:10248000034A32F8100080B270470000505C0040F0
:10249000006000400146044A02EB8100D0F8000CC5
:1024A00000F03000704700000050004070B50A484E
:1024B0000468001D0568001D0668344454B10822F4
:1024C0000649204600F04AF9042204491031284602
:1024D00000F044F970BD0000E8F7FF1FF60000208F
:1024E0002DE9F04190B004460E461746984640212B
:1024F0006846FDF736FE0025012050E02E49097898
:1025000031B101290BD0022923D0032944D12EE077
:10251000215C492902D10121274A11703CE0215C4C
:10252000432912D1492329466A1CD5B20DF801303E
:10253000432329466A1CD5B20DF8013002211E4AF8
:10254000117000211D4A117002E000211A4A117019
:1025500022E0215C491C194A1170235C29466A1C3F
:10256000D5B20DF801300321134A117014E013495C
:10257000097821B111490978491E104A1170235C6C
:1025800029466A1CD5B20DF801300C49097811B9F9
:102590000021094A117000BF00BF411CC8B2B042FF
:1025A000ACDB2A4669463846FDF7C2FD88F8005084
:1025B00010B0BDE8F0810000CB000020CC0000206E
:1025C00070B590B004460D4640216846FDF7C9FD40
:1025D00011480068052801D010B070BD4120B5FB3E
:1025E000F0F100FB1156324621466846FDF7A0FD8A
:1025F00000BF0120FFF74EFF3028FAD040229100A3
:10260000684601F075FF3C21012000F095FD012096
:1026100000F0C0FD00BFDFE7F00100202DE9F04130
:1026200006460F460025002426480078022846D199
:1026300000BF2448007C01281DD12249097C01F0FB
:102640000F0000233C223146FEF766FB0546142DA1
:1026500035D0601CC4B2032C00DAEAE700BF29467B
:1026600019A003F027FC1CA003F024FC00BF0020ED
:102670001449087023E01348007D01281FD1114937
:10268000097D01F00F0000233C223146FEF744FB98
:102690000546142D13D0601CC4B20A2C03DA642042
:1026A00002F0A4FEC5E700BF29460CA003F002FC1F
:1026B00009A003F0FFFB00BF002002490870BDE83D
:1026C000F0810000E43500207472616E7320457261
:1026D00072312025303258000D0A00007472616E8C
:1026E00073204572723220253032580010B51848D8
:1026F0000068047A022C01D0042C05D1FFF766FB98
:1027000013480068047A1CE0062C19D110480068B0
:10271000407805280ED10E480068007800F07F0050
:1027200040B90B490968C87800F05CFC09490968A0
:10273000086A80470849096888688047082400E0DB
:102740000824034909680C7200F0CEFA10BD00009D
:10275000E0000020EC000020E400002030B50B4633
:10276000002100BF16E00A24B4EB107F05D9302405
:1027700004EB107403F8114005E0412404EB1074DD
:102780000A3C03F81140000100254C00641C1D5553
:102790004C1CE1B29142E6DB30BD000070B5002474
:1027A0005A4800685A49097860F341015848017055
:1027B0005648183800685649497860F34101544832
:1027C0004170544800685249897860F3410150488B
:1027D00081705048001F00684D49C97860F341017D
:1027E0004B48C17000250EE04949481903F0EAF949
:1027F0004748405DC0F3C00018B10120A840204305
:10280000C4B2681CC5B2042DEEDB4348007820B189
:1028100041480078401E40490870032C14D105201F
:102820003E4908703E48007850B900BF3DA003F013
:1028300041FB40A003F03EFB00BF01203849087077
:102840000A203549087060E0012C15D13248007823
:1028500090B901203149087031480078002854D1DE
:1028600000BF35A003F026FB32A003F023FB00BF1E
:1028700001202B49087048E0022C15D12648007829
:1028800090B90220254908702548007800283CD1DD
:1028900000BF2DA003F00EFB26A003F00BFB00BF32
:1028A00001201F49087030E0042C14D11A48007828
:1028B00088B90320194908701948007808BB00BF7F
:1028C00025A003F0F7FA1BA003F0F4FA00BF0120E3
:1028D0001349087019E0082C14D10F48007888B902
:1028E00004200E4908700E48007850B900BF1EA0A1
:1028F00003F0E0FA0FA003F0DDFA00BF0120084961
:10290000087002E000200649087070BD2481214251
:10291000D200002030012242D6000020D100002049
:10292000D70000203EB1BEBED6B3F620CDF520358F
:10293000000000000D0A00003EB1BEBED6B3F62076
:10294000BADACCD2203100003EB1BEBED6B3F620FA
:10295000BAECCCD2203200003EB1BEBED6B3F620D7
:10296000C3B7BBA8203300003EB1BEBED6B3F6202D
:10297000B7BDBFE920340000002008E00549095C2C
:1029800021F00101491C034A1154411CC8B204281A
:10299000F4DB7047D200002010B5084CA07A38B1A3
:1029A00005200749086042F210700649088002E0DD
:1029B00001200349086000F0D7FF10BD2835002032
:1029C000F0010020420000202DE9F04190B00446C3
:1029D0000E461746984640216846FDF7C2FB002583
:1029E000012050E02E49097831B101290BD002298C
:1029F00023D0032944D12EE0215C502902D10121AA
:102A0000274A11703CE0215C432912D1502329460A
:102A10006A1CD5B20DF80130432329466A1CD5B291
:102A20000DF8013002211E4A117000211D4A11705B
:102A300002E000211A4A117022E0215C491C194A67
:102A40001170235C29466A1CD5B20DF801300321B0
:102A5000134A117014E01349097821B1114909781A
:102A6000491E104A1170235C29466A1CD5B20DF824
:102A700001300C49097811B90021094A117000BFD1
:102A800000BF411CC8B2B042ACDB2A46694638469A
:102A9000FDF74EFB88F8005010B0BDE8F081000053
:102AA000CF000020D000002000BFFEE77047704735
:102AB00070B5002100230F22C47804B3154C24689C
:102AC00004F4E064C4F5E064210AC1F10403CA40DF
:102AD000447804FA03F184781440214309010E4C30
:102AE0000678A155047804F01F050124AC40057850
:102AF0006D11AD0005F1E025C5F8004109E004784D
:102B000004F01F050124AC40044D0678761145F809
:102B1000264070BD0CED00E000E400E080E100E044
:102B200002490143024A1160704700000000FA05A3
:102B30000CED00E070B5022647480068447846482E
:102B40000068007800F07F00002844D1092C03D1F0
:102B500000F0A2FD06465FE0052C14D13E48006857
:102B6000C0787F280BDC3C480068807838B93A4848
:102B70000068808818B938480068807A08B108254C
:102B800065E0002648E0032C0ED133480068C07889
:102B9000012807D130480068808818B900F0A0FDEE
:102BA000064639E0022637E0012C35D12A48006874
:102BB000C07801280DD128480068808848B9264887
:102BC0000068407A00F0200018B100F0F1FB0646E2
:102BD00022E0022620E020480068007800F07F0014
:102BE000012805D10B2C17D100F0F6FD064613E0A5
:102BF00019480068007800F07F0002280BD1012CF2
:102C000003D100F0D5FB064606E0032C04D100F00A
:102C10007BFD064600E002264EB1E0B20F4A126884
:102C2000516988470646032E01D109250FE00EB1F0
:102C300008250CE0062500210948006880B2801CA8
:102C4000084A42F8101030200749088000BF0249A6
:102C500009680D7270BD0000E0000020E400002053
:102C6000505C004000600040F200002010B51148A8
:102C70000068047A022C01D0042C01D1082412E04F
:102C8000032C01D0052C05D1FFF700F90948006895
:102C9000047A08E0072C05D107490968C86880470D
:102CA000082400E00824034909680C7200F01CF8AD
:102CB00010BD0000E0000020E4000020F0B5561C2C
:102CC0007510074E06EB41042B4605E034F8047BF3
:102CD00020F8017B401C5B1E002BF7D1F0BD0000EB
:102CE000006000407047000010B50D4890F82C10AF
:102CF000002000F0B1F90B480068007A082805D1DF
:102D000040020949088010200849088005480068E9
:102D1000007A092801D1012010BD0020FCE7000045
:102D20005C010020E0000020F0000020F200002004
:102D300010B5012001F0BEF901240B480460002009
:102D40000A49088008460088074908600020091DD4
:102D500008604FF4E05005490880084600880249A1
:102D60000860002010BD0000405C0040EA00002028
:102D70000348006808B9012070470020FCE7000004
:102D80000401214201460020034A506820F44040DB
:102D900008435060704700000010024029B1064A05
:102DA000D2690243044BDA6104E0034AD2698243E8
:102DB000014BDA61704700000010024029B1064A59
:102DC00092690243044B9A6104E0034A9269824388
:102DD000014B9A61704700000010024030B500219D
:102DE0000022002400232D4D6D6805F00C0121B157
:102DF000042905D0082923D105E0294D056022E0EA
:102E0000274D05601FE0254D6D6805F47012234DB8
:102E10006D6805F48034022505EB92421CB9214D02
:102E2000554305600BE01D4D6D6805F400351DB17F
:102E30001C4D5543056002E0194D5543056002E005
:102E4000174D056000BF00BF144D6D6805F0F0011F
:102E50000909154D6B5C0568DD4045600F4D6D68D7
:102E600005F4E061090A104D6B5C4568DD40856042
:102E70000A4D6D6805F46051C90A0B4D6B5C4568DD
:102E8000DD40C560054D6D6805F44041890B074D77
:102E90006B5CC568B5FBF3F5056130BD0010024001
:102EA00000127A0000093D00580000206800002050
:102EB0000149086070470000D800424270B50546DD
:102EC000072D01D034480570334800783349087025
:102ED000334800780978884203D030480078304978
:102EE00008702D48007808284ED2DFE800F0041161
:102EF0001A202B384E4F2B48006828B900F056F89E
:102F000006202549087002E005202349087041E0A9
:102F100000F04CF804202049087001202149086085
:102F200038E002201C4948700320087032E01A483B
:102F30004078401E184948700846407808B9042077
:102F4000087027E01848006884B244F0100416485E
:102F500004600520104908700A2048701AE00E48E5
:102F60004078401E0C4948700846407858B90E48D1
:102F7000006884B224F010040B4804600620087036
:102F800000200849086005E000BF00BF0620024994
:102F9000087000BF00BF70BDF5010020FC010020DB
:102FA000FD010020F8010020405C004010B50748FA
:102FB000006884B224F0040404480460FFF7ECFCC9
:102FC0004FF43F400149086010BD0000405C0040E4
:102FD000704700004FF6F8710140014A11607047D8
:102FE000505C004030B501460F4B1A78002014E0C9
:102FF00003060E4C04EB9353D3F8003C48F68F7451
:10300000234048F280042343C4B223430406074DFF
:1030100005EB9454C4F8003C401C9042E8D341F0C6
:103020008003034C236030BD5A0100200050004053
:103030004C5C004010B54A105300054A126892B229
:1030400002EBC002121D034C44F8123010BD000008
:10305000505C00400060004010B502460F48006818
:1030600080B200EBC200801D0D4C04EB40033E29F2
:103070000BDD481101F01F040CB9441EA0B24FF43F
:10308000004444EA80241C6007E0481001F0010479
:103090000CB1441CA0B284021C6010BD505C004006
:1030A0000060004030B50E4C04EB8003D3F8003CC8
:1030B0004BF68F7403EA040201F480530BB182F4DF
:1030C000805201F400530BB182F4005242F40043E9
:1030D00043F08003024D05EB8004C4F8003C30BD92
:1030E0000050004010B50B4B03EB8002D2F8002CCF
:1030F0004BF68F7302EA030181F4805181F4005191
:1031000041F4004242F08002024C04EB8003C3F819
:10311000002C10BD0050004010B54A105200044B66
:103120001B689BB203EBC003024C44F8132010BD94
:10313000505C004000600040044A126892B202EB0A
:10314000C002921C024B43F812107047505C0040C2
:103150000060004030B50E4C04EB8003D3F8003C17
:1031600048F6BF7403EA040201F010030BB182F0C9
:10317000100201F020030BB182F0200242F4004360
:1031800043F08003024D05EB8004C4F8003C30BDE1
:103190000050004010B50B4B03EB8002D2F8002C1E
:1031A00048F6BF7302EA030181F0100181F02001AB
:1031B00041F4004242F08002024C04EB8003C3F869
:1031C000002C10BD0050004010B5074B03EB8002EF
:1031D000D2F8002C48F68F131A400A43024C04EB35
:1031E0008003C3F8002C10BD0050004010B500F063
:1031F00001F810BD0CB50020019000903348006824
:1032000040F480303149086000BF3048006800F465
:10321000003000900198401C0190009818B9019866
:10322000B0F5A06FF1D12948006800F4003010B16A
:103230000120009001E0002000900098012843D177
:103240002348006840F010002149086008460068E3
:1032500020F0030008600846006840F002000860A3
:103260001A4840681949486008464068486008465E
:10327000406840F4806048600846406820F47C1054
:1032800048600846406840F4E81048600846006816
:1032900040F08070086000BF0C48006800F00070CB
:1032A0000028F9D00948406820F003000749486029
:1032B0000846406840F00200486000BF034840688C
:1032C00000F00C000828F9D10CBD000000100240ED
:1032D0000020024010B54FF44040FFF753FDFEF7C9
:1032E000BBFF10BD10B50020FFF7E2FD0121C805AE
:1032F000FFF754FD10BD000038B5012429480068CF
:1033000080B2001D284931F8100080B201EB400066
:10331000009026480068007A092832D0009800788A
:103320002249096808700098401C009000980078B5
:103330001E49096848700098401C0090009800EBF6
:1033400044000090009931F8020B0091FDF7F3F969
:10335000164909684880009800EB440000900099E5
:1033600031F8020B0091FDF7E6F9104909688880F1
:10337000009800EB44000090009800880B49096811
:10338000C880012009490968087208480068C08897
:1033900010B9FFF7CFFB01E0FEF7D6FDFFF7A4FC65
:1033A00038BD0000505C004000600040E00000209C
:1033B0002DE9F04754480068007800F07F08B8F124
:1033C000000F0AD150480068407A00F0DF004E49F3
:1033D000096848720020BDE8F087B8F1020F7CD17F
:1033E00049480068408818B947480068007908B122
:1033F0000220F0E7DFF8149143480068477927F08E
:1034000080052C4640480068407900F0800038B1C3
:103410003F4901EB8400D0F8000C00F0300606E0D4
:103420003B4901EB8400D0F8000C00F4405699F8B9
:103430000000A84204D91EB133480068807A08B958
:103440000220C8E707F0800080B1314901EB840019
:10345000D0F8000C00F0300010284BD1E0B2FEF79D
:10346000B3FAE0B23021FFF775FE43E0284901EBE3
:103470008400D0F8000C00F44050B0F5805F39D1E2
:10348000E4B9244A92F82C10E0B2FFF7E5FD204A97
:1034900002EB8401D1F8001C4BF68F7201EA0200A6
:1034A00080F4805080F4005040F4004141F08001ED
:1034B000174B03EB8402C2F8001C1BE0E0B2FEF7DE
:1034C00069FA134A02EB8401D1F8001C4BF68F72A3
:1034D00001EA020080F4805000E011E080F4005026
:1034E00040F4004141F08001094B03EB8402C2F833
:1034F000001C00BF084909684869804700206AE746
:1035000000BF022067E70000E00000205A01002011
:10351000005000405C010020EC00002010B5044683
:103520002CB90120064909680882002010BD054910
:10353000096808688047024800680A30F6E700001A
:10354000E0000020EC00002010B5024606480068AC
:10355000438A32B98888C01A034C2468208200202C
:1035600010BD08681844FBE7E000002010B50446D1
:103570002CB90120064909680882002010BD0549C0
:10358000096888688047024800680C30F6E7000048
:10359000E0000020EC00002010B504462CB9022009
:1035A000394909680882002010BD00203749088089
:1035B00035480068007800F07F0018BB3249096880
:1035C000487A00F0200131B13049097841F0020118
:1035D0002E4A117005E02D49097801F0FD012B4AB2
:1035E000117000F0400131B12849097841F0010122
:1035F000264A117005E02549097801F0FE01234AA9
:1036000011703AE020480068007800F07F0001283F
:1036100001D11E48C8E71C480068007800F07F0010
:10362000022828D1184A1268517901F00F0001F0E0
:1036300080027AB1164B03EB8002D2F8002C02F024
:103640003002102A16D1114A127842F001020F4BB3
:103650001A700FE00E4B03EB8002D2F8002C02F43C
:103660004052B2F5805F05D1084A127842F001025B
:10367000064B1A7001E0002096E7064909680869C0
:103680008047024890E70000E0000020D8000020BA
:1036900000500040EC00002010B50E480068C078D3
:1036A0000D494978884213DC0A480068807878B967
:1036B00008480068808858B906480068C0780549FD
:1036C000096888720549096848688047002010BD6C
:1036D0000220FCE7E00000205A010020EC0000205E
:1036E00010B507480068407A40F020000449096896
:1036F000487204490968C8698047002010BD00006D
:10370000E0000020EC0000202DE9F0412E48006888
:10371000467926F080073C462B480068407900F047
:10372000800038B1294901EB8400D0F8000C00F08A
:10373000300506E0254901EB8400D0F8000C00F4C8
:10374000405523480078A04208D91F4800684088A7
:1037500020B91DB11C480068807A10B90220BDE86C
:10376000F08106F08000A0B1184A02EB8401D1F884
:10377000001C48F6BF7201EA020080F0100040F41D
:10378000004141F08001114B03EB8402C2F8001CA0
:1037900014E00E4A02EB8401D1F8001C4BF68F7244
:1037A00001EA020080F4805040F4004141F08001C1
:1037B000064B03EB8402C2F8001C00BF05490968F0
:1037C000886980470020CAE7E000002000500040E0
:1037D0005A010020EC00002010B5174B1B68D97867
:1037E000154B1B685879154B1B689A69904704461E
:1037F00011480068807AE8B13CB90F480068007948
:1038000018B90D480068807808B1022010BD8CB945
:103810000B490968C868804707480068407906492D
:103820000968C87204480068C078034909680873C9
:103830000020EBE70220E9E7E0000020E4000020A0
:10384000EC00002038B50021002200230093364B05
:103850001B6898B200BF09E0344C04EB8103D3F835
:10386000003C9BB2324C44F82130491C0829F3D368
:1038700040F480602C4B186040F00100186020F08C
:103880000100186000BF284B1B1D1B6803F48063F8
:10389000002BF8D04FF6FF33234C241D236000216A
:1038A00009E0234B53F821309BB2204D05EB8104F6
:1038B000C4F8003C491C0829F3D340F008001A4B17
:1038C00018601B6898B240F00400174B1860194B41
:1038D0001B680093174B1A6822F0030242F00102A2
:1038E0001A60154B1B6843F00403134C23600E4B06
:1038F0001B1D1B6803F48053A3B14EF6FF730A4CE3
:10390000241D2360231F1B6898B220F00800231F8A
:103910001860084C009B2360074B1B6823F00403CE
:10392000054C236038BD0000405C00400050004062
:10393000C43500200070004010ED00E0042808D1DC
:103940004FF0E021096941F004014FF0E0221161DC
:1039500007E04FF0E021096921F004014FF0E02277
:10396000116170477047000010B51348006840F0BF
:1039700001001149086008464068104908400E4996
:103980004860084600680E4908400B490860084630
:10399000006820F4802008600846406820F4FE009B
:1039A00048604FF41F008860FFF720FC4FF0006074
:1039B0000449086010BD0000001002400000FFF83C
:1039C000FFFFF6FE08ED00E010B50121880700F0CA
:1039D00060F8002832D00121880700F04BF8184821
:1039E0000088401C164908801648008850B94FF4DA
:1039F000FA70144908801448006880F480701249F5
:103A0000086004E00F480088401E0E49088001202D
:103A10000E49087002F09AFA0D48008820B10C484F
:103A20000088401E0A4908800A48008820B10948D9
:103A30000088401E07490880FEF7B0FE10BD000058
:103A40008C0000208E0000200C0801404000002067
:103A5000C20000204200002010B50121044800F0FF
:103A600018F818B10121024800F004F810BD000058
:103A700000040040CA430282704721B1028842F02C
:103A80000102028004E002884FF6FE731A400280B1
:103A9000704730B50246002000230024158A05EA4D
:103AA0000103958905EA010413B10CB1012000E07E
:103AB000002030BD1AB183890B43838102E08389E2
:103AC0008B43838170470000002202881D4B98427F
:103AD0000ED01D4B98420BD0B0F1804F08D01B4B3D
:103AE000984205D01A4B984202D01A4B984204D102
:103AF0004FF68F731A404B881A43174B984207D0E2
:103B0000164B984204D04FF6FF431A40CB881A4315
:103B100002808B8883850B8803850A4B98420BD0E3
:103B2000094B984208D00E4B984205D00D4B984255
:103B300002D00D4B984201D10B7A03860123838278
:103B400070470000002C0140003401400004004098
:103B500000080040000C004000100040001400402D
:103B600000400140004401400048014001464FF43C
:103B70008430081AC0F38F207047000000B5024659
:103B80001046FFF7F3FF012101FA00F002498969AD
:103B900008430149886100BD001002402DE9F84347
:103BA00081460D4616461F464846FFF7DFFF00F0E8
:103BB000FF08002418E00120A040284090B10C48E4
:103BC00030F818000121A1400843094921F81800E4
:103BD000ADF800508DF803608DF8027069464846D4
:103BE000FEF750FB601CC4B2102CE4DBBDE8F88388
:103BF000600300202DE9F04105460C4616461F469D
:103C00000CB9BDE8F0812846FFF7B8FF3B463246C5
:103C100021462846FFF7C2FF00BFF2E700B5412367
:103C200040F214520849094800F04EF8412340F68A
:103C30003C720749074800F047F83C23B422064984
:103C4000064800F041F800BD7C030020CC1700209E
:103C500090080020DC170020EC170020A01800209E
:103C60000146C8888A88904201D001207047002010
:103C7000FCE72DE9F04104460D461746E0886189CE
:103C8000484386B2206810B90020BDE8F081204684
:103C9000FFF7E6FFB0B1002005E032182168895C2B
:103CA0002954411C88B261898142F6DCE088401CBD
:103CB000E080E088A18990FBF1F201FB1200E08036
:103CC0000120E2E70020E0E710B5016002814381B6
:103CD0000024C480848092FBF3F4848110BDFFB57E
:103CE00004460D461646A0886189484387B220687D
:103CF00000B9FFBD20680090A088ADF80400E088FE
:103D0000ADF806002089ADF808006089ADF80A001A
:103D1000A089ADF80C009DE80F0000F02CF8A189F7
:103D2000491E884209D1E088401CE080E088A189D2
:103D300090FBF1F201FB1200E08000200CE0B042A9
:103D400004DA295C3B182268D15403E000213B18B7
:103D50002268D154411C88B261898142EFDCA0887D
:103D6000401CA080A088A18990FBF1F201FB120009
:103D7000A08000BFBDE70FB5BDF80400BDF8061078
:103D8000884205DBBDF80400BDF80610401A07E0C4
:103D9000BDF80400BDF80C100844BDF80610401A28
:103DA00080B204B000BD7FB505460C46012108462F
:103DB000FEF7F4FFADF80850ADF804400020ADF870
:103DC0000A00ADF8060001A94FF08040FFF77CFE25
:103DD000012211469007FFF76DFE1C208DF80000B0
:103DE00003208DF801008DF8020001208DF80300FA
:103DF0006846FEF75DFE01218807FFF73EFE7FBDA6
:103E000010B50748008800F0200040B10448001DAC
:103E10000088C4B22146034801F090FF00BF10BDE6
:103E2000003801401419002001F40072B2F5007F3F
:103E300000D100BFCA430280704721B1828942F499
:103E40000052828104E082894DF6FF731A4082811C
:103E5000704702460020B1F5007F00D100BF1388F3
:103E60000B400BB1012000E000207047F0B5034685
:103E7000002400260025002040F66A17B94200D130
:103E800000BF1846C1F3421401F01F06012707FACC
:103E900006F5012C01D10C3004E0022C01D11030C8
:103EA00000E014301AB107682F43076002E007688A
:103EB000AF430760F0BD00002DE9F04786B005462E
:103EC0000E460024A24600BFA1460027B08900B1DB
:103ED00000BF2F462C8A4CF6FF700440F088044344
:103EE0002C82AC894EF6F3100440B0883189084327
:103EF000718908430443AC81AC8A4FF6FF4004400B
:103F0000B0890443AC8201A8FEF768FF1F488742CE
:103F100002D1DDF810A001E0DDF80CA0A88900F4C2
:103F2000004040B10AEBCA0000EB0A1031684900BA
:103F3000B0FBF1F807E00AEBCA0000EB0A103168A9
:103F40008900B0FBF1F86420B8FBF0F0040120090F
:103F5000642101FB1089A88900F4004040B132209F
:103F600000EBC900B0FBF1F000F00700044308E0EB
:103F7000322000EB09106421B0FBF1F000F00F00DB
:103F800004432C8106B0BDE8F087000000380140F2
:103F9000C1F30802828070477FB504460D4616467D
:103FA0002878207068786070A978E87801EB0020A4
:103FB00060802879207168796071A879A071E879AA
:103FC000E07100BFE079A17962792379CDE900320F
:103FD000CDE902106388627821781AA001F06AFFA7
:103FE00024A001F067FF00BF082E29DD297A687A36
:103FF00001EB00202081A97AE87A01EB00206081A2
:10400000297B687B01EB0020A081A87BA073E87B63
:10401000E073287C2074687C607400BF627C207C24
:10402000E17BA37BCDE90031CDE90202A38962895E
:10403000218911A001F03EFF0EA001F03BFF00BF5F
:104040007FBD00003E446576446573635F31202583
:104050003032582025303258202530345820253031
:104060003258202530325820253032582025303221
:10407000580000000D0A00003E44657644657363F5
:104080005F322025303458202530345820253034F4
:1040900058202530325820253032582025303258CB
:1040A000202530325800000010B54FF48020FEF774
:1040B000CDF810BD10B5044624B94FF40071024884
:1040C000FEF7B4F910BD00000010014010B5FFF775
:1040D00001F900F025F8FFF705F900F003F8FEF705
:1040E00065FF10BD10B5084808490860022009683E
:1040F00008720748074908600748084908600549E9
:1041000009680868804710BD28350020E0000020BD
:104110005C010020E40000208C010020EC00002065
:1041200008B514208DF8000001208DF80100002052
:104130008DF8020001208DF803006846FEF7B8FCF8
:104140002A208DF8000000208DF8010001208DF854
:1041500003006846FEF7ACFC08BD000010B588B04F
:10416000002468480068684908800846008800F410
:10417000004066490988084008B1FDF7BDFA624869
:10418000008800F4806061490988084030B14FF62A
:10419000FF305C4908605E49486880475A4800889B
:1041A00000F4005059490988084018B14DF6FF70D5
:1041B000544908605448008800F4805053490988E5
:1041C000084030B14EF6FF704E4908600020FEF7FF
:1041D00075FE4D48008800F400604C49098808408D
:1041E00060B14C48007810B1FFF72CFB02E00220D0
:1041F000FEF764FE4FF2FF704249086042480088B3
:1042000000F4007041490988084040B14FF6FF5062
:104210003C49086040480078401C3F4908703A48D3
:10422000008800F48070394909880840002866D069
:104230004FF6FF6033490860081D006800F4004035
:10424000002856D035480068401C344908600846AC
:104250000068032850D92B48001F006800F00800B0
:10426000002849D12748001F006880B22C49086007
:10427000002408E02B4901EB8400D0F8000C80B248
:104280004DF82400641C082CF4D32548006840F045
:104290000100234908600846006880B21949091FD7
:1042A00008601F48006820F001001D4908600846AA
:1042B000006880B21349091F086000BF11480068F8
:1042C00000F480600028F9D04FF6FF300D490860F7
:1042D000002408E05DF8240080B2124A02EB840159
:1042E000C1F8000C641C082CF4D300200B490860B2
:1042F00002E00020094908600720FEF7DFFD08B052
:1043000010BD0000445C004010010020EA000020C5
:104310005C010020F40100201201002014010020A3
:10432000180100200050004010B5FFF717FF10BD26
:104330000020064908604FF43F40054908800846C0
:1043400000880249091F086000207047445C004053
:10435000EA00002000BFFEE7F0B587B004460F4634
:1043600015461E463E4951F824103E4A52F8242074
:10437000114341F001000121FEF720FD01203A49DF
:10438000085534B9394951F824000121FEF716FDCA
:1043900008E0012C00D000BF344951F8240001216D
:1043A000FEF7FCFC18208DF81B00314830F8140093
:1043B000ADF8180003208DF81A002E4951F824009A
:1043C00006A9FDF75FFF04208DF81B002A4830F88E
:1043D0001400ADF81800294951F8240006A9FDF78A
:1043E00051FF02970020ADF80C00ADF80E00ADF8BB
:1043F0001000ADF814000C20ADF81200204951F85F
:10440000240002A9FFF758FD1D4951F8240001219D
:10441000FFF713FD1A4951F82400012240F22551FB
:10442000FFF724FD164951F824004021FFF7FCFC5A
:104430000F2D00DB0F250F2E00DB0F26114810F883
:1044400014008DF804008DF805508DF806600120E9
:104450008DF8070001A8FEF72BFB07B0F0BD0000A8
:10446000406200084C620008B4000020346200087A
:10447000586200089C0000205E620008A80000202E
:10448000900000202C62000870B504460D460A48D2
:10449000005D00B970BD094951F824002946FFF7B5
:1044A00077FD00BF054951F824008021FFF7D1FCBA
:1044B0000028F7D000BFEDE7B400002090000020F6
:1044C00070B505460C4616460848405D00B970BDFB
:1044D00004E014F8011B2846FFF7D6FF301EA6F1B2
:1044E00001018EB2F5D100BFF1E70000B400002059
:1044F000F0B5144604F1010C4FEA6C07DFF824C054
:104500000CEB41033D460AE00678401C90F800C0E1
:1045100046EA0C2223F8022B9B1C401C6D1E002D2A
:10452000F2D1F0BD006000400FB4084B10B504A9F3
:1045300002AA039800F0F4F8044602A9002000F053
:1045400091FC204610BC5DF814FB0000654E00088D
:104550007CB5044600201D46164600290BD0491E96
:10456000CDE90041044B6A462946304600F0D8F8B0
:10457000009A002111707CBD4F4E000802E008C86F
:10458000121F08C1002AFAD170477047002001E0CD
:1045900001C1121F002AFBD1704700002DE9FF5F07
:1045A00082B00021DDE90430020DDDF840B00343A4
:1045B00018D044F61050A2F2FF324243151411985D
:1045C00001281FD0A5EB0B00401C5FEA000A4FF04A
:1045D00000064E4FDFF83891B046504615D5CAF167
:1045E000000413E0119801244AA3012801D16FEAC5
:1045F0000B010298119AC0E90031C0E9024206B0ED
:10460000BDE8F09FCBF10000DFE704460021404AFF
:10461000491842EB0450CDE9001012E0E00707D042
:1046200032463B4640464946FBF7A7FE8046894650
:1046300032463B4610461946FBF79FFE06460F469C
:104640006410002CEAD1DDE90401DDE90023BAF1B0
:10465000000F06DAFBF791FE42464B46FBF78DFE54
:1046600005E0FBF7FCFE42464B46FBF7F8FE04462E
:104670000E460022284BFBF779FF03D84FF0FF309E
:10468000014607E00022254B20463146FBF7CEFDD0
:10469000FBF754FF102409E0002C0ADB0A22002358
:1046A000FBF793FD039B30321A55641E50EA01025A
:1046B000F2D1641C039AC4F111031444119A012A23
:1046C00003D0012208430DD10AE0084304D00020A2
:1046D0004FF0110B119072E7A3EB0B056D1E0DE06F
:1046E0005B4504DD4FF0000205F1010504E003DA4B
:1046F0004FF00002A5F10105002AECD002981199B3
:10470000C0E90231C0E9004579E70000000014402B
:104710000000F03F300000000000F0430000E03FE8
:104720002DE9FF4F95B09B468946064600250FE2CE
:10473000252877D100242746F84A0121059400E076
:10474000044316F8013F203B01FA03F01042F7D171
:1047500030782A2811D06FF02F033078A0F1300282
:10476000092A16D8059A44F0020402EB820203EBF0
:1047700042021044761C0590EFE759F8042B05928D
:10478000002A03DA504244F40054059044F0020435
:10479000761C30782E2816D116F8010F44F0040448
:1047A0002A280DD06FF02F023078A0F13003092BAA
:1047B00009D807EB870302EB4303C718761CF3E71E
:1047C00059F8047B761C30786C280FD006DC4C2816
:1047D00017D068280DD06A2814D104E0742810D0AE
:1047E0007A280FD10DE044F400140AE044F4801458
:1047F00001E044F440147278824202D104F580143E
:10480000761C761C307866280BD013DC582877D0BD
:1048100009DC002875D04528F6D04628F4D0472872
:104820001AD19DE118E0632835D0642879D0652835
:1048300012D195E1702873D008DC6728F1D069287F
:104840006FD06E280DD06F2806D1B5E073282CD01C
:10485000752875D0782874D05A46179990476D1CE2
:1048600075E1C4F30250022809D003280DD0D9F80D
:10487000001004280DD00D6009F1040967E1D9F892
:104880000010EA17C1E90052F6E7D9F800100D80D0
:10489000F2E70D70F0E719F8041B8DF80010002006
:1048A0008DF80100EA46012003E059F804AB4FF00F
:1048B000FF3061074FF0000102D40DE008F1010163
:1048C0008846B9420FDA8045F8DB1AF8081000294B
:1048D000F4D108E008F1010188468142FADB1AF8B8
:1048E00008100029F6D105985B46A0EB0807214681
:1048F0003846179A00F094FA284400EB080507E0C0
:104900004DE029E10DE01AF8010B5A46179990473E
:10491000B8F10108F7D25B4621463846179A13E1F1
:1049200042E00A220092C4F302524FF0000A022A27
:1049300008D059F804CB032A4FEAEC710AD00DE0F5
:1049400029E02AE009F1070121F00702F2E802C19B
:10495000914609E00FFA8CFC4FEAEC71042A03D16E
:104960004FFA8CFC4FEAEC71002907DA0A46002165
:10497000DCF1000C61EB02012D2202E0220504D5DE
:104980002B228DF80420012203E0E20701D020222F
:10499000F7E7904659E00A2102E010220DE01021CD
:1049A0004FF0000A00910BE010224FF0000A44F093
:1049B00004040827009203E008224FF0000A009246
:1049C000C4F30252022A05D059F804CB0021032A6D
:1049D00008D009E009F1070121F00702F2E802C15D
:1049E000914605E01FFA8CFC042A01D10CF0FF0C63
:1049F0004FF00008220728D5702806D0009B83F0CE
:104A0000100353EA0A0305D00EE040228DF804207B
:104A1000012208E05CEA010206D030228DF8042071
:104A20008DF8050002229046009B83F0080353EAAC
:104A30000A030AD15CEA010201D1620705D53022DE
:104A40008DF804204FF001087F1E582804D034A0B0
:104A500003900EA802900DE036A0F9E75346604699
:104A6000009AFBF7B2FB84460398825C0298401ED2
:104A7000029002705CEA0100F0D1029806A9081ABF
:104A800000F1200A600702D524F4803400E00127F9
:104A9000574502DDA7EB0A0000E0002000EB0A0109
:104AA000009005984144401A0590E00306D45B4607
:104AB0002146179A059800F0B3F90544002706E04F
:104AC00001A85A46C05D179990476D1C7F1C474549
:104AD000F6DBE0030CD55B462146179A059800F0FB
:104AE0009FF9054404E030205A46179990476D1C01
:104AF0000099481E00900029F5DC08E00298029910
:104B00005A460078491C0291179990476D1CBAF1DA
:104B10000001AAF1010AF1DC65E1000009280100A9
:104B20003031323334353637383961626364656623
:104B300000000000303132333435363738394142E5
:104B4000434445460000000000F058F90544761C37
:104B5000307800287FF4ECAD19B02846BDE8F08F1E
:104B6000620700D4062709F1070222F0070CFCE8CF
:104B70000223E14603F000485FEA080C02D00FF27E
:104B8000702C0DE05FEA045C02D50FF2682C07E0A0
:104B90005FEAC47C02D00FF2602C01E0AFF2700C2F
:104BA0004FF0FF3823F00043CDF850C065280CD0FB
:104BB00006DC452809D046281DD047283DD13DE0D8
:104BC000662818D067287ED138E00021112F01DB3C
:104BD000112000E0781CCDE9000106A90EA8FFF71E
:104BE000DDFCDDE90F010E9A03910021009207F12F
:104BF000010A04914DE04FF000400097CDE901100B
:104C000006A90EA8FFF7CAFCDDE90F0203920E9B6E
:104C100011990022DDF80CA00093049211B9791CBF
:104C200000EB010AB7EB0A0004D4C0F1FF3007F132
:104C3000010A0490AAEB0700019044E0012F00DA7A
:104C400001270021112F01DD112000E03846CDE9B8
:104C5000000106A90EA8FFF7A1FCDDE90F010E9ADD
:104C60000391002104910092BA4621070CD40399C4
:104C7000514500DA8A46BAF1010F05DD009AAAF122
:104C80000101515C302908D0B84202DA10F1040F5A
:104C900006DA0121CDE9011015E0AAF10101E9E7E9
:104CA000002805DC049901440491AAEB000102E00C
:104CB000411C514500DD8A460499401A401C019070
:104CC0004FF000400290200704D40198504501DBCA
:104CD000CDF8048000208DF84F0002980DF14F07A9
:104CE000B0F1004F25D02B200E9002984FF0020813
:104CF00000280CDA404202902D200E9007E00A2195
:104D00000298FBF74CFA3031029007F8011DB8F118
:104D10000001A8F10108F2DC02980028EFD1791E09
:104D20000E980870307800F0200040F0450007F839
:104D3000020D12A8C01B00F107081498007800B1FA
:104D4000012000EB0A01019801EBE0710598414454
:104D5000401A401E0590E00306D45B462146179A90
:104D6000059800F05DF805441498007818B15A468B
:104D7000179990476D1CE00324D55B462146179A8E
:104D8000059800F04DF805441CE00498002807DB66
:104D9000DDE90301884203DD0098405C179901E0DA
:104DA000179930205A469047049805F10105401C98
:104DB00004900198401E019004D12E205A46179964
:104DC00090476D1CBAF10001AAF1010ADDDC05E093
:104DD00017F8010B5A46179990476D1CB8F100015E
:104DE000A8F10108F4DC5B462146179A0598ABE66A
:104DF0002D0000002B000000200000002DE9F041F4
:104E0000044600251E461746880404D405E03946AA
:104E10002020B0476D1C641EF9D52846BDE8F081FE
:104E20002DE9F041044600251E469046C80301D5F1
:104E3000302700E02027880404D505E041463846A5
:104E4000B0476D1C641EF9D52846BDE8F0814A685C
:104E5000002A06D00A68531C0B6010704868401E78
:104E6000486070470A68531C0B6010707047000060
:104E70002DE9F05F0746894616463548D0F8008090
:104E800000253448D0F800A0AB463348007800B382
:104E900032480078E8B93248826928466D1C47F8E4
:104EA00020202F484069441E2E480068844210D3B9
:104EB0002C4800682C4909680844A04209D3102DE9
:104EC00007D24D4505D228466D1C47F820404FF0CB
:104ED000010B2248007848B1464501D2464605E01C
:104EE00008EB0A00B04201D208EB0A0629E030685C
:104EF000041F04F0010000B922E03068441E194884
:104F0000006884421BD317480068174909680844A1
:104F1000A04214D3102D12D2201F00F015FB70B147
:104F20004D450CD2022D06D1BBF1000F03D078689D
:104F3000A04200D104E028466D1C47F8204000BF85
:104F4000361D08EB0A00B042D1D82846BDE8F09FD4
:104F50006C000020700000207D0000207E000020FA
:104F60001C03002074000020780000202DE9F0438D
:104F70008DB080460E4635462C462022644905A851
:104F8000FBF7D6F8634807686348D0F800903246CC
:104F9000414662A000F08EFF66A000F08BFF6648DD
:104FA000007848B9654A66A167A000F083FF61A058
:104FB00000F080FF00BFFEE76B48007848B15F4A11
:104FC0006AA161A000F076FF5AA000F073FF00BF55
:104FD000FEE701206449087067A000F06BFF55A050
:104FE00000F068FF00F008F96449C86A00F062FF49
:104FF00050A000F05FFF2035BD4203D307EB09004E
:10500000A84202D201205E4908702A464946384625
:1050100000F0B2FA5A48007800284BD15749086B83
:1050200000F048FF43A000F045FF564920680860A3
:1050300060684860A0688860E068C86020690861AE
:1050400060694861A0698861E069C8610846C06814
:105050004C4A08999268079BCDE90132CDE90310CB
:105060004848406800904748069B026846A005995A
:1050700000F020FF2FA000F01DFF4248C069414909
:105080000C9A89690B9BCDE90131CDE903203D489C
:10509000406900903B480A9B02693BA0099900F0D7
:1050A00009FF24A000F006FF42A000F003FF21A0AA
:1050B00000F000FF4F480068324908624D48001D6B
:1050C000007881F824004B48103000688862494815
:1050D000401D007881F82C004648143000680863B1
:1050E0004448801D008888864248083000688863EC
:1050F00040480C300088C8633E4818300088086477
:1051000000F0D0FA284600F0A3FD0DB0BDE8F08312
:105110000C6200086C000020700000204C523A2500
:1051200058202020504328657272204164647229FF
:105130003A2564000D0A00007C000020F861000898
:10514000696E69745F6F6B0028257329206861732D
:1051500020617373657274206661696C6564206197
:10516000742025732E0000007D000020216F6E5FEB
:105170006661756C74000000000000004C6100085E
:105180007E0000201C030020202025733A202530BB
:105190003878202025733A20253038782020257350
:1051A0003A2025303878202025733A202530387869
:1051B000000000003D3D3D3D3D3D3D3D3D3D3D3D13
:1051C0003D3D3D3D3D3D3D3D3D3D3D3D3D3D3D3D0F
:1051D0003D3D3D3D3D3D3D3D3D3D3D3D3D3D3D3DFF
:1051E0003D3D3D3D3D3D3D3D3D3D3D3D3D3D3D3DEF
:1051F0003D3D000024ED00E010B50549054B064A91
:105200004868064900F056FE05A000F053FE10BDA8
:105210004C6100086C0200204C0200202C0200208F
:105220000D0A000070B504460E46154620222146A0
:105230001648FAF7A1FF202231461548FAF79CFFDD
:10524000202229461348FAF797FF134813490860AC
:1052500013480968401A1349086013481349086045
:1052600013480968401A134908600E48006838B9A5
:105270001149086800F01EFE10A000F01BFE70BD72
:1052800001200F49087000BFF9E700002C02002040
:105290004C0200206C020020083C00206C00002022
:1052A000084000207000002000000008740000206A
:1052B000B06D0008780000204C6100080D0A000065
:1052C0007C0000207FB50646002404E0305D1849CC
:1052D0000855601CC4B2082CF8DB3823154A02A913
:1052E000304600F073FE00241EE0002504E002A812
:1052F00000F0A2FD681CC5B20F48005DA842F6DCB4
:1053000040230E4A694602A800F060FE002507E02F
:105310001DF805000A4901EBC4014855681CC5B2D7
:10532000082DF5DB601CC4B2102CDEDB7FBD000055
:10533000B900002026630008FE6500085E630008CF
:10534000A834002010B56FF00400FEF7F7FA0A4801
:1053500000680A49B0FBF1F0094908700846007876
:1053600000EB4001C1EBC0104FF6FF7101EAC00035
:105370000449088010BD00004400002000127A009B
:10538000880000208A00002010B5044602E00120B9
:1053900000F006F8201EA4F101018CB2F7D110BD77
:1053A0000146114A12884A434FF0E0235A61002215
:1053B0009A611A46126942F001021A6100BF4FF069
:1053C000E022106900F001021AB100F48032002AD4
:1053D000F5D04FF0E022126922F001024FF0E023F5
:1053E0001A6100229A6170478A0000200146114A22
:1053F00012784A434FF0E0235A6100229A611A461C
:10540000126942F001021A6100BF4FF0E0221069F8
:1054100000F001021AB100F48032002AF5D04FF0FA
:10542000E022126922F001024FF0E0231A6100220B
:105430009A617047880000202DE9F04F87B08246BE
:105440000F469046994600250AE0785D3A49495D45
:10545000884203D03846FFF735FF0725681CC5B2E0
:10546000082DF2DB4023354A05A9504600F0AEFD79
:10547000012536E0002405E005A8005D03A90855D4
:10548000601CC4B2082CF7DBB8F1000F04D1681E11
:105490002B4901EBC00B04E0C5F11000284901EBDA
:1054A000C00B002406E003A9201D085C05A90855CF
:1054B000601CC4B2042CF6DB01AA05A9584600F012
:1054C000C3F8002409E003A8005D01A9095D484074
:1054D00005AA211D5054601CC4B2042CF3DB681CC7
:1054E000C5B2112DC6DB9DF814609DF818008DF82B
:1054F00014008DF818609DF815609DF819008DF85E
:1055000015008DF819609DF816609DF81A008DF849
:1055100016008DF81A609DF817609DF81B008DF835
:1055200017008DF81B604023064A494605A800F085
:105530004DFD07B0BDE8F08FB9000020666200089D
:10554000A8340020A662000801460B884A8802F4AD
:105550007840B0F5784F06D103F47840B0F5704F3D
:1055600001D10120704702F47F40B0F58E4F01D188
:105570000120F7E70020F5E770B505460E46144612
:105580001C480078D8B11C48007840B11B49886994
:10559000214600F08FFC1AA000F08CFC07E01749B0
:1055A000C869214600F086FC15A000F083FCAC42DF
:1055B00001D22C4603E0A819A04200D2AC190F4931
:1055C000086900F077FC0EA000F074FC08E02146AA
:1055D0000CA0226800F06EFC09A000F06BFC241DFA
:1055E000A819A042F3D80EA000F064FC04A000F0BB
:1055F00061FC70BD7E0000207F0000204C6100082F
:105600000D0A00002020616464723A202530387849
:1056100020202020646174613A2025303878000011
:105620003D3D3D3D3D3D3D3D3D3D3D3D3D3D3D3DAA
:105630003D3D3D3D3D3D3D3D3D3D3D3D3D3D3D3D9A
:105640003D3D3D3D00000000F0B587B005460E46EB
:1056500017464023104A05A9304600F0B7FC002445
:1056600010E005A8005D295D484000F03F0003A957
:1056700008550A4800EB8410095D405C01A90855F3
:10568000601CC4B2082CECDB2023054A394601A873
:1056900000F09CFC07B0F0BD9E630008FE630008AC
:1056A000DE63000810B5B14890F83800C0F3400040
:1056B00030B1AF49486B00F0FDFBAEA000F0FAFB43
:1056C000AA48806BC0F3807000287DD0A74890F86E
:1056D000240000284ED0A54890F8240000F00100D6
:1056E00030B1A349886B00F0E5FBA2A000F0E2FB1B
:1056F0009E4890F82400C0F3400030B19C49C86B2C
:1057000000F0D8FB9BA000F0D5FB984890F824004F
:10571000C0F3C00030B19649086C00F0CBFB95A0F7
:1057200000F0C8FB914890F82400C0F3001030B19D
:105730008F49486C00F0BEFB8EA000F0BBFB8B488D
:1057400090F82400C009A8B1884890F8240000F01F
:10575000010028B9854890F82400C0F3400048B102
:10576000824A916A824AD2F8900000F0A3FB81A09D
:1057700000F0A0FB7D4890F82C00002857D07B4813
:1057800090F82C0000F0010030B17949C86C00F0AD
:1057900091FB78A000F08EFB744890F82C00C0F3C9
:1057A000400030B17249086D00F084FB71A000F038
:1057B00081FB6E4890F82C00C0F3800040B16C492A
:1057C000486D00F077FB00E081E06AA000F072FB1A
:1057D000664890F82C00C0F3C00030B16449886D71
:1057E00000F068FB63A000F065FB604890F82C00B7
:1057F000C0F3001030B15E49C86D00F05BFB5DA0E6
:1058000000F058FB594890F82C00C00978B157486F
:1058100090F82C00C0F3400048B1544A116B544A30
:10582000D2F8940000F046FB52A000F043FB4F4832
:10583000808E00284BD04D4890F8340000F00100D5
:1058400030B14B49486E00F035FB4AA000F032FB06
:10585000464890F83400C0F3400030B14449886EA7
:1058600000F028FB43A000F025FB404890F83400EE
:10587000C0F3800030B13E49C86E00F01BFB3DA074
:1058800000F018FB394890F83400C0F3C00030B184
:105890003749086F00F00EFB36A000F00BFB3348D1
:1058A000808EC0F3002030B13149486F00F002FB18
:1058B00030A000F0FFFA2D48808EC0F3402030B1B8
:1058C0002B49886F00F0F6FA2AA000F0F3FA274877
:1058D000806BC00F002848D02448C06B002844D0FB
:1058E000224890F83C0000F0010030B12049C86F18
:1058F00000F0E0FA1FA000F0DDFA1C4890F83C0030
:10590000C0F3400038B11A49D1F8800000F0D2FA53
:1059100018A000F0CFFA154890F83C00C0F38000C2
:1059200038B11349D1F8840000F0C4FA11A000F096
:10593000C1FA0E4890F83C00C0F3C00038B10C49E1
:10594000D1F8880000F0B6FA0AA000F0B3FA0748D0
:1059500090F83C00C0F3001038B10549D1F88C0034
:1059600000F0A8FA03A000F0A5FA10BD1C03002067
:105970004C6100080D0A000010B5002821D0114B21
:105980000022001F196803E0814203D80A464968D3
:105990000029F9D152B11368841A9C4204D10068DD
:1059A00018441060104602E0506000E0186039B101
:1059B00002680B1A934203D10B681A4402604968CB
:1059C000416010BD1402002010B53220FFF7DCFC4E
:1059D000FBF740FE00BF062000F05EFB652000F0F4
:1059E00085FB00F025FB04469A2C00D100E0F2E78D
:1059F00000BF152000F050FB062000F077FB1420BC
:105A0000FFF7F4FC00F014FB0446512C01D11420E4
:105A100010BD00BF214604A000F04CFA06A000F023
:105A200049FA00BFFA20F3E76D6F64652065727272
:105A30006F3A253032780A000D0A000086B04FF424
:105A4000A060FDF76DF801210420FDF7B7F90121F1
:105A50000820FDF7B3F901211020FDF7AFF901216E
:105A60002020FDF7ABF901214020FDF7A7F9012126
:105A70000846FDF7A3F901212848FCF78FFCFFF742
:105A800061FC00F0A5F9FEF7C9F8FCF775FF24A248
:105A900025A127A0FFF7C6FB03231A464FF47A314E
:105AA0000020FEF759FC0323102211012548FEF7C0
:105AB000A1F8032348224FF400612348FEF79AF827
:105AC000032348224FF480511F48FEF793F8032325
:105AD000482208211D48FEF78DF8032348224FF481
