:020000040800F2
:10000000A0360020010100083F4A00082501000831
:100010003D4A0008EF0D0008B56800080000000028
:10002000000000000000000000000000C5570008AC
:100030009D33000800000000D94C0008855F0008CF
:100040001B0100081B0100081B0100081B01000820
:100050001B0100081B0100081B0100081B01000810
:100060001B0100081B0100081B010008552A00089D
:10007000592A00087D2A0008A52A0008CD2A000870
:100080001B0100081B0100081B0100081B010008E0
:10009000916800081B0100081B010008713400086A
:1000A0001B0100081B0100081B0100081B010008C0
:1000B000D95F0008496000081B0100081B01000807
:1000C0001B0100081B0100081B0100081B010008A0
:1000D0001B010008B5630008D563000839640008F7
:1000E0001B0100081B010008B5660008DFF80CD0F2
:1000F00000F070FC0048004755800008A036002042
:100100000648804706480047FEE7FEE7FEE7FEE7B1
:10011000FEE7FEE7FEE7FEE7FEE7FEE7895F000891
:10012000ED0000087046694607F06CFAFFF7FEFF25
:100130000649074A0868504343F2390210440860F0
:1001400040087047014908607047000060020020C5
:100150006D4EC64140EA01039B0703D009E008C980
:10016000121F08C0042AFAD203E011F8013B00F87C
:10017000013B521EF9D27047D2B201E000F8012BC8
:10018000491EFBD270470022F6E710B513460A4617
:1001900004461946FFF7F0FF204610BD10B504468F
:1001A00004E00B7800F8013B03B1491C521EF8D261
:1001B000204610BD421C10F8011B0029FBD1801AFB
:1001C000704700000FB400B58DB010A909900B90D6
:1001D00000914FF0FF300A9000200C9005480690E7
:1001E000054807906A4609A80F9900F021FA0DB05A
:1001F0005DF814FB4D0600086B0600082DE9FF5F53
:100200001D464FF0FF3BD5E9014691465F464FF052
:100210000008A9697F1C01988847296A8246884797
:100220000028F6D1BAF1FF3F0CD024F4C064002EB0
:1002300019DD600614D5BAF12B0F09D0BAF12D0FD4
:100240000ED103E0584604B0BDE8F09F44F480644A
:10025000A9697F1C01988847761E8246002E02DD20
:10026000BAF1300F03D0B9F1000F26D032E0A969FE
:10027000761E44F400747F1C019888478246002E45
:1002800005DDBAF1780F06D0BAF1580F03D0B9F1F5
:10029000000F10D01EE0B9F1000F02D0B9F1100F1D
:1002A00018D1A969761E24F400747F1C0198884730
:1002B0008246102002E0082000E00A20814609E082
:1002C00008FB0908A969761E44F400747F1C019894
:1002D00088478246002E05DD4946504600F093F9D6
:1002E0000028EDDAE96901988847A00502D46FF08B
:1002F0000100A8E7E00725D1600613D5600502D507
:10030000C8F1000000E0404629680A1D2A6009681B
:10031000220501D5087015E0220701D5088011E0FB
:1003200008600FE02868011D29600068210502D5DA
:1003300080F8008006E0210702D5A0F8008001E0E7
:10034000C0F8008038467EE72DE9FF5FD2E901A7BB
:100350004FF00008916999461446DDF838B04646DA
:1003600001988847054659EA0B0005D009E0A169C4
:10037000761C019888470546216A28468847002848
:10038000F5D1681C03D05FEACA7005D015E04FF0C4
:10039000FF3004B0BDE8F09F2068011D2160D0F857
:1003A00000800AE05FEACA7001D108F8015BA16928
:1003B000761C7F1E019888470546002F1ADD681CB1
:1003C00018D0B9F1000F0DD0E81705EBD06042113D
:1003D00020F01F0059F822102A1A012090400142F3
:1003E000E0D107E0BBF1000FDCD1216A2846884745
:1003F0000028D7D0E16901988847BBF1000F07D1E9
:10040000002E05DD5FEACA7002D1002188F80010D5
:10041000A068B84203DDBBF1000F03D017B16FF045
:100420000100B6E73046B4E72DE9FE4F81EA030448
:1004300004F0004421F0004100944FF0000B23F041
:10044000004350EA01045ED052EA03045BD0C3F3D8
:100450000A54C1F30A552C44A4F2F3340194A0FBCE
:100460000254C1F3130141F48011C3F3130343F4A5
:10047000801301FB024400FB034E840A970A44EAFE
:10048000815447EA8357A4FB076802958D0A05FB50
:1004900007854FEA932C04FB0C542705029D4FEA75
:1004A000065847EA1637B5EB08056EEB070C870EC2
:1004B000920E47EA811742EA8312A7FB0201B6EBCC
:1004C0000B0164EB00042B0D43EA0C335E1844EB84
:1004D0001C50DA465146E7FB0201C5F313044FEA0C
:1004E0000B3343EA14534FEA0432019C43EA0603F8
:1004F000A4F10C040294009CCDE900B400F0D5F8FE
:1005000003B0BDE8F08F00200146F9E70EB540F2D8
:10051000334102910021CDE900110A460B4600F05B
:10052000C4F803B000BDC1F30A5210B5C1F3130102
:1005300040F2FF3341F480119A4201DA002010BDED
:1005400040F233439A42A2F2334203DC524200F0BB
:100550004AF810BD904010BD30B50B460146002052
:100560002022012409E021FA02F59D4205D303FA75
:1005700002F5491B04FA02F52844151EA2F10102F6
:10058000F1DC30BD2DE9F05F0546002092469B4628
:1005900088460646814640241BE028464146474699
:1005A000224600F020F853465A46C01A914110D313
:1005B00011461846224600F01FFA2D1A67EB010873
:1005C0004F4622460120002100F016FA17EB0009E1
:1005D0004E41201EA4F10104DFDC484631462A4684
:1005E0004346BDE8F09F202A04DB203A21FA02F0BE
:1005F0000021704721FA02F3D040C2F1200291405D
:100600000843194670473A2800D2303820F02002BB
:10061000412A01D3A2F13700884201D34FF0FF30C5
:100620007047000002681144137801601846704753
:10063000D1600449516104491162002111611146E0
:1006400000F000BA250600083B0A0008426842B1E3
:10065000016811F8013B23B1521EC0E9001218468F
:1006600070470121C160881E704742685AB1C36853
:10067000016843B983688B4205D0491E521CC0E90A
:100680000012002070474FF0FF30704710B5141E65
:1006900073F1000408DA401C41F1000192185B413B
:1006A0001A4301D120F0010010BD2DE9F04D924612
:1006B0009B4611B1B1FA81F202E0B0FA80F2203229
:1006C000904600F099F904460F4640EA0A0041EAD4
:1006D0000B0153465A46084313D0114653EA010012
:1006E00019D0C8F140025046FFF77DFF05460E467F
:1006F00050465946424600F07FF9084305D0012094
:1007000004E020463946BDE8F08D0020054346EA66
:10071000E0762C4337430A986305E40AA0EB08000F
:100720000022FD0A44EA47540A3002D5002001465F
:10073000E9E7010510196941DDE90845001969413A
:10074000BDE8F04DA2E72DE9FE4F804681EA0300A7
:10075000C00F0C46009021F0004123F00045B8EB9B
:100760000200A94105D24046214690461C460B4650
:10077000024623F00040104347D0270DC7F30A007C
:10078000C3F30A510290401A019040286BDAC3F378
:10079000130040F4801B0098924620B10023D2EB56
:1007A000030A63EB0B0B01985946C0F14002504617
:1007B00000F022F906460D4650465946019A00F0CF
:1007C0002AF910EB08006141002487EA115284EAFB
:1007D000E7731A4340D0009A62B3019A012A4FEAA4
:1007E000075215DC001B61EB02014FF0004202EAE8
:1007F0000752CDE90042001C41F5801132462B46DC
:10080000FFF753FF03B0BDE8F08F40462146F9E7FC
:10081000001B61EB0201001C41F5801300185B41D5
:100820002018A2F5001747EB030140EAD570B6196E
:100830006D4111E06D084FEA360645EAC0754FEA92
:100840000752001B61EB0201001C41F580114908B1
:100850004FEA30000019514132462B4603B0BDE843
:10086000F04FFFF713BF0098012240000023D0EBA8
:10087000020263EBE073009821464FEAE074B8EBA4
:10088000000061EB0401E9E783F000435BE781F0DE
:10089000004158E72DE9F04D81EA030404F0004BD4
:1008A00021F0004514464FF0000A23F0004150EAC1
:1008B000050220D054EA01021DD0C5F30A570246B2
:1008C000C5F31303C1F31300C1F30A5640F48015B6
:1008D00043F48013A7EB0608101BD64608F2FD3838
:1008E00073EB050002D308F1010801E092185B41A7
:1008F000B8F1000F03DA00200146BDE8F08D0020BA
:100900004FF48011064684460EE0171B73EB050773
:1009100005D3121B63EB050306434CEA010C49089F
:100920004FEA300092185B4150EA0107EDD152EADC
:10093000030012D082EA040083EA0501084305D0CF
:10094000101BAB4106D20122002306E000224FF02B
:10095000004302E06FF0010253101AEB06004CEB6B
:10096000085110EB0A0041EB0B01BDE8F04DFFF719
:100970008DBEC1F30A52C1F3130140F2FF3341F4BB
:1009800080119A4202DA00200146704740F2334358
:100990009A42A2F2334202DC5242FFF724BE00F038
:1009A0002BB8000030B5041E71F1000404DB4FF0D9
:1009B0000044404264EB0101141E73F1000405DBA6
:1009C0001C464FF00043524263EB0403994208BFB8
:1009D000904230BD064C074D06E0E06840F0010350
:1009E00094E8070098471034AC42F6D3FFF782FB37
:1009F00090930008B0930008202A04DB203A00FA04
:100A000002F1002070479140C2F1200320FA03F365
:100A1000194390407047202A06DBCB17203A41FA51
:100A200002F043EAE07306E041FA02F3D040C2F17B
:100A300020029140084319467047C0B24FF4F0516C
:100A400000F096B92DE9F34F8BB04FF0000801F19B
:100A50000C000C464FF0010B46460DF1080A0190C0
:100A60006269012101989047051E2DD0252D2CD0BB
:100A7000216A8847C0B16269012101989047216AC3
:100A800088470028F7D1411E62690198904700E02D
:100A9000761CA1690B988847216A88470028F7D1FE
:100AA000E1690B988847DBE7A1690B9888470746FF
:100AB000A84201D1761CD3E7E1690B9888477F1CD7
:100AC00002D1B8F1000F6FD046E1002762693D46C0
:100AD0003946019890472A2804D16269012101987A
:100AE00090470125DFF884926269012101989047BF
:100AF000A0F130010A290AD24F45E5DC07EB870156
:100B000000EB4107303FDFD445F01005ECE7E90684
:100B100001D46FF000476C280AD04C2814D0682804
:100B200015D06A280DD074281CD07A281AD01DE060
:100B300062690121019890476C2802D045F00405B4
:100B400014E045F002050DE045F020050AE0626979
:100B5000012101989047682802D045F0080505E07A
:100B600045F400656269012101989047C4E9015785
:100B700065283DD019DC58287AD00CDC452837D0C0
:100B800004DC252826D0412831D131E046282FD059
:100B900047282CD12CE05B2877D0612828D0632807
:100BA0007CD0642823D15AE0D0E06F2848D008DCFC
:100BB00066281DD067281BD0692821D06E2816D141
:100BC00027E0702845D0732868D0752847D078284A
:100BD0000DD14DE0A1690B988847054625283FF4C3
:100BE00069AFE1690B9888476D1C3FF46AAFB3E0C9
:100BF00023466A466FF001000B99AFF300809EE038
:100C000045F040006060A80723464FF0000236D44C
:100C10003EE0E8077FF447AF2068011D21600068CF
:100C2000290501D506701BE7290701D5068017E7BE
:100C3000A90703D5F117C0E9006111E706600FE7C6
:100C400045F040006060A80723464FF0080216D424
:100C50001EE040F60E0125EA0100606016E045F056
:100C600040006060A80723464FF00A0207D40FE057
:100C700045F040006060A80708D5234610226FF0B9
:100C800001000B99AFF3008059E007E023461022E2
:100C90006FF001000B99FFF7B1FA50E04FF0000937
:100CA0004F464B46632802D05B2806D040E0E8065A
:100CB00001D40120A06001273AE062690121019876
:100CC00090475E2805D14FF00109626949460198B5
:100CD0009047216939B900210A46534643F821203B
:100CE000491C0829FADBB0B3216969B9C11700EBC7
:100CF000D16253110AEB830122F01F02821A0120F4
:100D00000B68904003430B60626901210198904792
:100D10005D28E8D1B9F1000F09D00020514651F803
:100D20002020D24341F82020401C0828F7DB02ABEA
:100D3000224600976FF001000B99FFF705FB002892
:100D40000CDA401C08D1BBF1000F05D04FF0FF308A
:100D50000DB0BDE8F08FFFE74046F9E7E90701D1A4
:100D600008F1010806444FF0000B79E6CCCCCC0C1E
:100D70007F2801D9002208E0064A02EB5002C00792
:100D8000127800D1120902F00F02012090400840B1
:100D900070470000CC8C000870B58C1810F8015B0F
:100DA00015F0070301D110F8013B2A1106D110F804
:100DB000012B03E010F8016B01F8016B5B1EF9D108
:100DC0002B0705D40023521E0DD401F8013BFAE78E
:100DD00010F8013BCB1A921C03E013F8015B01F8F9
:100DE000015B521EF9D5A142D8D3002070BDFEE7A9
:100DF000C1B2000A40EA012070470000F0B50025AA
:100E00002C462B46DFF8A0E047E042195678022E28
:100E100009D116798EF80A60022E01D9FE20F0BDA4
:100E200056798EF804605678042E1DD19EF80A304B
:100E3000A34236D0641CE4B204EB840606EBC40C77
:100E40000CEB0E06977806F8027C17790023B77032
:100E5000022F01D9FC20F0BD577906F8017C977963
:100E60000EF80C70D77977705678052E12D104EBF6
:100E7000840606EBC4067644B7789F4211D05B1C0B
:100E8000DBB206EB8306977806F8017CD77877709B
:100E90001279B270425D2A4495B28D42B5D31420C6
:100EA000F0BDFB20F0BD0000BC25002010B500F017
:100EB00057F9FF280DD0072000F090FA142807D129
:100EC0000F2006F011FE062000F088FA142801D049
:100ED000FF2010BD00F0C0FA0446152803D10449D4
:100EE00000201424887000F067FA204610BD00002E
:100EF000BC25002010B500F0ADF8094C0028207882
:100F000009D058B9FA2006F0EFFD00F0A3F828B197
:100F10000120207002E008B100F096F9207810BDA1
:100F2000BC2500201FB512A1D1E90021CDE9002187
:100F30008DF8040003AA02A900F0A2F8142814D125
:100F400000221146684600F019F814280DD19DF8CA
:100F50000810002201EB810303EBC101064B194489
:100F60009DF80C3001EB83014A7404B010BD000001
:100F70000201000000000000BC2500202DE9F05F08
:100F80008146002793460E463D46022000F039FA7E
:100F90004846B9F80640082100F070FA0D2239469B
:100FA000002000F042FA14284FD199F800000127E0
:100FB0002749000634D588468CB3092239460020DB
:100FC00000F033FA142840D187F00107304600F0D2
:100FD00093F929188DB298F80310814223D806445A
:100FE000201A84B2E8E79AF80300A04200D3204612
:100FF000C0B280460146304600F040FA0122394630
:10100000002000F012FA14281FD105EB080085B269
:10101000A4EB080087F00107464484B201E002E037
:101020008A46002CDFD199F800000124000605D57E
:101030000021304600F022FA012200E00922214678
:10104000002000F0F2F9ABF80050BDE8F09F00007E
:10105000BC25002010B504F0C9F908B100F09AF8D9
:10106000162007F02FFB052006F062FD07F0FAFAC4
:10107000152803D0182801D0002010BD012010BD74
:10108000F0B5104F0024BE7A18E004EB840505EBA0
:10109000C4053D44002395F80FC00BE005EB830E1B
:1010A0009EF810E0864503D10C7013701420F0BD3B
:1010B0005B1CDBB29C45F1D8641CE4B2A642E4D8C8
:1010C000F920F0BDBC2500207CB504460D4610A0DB
:1010D0002A46D0E90010CDE9001004208DF8060062
:1010E00021466846FFF74AFF142810D1A0788DF8F2
:1010F0000600E0788DF807002A4621466846FFF78B
:101100003DFF142803D129882046FFF777FE7CBDD8
:10111000800600020000000070B504460E4646201E
:1011200007F0D0FA012007F0EFFA00F095F9054634
:10113000142810D1204600F0DFF830800748E1790C
:10114000C170217A627A01EB0221C180A17AE27A30
:1011500001EB02210181284670BD0000BC25002062
:1011600010B5052000F03AF9142801D0FF2010BD79
:101170000A2007F0A7FA072007F0C6FA07F072FA6C
:101180000349C20601D5012200E000224A7010BDC9
:10119000BC25002010B5222007F094FABDE81040CD
:1011A00007F060BA2DE9FC5F82461C4693468846EC
:1011B000002000F026F94AF08000814601AA694625
:1011C000FFF75EFF14283BD11E4E4FF6FF779DF8C8
:1011D0000000092200EB800101EBC0009DF8041023
:1011E000304400EB8100417C504600F01EF905467A
:1011F000142804D02E2D17D02A2D1AD01FE09DF8C8
:10120000000000EB800101EBC0009DF804103044A9
:1012100000EB8100417C81F001014174404600F007
:101220006BF8ABF800000AE04846FFF77BFE054686
:1012300005E024B1BC42CAD2641EA4B2C7E7284666
:10124000BDE8FC9FBC25002010B526210348FEF711
:101250009AFF02490820C87010BD0000BC2500207C
:101260002DE9FC4781461C4616468846002000F0C2
:10127000C8F801AA69464846FFF702FF142832D190
:101280001C4D4FF6FF77F1B2404600F0F7F89DF89D
:101290000000012200EB800101EBC0009DF804106A
:1012A000284400EB8100417C484600F0BEF8142839
:1012B0000AD02E2819D02A2815D1002C13D0BC42D0
:1012C000E1D2641EA4B2DEE79DF8001001EB8102BA
:1012D00002EBC1019DF80420294401EB82014A7C04
:1012E00082F001024A74BDE8FC874846FFF71AFE07
:1012F000F9E70000BC25002070B50546282007F05E
:10130000E1F907F0AFF90446260007D007F0AAF983
:10131000641E05F8010B14F0FF04F7D1304670BDD0
:1013200070B50546452007F0CDF9284607F0ECF9E1
:1013300000F092F80446142807D1132007F0C2F9F0
:10134000284607F0E1F902488570204670BD00008C
:10135000BC2500207CB515A10446D1E90021CDE9CA
:101360000021492007F0AEF9204607F0CDF900F042
:1013700073F8142819D100240E4D11E004EB8401F8
:1013800001EBC40129440A7B032A07D1C87A8DF8EE
:101390000400002211466846FFF7F0FD641CE4B229
:1013A000A97AA142EAD1022129707CBD210A00005C
:1013B00000000000BC25002010B5042007F082F9D1
:1013C00005484078012804D00020BDE8104007F00F
:1013D0009BB90220F9E70000BC25002010B50446A7
:1013E000152007F06FF9204607F08EF9142006F05B
:1013F0009FFB07F037F9512801D0FA2010BD1420C7
:1014000010BD10B504460B2007F05CF9252007F04D
:101410007BF934B1012C06D08520BDE8104007F0DF
:1014200073B90520F9E7C520F7E770B505461446FE
:101430000E464E2007F046F90EB1C02000E0002015
:1014400007F062F944EA0510C0B207F05DF9BDE8A3
:10145000704000F001B8000070B50024064D03F0A4
:10146000C5FF18B1BDE87040FFF794BE641CAC42E4
:10147000F5D3FA2070BD0000404B4C0070B5054616
:101480000C462B2007F01EF9204601E015F8010B51
:1014900007F03AF9641EE4B2F8D270BD92B006F0DB
:1014A000A7FD142805D0FAA007F022F8FDA007F048
:1014B0001FF8FFF7C9FE4FF4FA726421FA4807F0EB
:1014C00077F8F94807F07EF8DFF8E0A34FF001095C
:1014D0000026F6480838407930B103F0FBFC0228BA
:1014E00002D0F2480838467102F092FAFFF702FD86
:1014F00001287DD1EEA006F0FBFFEAA006F0F8FF80
:10150000FFF7D4FC142805D0EDA006F0F1FFE5A00C
:1015100006F0EEFF642006F0E7FAE34811A9A230D6
:10152000FFF7FAFD014614281DD0E9A006F0E0FF00
:10153000DCA006F0DDFF0220FFF7F2FE01461428D2
:1015400005D0EBA006F0D4FFD6A006F0D1FFD64818
:1015500011A9A230FFF7B8FD0146142823D0EAA054
:1015600006F0C6FF33E0EFA006F0C2FFCE4D002428
:10157000A23505E0295DEEA006F0BAFF641CE4B2D6
:10158000BDF844008442F5D3C6A006F0B1FFC5A063
:1015900006F0AEFFC449BDF84420A231A1F112000B
:1015A00005F006F8C7E7E4A006F0A2FFBE4D002450
:1015B000A23505E0295DDEA006F09AFF641CE4B2C6
:1015C000BDF844008442F5D3C8A006F091FFB5A051
:1015D00006F08EFF0120FFF7BDFE142805D0D9A02C
:1015E00006F086FFAFA006F083FFDB4C217800E019
:1015F0001AE0DAA006F07CFFAAA006F079FFA17A33
:10160000DDA006F075FFA7A006F072FFE17BE1A068
:1016100006F06EFFA3A006F06BFF217FDDA006F0B1
:1016200067FFA0A006F064FFCB480178022942D1F1
:10163000002583463BE005EB850000EBC500002458
:1016400000EB0B082DE008EB8400817C032926D1F8
:10165000007C010623D5944900F00F000A2311AA4B
:10166000A231FFF79FFD142819D1BDF84470B7B11E
:1016700044216846FEF787FD402F10D28A498DF835
:1016800000703A46A2310DF10100FEF763FDBDF88E
:1016900044006946401CC2B2C54804F0F3FD641C16
:1016A000E4B298F80F00A042CDD16D1CEDB29BF8CA
:1016B0000A00A842BFD1BF48016800918188ADF8F7
:1016C0000410C188ADF806100089ADF808009DE847
:1016D000070006F080FE30B1B64806F027FEC1B222
:1016E000002005F075F9B448016800918188ADF8D3
:1016F0000410C188ADF806100089ADF808009DE817
:10170000070006F068FE30B1AB4806F00FFEC1B22C
:10171000002005F05DF9A948016800918188ADF8C5
:101720000410C188ADF806100089ADF808009DE8E6
:10173000070006F050FE60B1A04806F0F7FDC1B208
:10174000F12973D0F2296FD0FF296ED0012005F066
:101750003FF99748016800918188ADF80410C1886D
:10176000ADF806100189ADF808104189ADF80A10EE
:101770008089ADF80C009DE80F0004F0D1FD002831
:101780007ED04A4A4849521CA231894804F04CFD97
:10179000DFF8148108F1A208444698F80020611C83
:1017A00008F1E400FEF7D6FC404D14F81D0B083D8F
:1017B000A8F11202687205F12C00217F0170617F8F
:1017C0004170A17F8170E17FC170118908F1E40B44
:1017D0000B0A03714171518908F1A4040A0A82714C
:1017E000C1710027314904EBC7030BEBC70001228D
:1017F000243106F0B7F97F1CFFB2072FF2D3404621
:1018000010F8391F84F83810417884F8391081783D
:1018100084F83A1098F83C0084F83B0023481530CF
:10182000807870B312E101E019E0DDE0644D00243E
:10183000A4F10A001D280DD8204603F06CFE0246D4
:1018400045F82400134621465EA006F051FE15A07F
:1018500006F04EFE641CE4B2282CE9D379E7584D1B
:101860000024204603F057FE024645F824001346A4
:10187000214654A006F03CFE0AA006F039FE01E025
:10188000CDE3B5E0641CE4B2282CEAD361E70000A4
:10189000636833373520696E6974206572726F0A28
:1018A000000000000D0A0000D42A002004020020DD
:1018B00044657669636520436F6E6E6563740A00E4
:1018C000427573205265736574204572726F0A0009
:1018D0004765742044657669636520446573637267
:1018E000204572726F3A3078253032780A00000055
:1018F0005365742041646472204572726F3A307887
:10190000253032780A00000047657420436F6E6608
:10191000204465736372204572726F3A30782530C7
:1019200032780A00C9E8B1B8C3E8CAF6B7FB0000CC
:101930002530327820000000C5E4D6C3C3E8CAF6DB
:10194000B7FB000053657420436F6E6669672045DE
:1019500072726F0A00000000BC25002055534244FB
:101960002E73746174757320202020202020202085
:10197000203D202530325800555342442E6974666C
:101980006D6F756E7420202020202020203D2025A2
:1019900030325800555342442E6974665B695D2E9F
:1019A0006564706D6F756E74203D2025303258006F
:1019B000E0180020BC210020A42100209821002054
:1019C000042900203EB2E9D1AF5B253032645DCD01
:1019D000E6BCD2B5C4B2EED6B520256C7520307801
:1019E0002530385800000000FE4981F80590B0E627
:1019F000FE4F3823FC4A0321381D06F0ADFD28B305
:101A00003823F94A0421381D06F0A6FD01001DD037
:101A1000081BC0F13800C2B2F34BF248403B1D3006
:101A2000CDF800A002F0A2FDC0050FD5EE48297A3E
:101A3000403801F085FCEB480A3042780178ECA090
:101A400006F056FDAFF2A41006F052FDDFF89483C5
:101A500008F10E0898F80200B8B3E34B3722403B78
:101A6000611C4046CDF800A002F080FDC00533D5D2
:101A700008F12607386848B339792A7A0844DA49E0
:101A80004039FEF767FB3879297A0844C1B23971C9
:101A90007879814202D2386801F094FA98F80410FB
:101AA000D1B188F8046098F80320D648C2F1380311
:101AB00018443968FEF74EFB98F8030039682A7A13
:101AC0000144601CFEF746FB06E011E0FFE712222E
:101AD000CDA1002004F092FFC24F3437386818B10E
:101AE00006F05EFA3E607E7185F8049088F8026028
:101AF000BD4F8FB3381BC0F138033A460421BB48B1
:101B000006F02AFD070031D0381BC0F13800C2B200
:101B1000B54BB448403B39460E30CDF800A002F03A
:101B200025FDC105E6D48005E4D5AE4F34373868CD
:101B300008B106F035FA782006F04CFB386060B149
:101B400078217971A8492A7A4039FEF703FB287A6F
:101B5000387188F8030005E008E01222AAA10020ED
:101B600004F04CFF88F8029085F80490DFF8748246
:101B700008F1130898F80200B8B39B4B3722403B9A
:101B8000611C4046CDF800A002F0F0FCC1052DD547
:101B9000DFF888B22A7A5F469BF864000BF23621A0
:101BA0003844FEF7D7FA17F8640F297A0844C1B20F
:101BB0003970584601F0F2FA98F80400474688B1A7
:101BC0003E71FA788F48C2F1380108445946FEF751
:101BD000C1FAF8789BF8642000EB0B01121A601C24
:101BE000FEF7B8FA85F804900AE00BE0800507D507
:101BF0002E708BA006F07CFCAFF2583006F078FC1B
:101C000088F80260784FA3462EE078485C460C3096
:101C10000190381BC0F138033A460421019806F0C0
:101C20009BFC070022D0381BC0F13800C2B26E4BBB
:101C30006C48403B39461330CDF800A002F096FCCA
:101C4000C1054FD56848297A403801F0A7FA98F8BD
:101C50000400444630B1644926712A7A4039384636
:101C6000FEF778FAA6707F1C002FCED15D4F183793
:101C7000B878B0B35C4B3722403B0BF101013846DA
:101C8000CDF800A002F072FCC1053ED5634C2A7A63
:101C9000653404F2D11194F864002044FEF75AFA36
:101CA00094F86400297A0844C1B284F8641020468C
:101CB00001F0CCFA387988B13E71FA785148C2F116
:101CC000380108442146FEF745FA94F86410F87884
:101CD0000A1A01190BF10100FEF73CFA85F804908D
:101CE0001DE01DE0800594D588F802903E4985F8F6
:101CF000049044462A7A40394848FEF72BFA47496F
:101D0000287A81F86400E070B0E7800507D5BE70DE
:101D100048A006F0EDFBAFF2744006F0E9FBBE70A0
:101D2000314CD8462EE0DFF8C4B00BF1100BA4EB19
:101D30000800C0F1380322460421584606F00CFC86
:101D4000040021D0A4EB0800C0F13800C2B2264B39
:101D50002448403B21461830CDF800A002F006FC94
:101D6000C1053ED52048297A403801F06FFA38790C
:101D700030B11D493E712A7A40392046FEF7EAF912
:101D8000BE70641C002CCED1DFF858B00BF1220BD2
:101D90009BF8020020B3144B3722403B08F10101AD
:101DA000ABF10F00CDF800A002F0E0FBC00565D557
:101DB000144F2A7A763F07F5B67197F864003844D5
:101DC000FEF7C8F997F86400297A0844C1B287F889
:101DD0006410384601F030F85C469BF8040033E0AC
:101DE00090E07BE0FC0100201A2C0020A48C00086D
:101DF000BFAABED631202564C2D6202564BED62017
:101E000000000000E42A00204130C3FCC1EEC9EA12
:101E1000C7EBBFD5BCE4CAA7B0DC0000A4290020F2
:101E20003E3131C3FCC1EE20C6B4BDD320CAA7B039
:101E3000DC0000003E3D3139C3FCC1EE20C6B4BD1C
:101E4000D320CAA7B0DC0000B0B12671E27807F158
:101E50007600C2F1380100EB811007F5B671FEF78C
:101E600079F997F86410E0780A1A07F5B671014419
:101E700008F10100FEF76EF985F804908BF8026016
:101E8000DFF81CB200240BEB8400864A38230421BF
:101E9000143006F061FB07001FD03C2101A8FEF7BB
:101EA00072F910A80090A7EB0800C0F13800C2B288
:101EB0008DF8406001AB39467B4802F057FBC00506
:101EC0000BD59DF80700B02874D0B12874D0B22883
:101ED0006DD0B3286CD0B4286BD093E080057FF52B
:101EE00026AF704987F8029085F8049040392A7A25
:101EF000A1F2D110FEF72EF96C49287A81F864001E
:101F0000F87041E7674C3AE0654808300190A4EB6F
:101F10000800C0F1380322460421019806F01CFB9A
:101F20000400ADD0A4EB0800C0F13800C2B25D4B94
:101F30005D48403B2146401FCDF800A002F016FB53
:101F4000C1051FD55748BE70297A403800F074FF8C
:101F50009BF8041039B153498BF804602A7A403950
:101F60002046FEF7F7F850481B384278017850A019
:101F700006F0BEFAAFF2D46006F0BAFA641C002C88
:101F8000C2D17DE78005C2D546498BF802904C4608
:101F90005F462A7A40394548FEF7DCF84349287AFB
:101FA00081F86400F8702C716AE703E004E012E045
:101FB00015E01EE046A00FE09DF808109DF809000E
:101FC000814200D0F1B949A006F092FAAFF22C702C
:101FD00006F08EFA16E04CA006F08AFAF6E751A059
:101FE00006F086FAAFF2447006F082FA85F80290A5
:101FF00008E053A006F07CFAAFF2587006F078FAC9
:10200000AE70EE70641CE4B2052CFFF43CAF28798E
:1020100001283ED02348697A403002F01BFB494832
:10202000016800918188ADF80410C188ADF80610F0
:102030000189ADF808104189ADF80A108089ADF822
:102040000C009DE80F0004F06BF9A8B1164A154981
:102050001E3AA4393B4804F0E7F8124CA43C611C3A
:10206000227804F1E400FEF775F80F48217827384C
:102070004172601C02F018FB0C48CB3006F08DFA60
:1020800000283FF426AA0948CB3006F08DFAFFF766
:1020900020BA2E713C21034805F07EFCBFE700000A
:1020A000A48C00081A2C002023020020092A0020FA
:1020B0003EBDE1B9FBC3FCC1EE2020D4AD202530EC
:1020C0003258202020D0C220253032580000000095
:1020D0003E3078423020BFAACABCCFC2D7A2C3FCD0
:1020E000C1EE202020CAD5B5BD0000003E307842A8
:1020F0003120B5B9BCC6CAB1C3FCC1EE2564C3EB7F
:1021000020CAD5B5BD2000003E3078423220CDA394
:10211000D6B9CFC2D7A2C3FCC1EE202020CAD5B504
:10212000BD0000003E3078423320BCC6CBE3D6D0A1
:10213000BDB1B7D62020202020CAD5B5BD000000F3
:102140003E000000D0180020F8B50121502003F017
:102150006DF9FF20ADF8000003241D4F8DF80240FB
:1021600010258DF803506946384601F063FB600284
:10217000ADF800008DF802408DF8035069463846EE
:1021800001F058FB0126ADF800608DF802408DF893
:102190000350104D6946284601F04CFB0220ADF873
:1021A00000008DF8024004208DF80300694628469F
:1021B00001F040FB0848C0F8A861C0F8A4610749D5
:1021C0000020C1F880014FF044303860F8BD0000B5
:1021D0000018014000080140000023420000214295
:1021E0002DE9F84F0020ADF800004BF6BF7648F21D
:1021F00080084A4D4A4C40F68F7ADFF8289148F61D
:102200000F7B494F2FE0088810F00F0089F800007D
:1022100032D007EB8001D1F8002CADF80020BDF8DA
:10222000002012040BD5D1F8002C02EA0A02C1F8F2
:10223000002C3E4901EB800050F8040C8047BDF8AB
:10224000000000060FD599F8000007EB8001D1F8D7
:10225000002C02EA0B02C1F8002C354901EB80008A
:1022600050F8040C80472D484430006831490880FC
:102270000004C8D4BDE8F88F28682080208800F0CA
:1022800030006080208800F4405020802868304072
:1022900080F4005080F0200040EA080028600888A0
:1022A000C00617D4296801EA0B01296002F048FA38
:1022B00028E02188890401D580F400506188C9068E
:1022C00028D46188890601D580F0200040EA080002
:1022D0002860CFE72868ADF80000BDF800000005D1
:1022E00006D5296801EA0A01296003F0E3FB09E049
:1022F000BDF800000004B6D5286800EA0A0028608E
:1023000002F0B6FC286821883040C904D1D580F499
:102310008050CEE780F01000D3E70000005C004062
:10232000EA000020DA0000200050004030010020C8
:10233000140100200A01002020F0004259B10028B9
:1023400007DA8A4203D9501A40F000407047881AD1
:102350007047084470470028FCDA42F0004070479C
:102360002DE9F0419EB2DDE906411F0C130C00205F
:1023700092B260290BD0502909D04FF0010C164DB4
:102380004FF06634BCEB111F0BD110460EE0A0B22B
:1023900000EB8000D11806EB800008443844BDE80B
:1023A000F0810222B2EB111F0AD11846FEF7AEF8F7
:1023B00022462B46FEF738F8BDE8F041FEF7B3B8E9
:1023C0000322B2EB111F01D1B000E8E70422B2EB07
:1023D000111FE4D1B800E2E766660E402DE9F04F28
:1023E0008FB0142102A8FDF7CEFE142107A8FDF737
:1023F000CAFE00200A25474E0C9050274FF01008C7
:102400004FF020094FF0300A4FF0400B0D9005EBD4
:10241000850006EB800401972069009094E80F0086
:10242000FFF79EFF02990844CDE9018020690090E2
:1024300094E80F00FFF794FF0399CDF80490084447
:1024400003902069009094E80F00FFF789FF04993A
:10245000CDF804A0084404902069009094E80F008F
:10246000FFF77EFF0599CDF804B008440590206978
:10247000009094E80F00FFF773FF06996D1C084465
:10248000EDB20690272DC2D90020012207AB02AD84
:102490000CAC55F8201001B9225443F82010401C10
:1024A000C0B20528F5D30521204600F041F80646C4
:1024B000052107A806F000F8AEB1FDF739FE90FB44
:1024C000F6F106FB1100401CC2B200200146235C5D
:1024D000A3B1491CC9B2914210D1002800D10620F5
:1024E0000FB0BDE8F08F0020079955F820209142E9
:1024F000F3D0401CC0B20528F6D303E0401CC0B2A4
:102500000528E4D304A005F0F3FF08A005F0F0FFD0
:102510000120E5E7E42500203EB3D4B4F3C5E2D0C2
:10252000A120BCC6CBE3B3F6B4ED00000D0A000059
:10253000034610B50020024606E09C5C012C01D148
:10254000401CC0B2521CD2B28A42F6D310BD002148
:1025500001E0072904D0421812790AB1002070471F
:10256000491CC9B20E29F4D3012070472DE9F84364
:10257000524DDFF84C8102246A780326B8F8041023
:10258000D8F800002746062A26D2DFE802F0031911
:102590002634597D102002F0A0FB042002F09DFBA0
:1025A000002002F09AFB464800224FF4C871143014
:1025B00005F0FEFF4248143006F004F801200AE05E
:1025C0003F48143005F0E9FF002874D03C4814302F
:1025D00005F0EAFF022068706DE00021642002F03F
:1025E00055FC0023012204211020009602F079FB03
:1025F0006878401CEFE7D9B1017832A005F078FF88
:1026000036A005F075FFD8F800000078810713D5D3
:10261000400711D568780021401C6870642002F0E2
:1026200035FC0422002311461020009602F059FBCD
:1026300098F8100000283ED06C700020BDE8F883A8
:10264000C1B1017826A005F053FF24A005F050FF8A
:10265000D8F8000001781E2903D027A005F048FF14
:102660000EE02EA005F044FF1CA005F041FF6C70A9
:102670000120E3E798F81000E8B12FA005F038FF3B
:1026800016A005F035FFD7E70023302205211B20D7
:10269000009602F026FB0023302272211B200096B8
:1026A00002F01FFB0023302273211B20009602F052
:1026B00018FB6C7001273846C0E70000D3000020EB
:1026C000CC2400203E3130203034203031202020F6
:1026D0003D3D3E3078253032640000000D0A000098
:1026E0003E31302030342030342020203D3D3E30FB
:1026F00078253032640000003EB7B5BBD8D6BDB5F2
:10270000C4D7B4CCAC312020203D3D3E307831459B
:102710002065727220253032580000003EB7B5BBEC
:10272000D8D6BDB5C4D7B4CCAC2020203D3D3E307A
:10273000783145206F6B00003EB7B5BBD8D6BDB52C
:10274000C4D7B4CCAC322020203D3D3E307831455A
:102750002065727200000000810008480844D0F82B
:10276000001C490409D5D0F8001C48F68F721140AE
:102770004CF280021143C0F8001C7047005000402A
:10278000810008480844D0F8001C490609D5D0F853
:10279000001C48F68F72114048F2C0021143C0F885
:1027A000001C704700500040810006480844D0F8E3
:1027B000001C48F68F62114048F280021143C0F8B5
:1027C000001C704700500040F0B507460020054649
:1027D0004AF201060FE06B18FC5C002384EA000C4F
:1027E0005FEACC7C0AD086EA50005B1C6408DBB24E
:1027F000082BF3D36D1C9542EDDBF0BD4008F4E7E8
:10280000174910B50A68918841BB062804D1117890
:1028100001F07F01012905D0117801F07F01212904
:102820000AD01BE09078222802D0212802D015E09F
:102830000C490CE00C490AE0032802D009280DD10C
:1028400001E00A4903E00B4B09490920187029B13E
:102850000020916150828847002010BD022010BDE9
:10286000DC000020B9280008912800089D280008F5
:102870000D2A00084C010020014903F0E1B90000D5
:102880005C010020014903F0DBB900005401002085
:10289000014903F0D5B900006C01002008B10448DB
:1028A0007047044901200968088200207047000031
:1028B00050010020DC000020014903F0C1B90000F4
:1028C0006401002005490968C978042901D900205C
:1028D0007047034A02EBC10103F0B2B9DC000020EB
:1028E000A401002009B9002800D002207047000090
:1028F00006490968097801F07F01212901D10B28D7
:1029000001D00220704700F075B80000DC00002004
:10291000274810B5006800218172C1722549C97924
:102920004172002002F082FF4FF40071002003F09A
:102930004BF81021002003F01DF84021002002F088
:10294000A1FF8021002002F0F7FF0020FFF72CFFFD
:10295000194890F82C10002002F0A4FF002002F08B
:10296000D9FF4FF4C061012003F02EF84FF48071BD
:10297000012002F0E1FF4FF4A071012002F082FF7C
:102980004021012002F0E8FF4021012002F08AFFEF
:102990004FF44051012002F0A5FF2021012002F058
:1029A000E9FF002002F04AFF04490120086010BD41
:1029B000DC000020FC8B000874010020EC010020EA
:1029C00006480068807A002806D00549052008607E
:1029D000044942F21070088070470000DC000020BB
:1029E000EC0100200200002001490420086070472B
:1029F000EC010020034804490068C07848600020CA
:102A000070470000DC0000204C01002008B10448A1
:102A10007047044940200968088200207047000080
:102A20005C250020DC0000207047704710B501F0E5
:102A300083FD064900200968887202F091F903F0CD
:102A400029FF03490220086010BD0000DC000020BF
:102A5000EC0100207047000010B5202000F062F863
:102A6000012808D10021044800F050F8BDE81040CA
:102A7000202000F03FB810BD1C00024010B54FF4FC
:102A80000074204600F04EF8012808D100210448C7
:102A900000F03CF82046BDE8104000F02BB810BD17
:102AA0003000024010B54FF40054204600F03AF8D0
:102AB000012808D10021044800F028F82046BDE88C
:102AC000104000F017B810BD4400024010B54FF49C
:102AD0000034204600F026F8012808D100210448DF
:102AE00000F014F82046BDE8104000F003B810BD17
:102AF00058000240C10002D50249086070470249EF
:102B00004860704704040240000002400029016848
:102B100002D041F0010102E04FF6FE721140016067
:102B20007047000002460020D10001D5034900E0B3
:102B300003490968114200D0012070470004024097
:102B4000000002402DE9F047DFF89490254F4FF048
:102B50003008D9F8001001F11005088A0E7A08B97A
:102B6000042E04D0AC88A04214D8042613E01E48DA
:102B7000017859B11D4A002112681D4B120403EB64
:102B8000D2325160A7F80080017023E007261020A0
:102B900038801FE00226844200D90446A9682046F6
:102BA00088478246002001F04DFC014622465046EF
:102BB00003F038FF2146002002F0CEFE2888001BDB
:102BC0002880688820446880A7F8008009494FF46D
:102BD00040500880D9F800000672BDE8F087000078
:102BE000DC000020EC000020D6000020505C0040FB
:102BF00000600040EA0000202DE9F047224EDFF897
:102C00008C803027346834F8100FA168A9B100B364
:102C1000A588854200D905462846884781462088F0
:102C2000401B2080608828446080002001F0EAFB7F
:102C300001462A46484602F03FF8208848B1144928
:102C40004FF4405008800021084602F085FEA8F8A5
:102C500000702088A188884201D3032001E020B1C0
:102C6000052031680872BDE8F087316806200872D7
:102C7000084900200968084A090402EBD13148607C
:102C8000A8F80070EFE70000DC000020EC00002056
:102C9000EA000020505C004000600040F8B55D4C48
:102CA0005D4D09262068002729684278062A05D04C
:102CB000AAB1082A4DD00A2A50D06BE002785206F9
:102CC00068D18078012804D0022804D0032804D0D9
:102CD00060E0C96956E0096A54E0496A52E04288F6
:102CE000B2BBC288022A55D102798ABB0278530648
:102CF00001D1838833B102F07F02012A04D0022A75
:102D00000CD047E045493DE08A6940790021904771
:102D1000F0B92068807A0028F4D13BE0417901F0D5
:102D20000F0001F070020B063D4901EB8001D1F864
:102D3000001C03D5C1F30111090102E0C1F3013107
:102D40000903384B1B78834224D90AB90029D9D109
:102D500020E0007840061DD1334913E0027802F0EC
:102D60007F02012A16D1827AA2B1428892B90279F1
:102D700082B9C288012A0DD18A6940790021904721
:102D800040B92A4931B120684782816100208847D3
:102D9000002006E0296820680969407888470328F0
:102DA00013D021680A8AA2F57F43FF3B0BD002288B
:102DB0000ED06AB10878000626D5C88800908242F5
:102DC0000AD9088218E00E72F8BD20680672F8BDB4
:102DD0004FF008000872F8BD0ED22868144B90F826
:102DE0002C00824201D21F7006E0B2FBF0F400FB1F
:102DF000142008B901201870286890F82C008882E7
:102E0000BDE8F840FFF79EBE0320087209490003A1
:102E10000880F8BDDC000020E0000020855C000890
:102E200000500040C4010020195C00085D5C0008EF
:102E3000D6000020EA0000202DE9F35F044602F0EE
:102E400067FB504D40B1687802F058FB0146E27ACA
:102E50004DA005F04DFB03E0E17A50A005F048FBE2
:102E60004848E17A801C017020460199FFF76FFB0A
:102E7000DFF83891012690B3DFF8088199F8000057
:102E80004F4608F1180858B3DFF824A14FF0500B53
:102E900006280ED0052819D0E17A60292FD05029B4
:102EA0002DD0042802D860F31F11E17288F8046065
:102EB0003DE0FFF793FA0746062807D0E07A60283E
:102EC0000FD050280DD067F31F1014E0FDF730F934
:102ED00000EA0A00012810D084F80BB0E6E72EE0E3
:102EE0001BE0FDF725F90D2190FBF1F201FB12002B
:102EF000401C40EA0710E072D8E76020FBE7042896
:102F0000D4D8FDF715F90D2190FBF1F201FB120069
:102F10003978401C40EA0110EDE702F0F9FA18B1E7
:102F2000687802F0EBFAE6E798F8040070B1204602
:102F3000019904F0E7FC13480A38067106E002F034
:102F4000E7FA18B1E17A687802F04FFCE17A19A04B
:102F500005F0CEFA1AA005F0CBFA002189F800108E
:102F6000287802F048FC687802F03BFCE17A687847
:102F700002F03BFC0348E17A801C41700C3846703B
:102F8000BDE8FC9F06020020D2D1B2B9B5A520252C
:102F9000303258202530325820000000CEB4B2B96B
:102FA000B5A520253032582000000000CC000020BC
:102FB000010000802025303258200D0A000000005A
:102FC0000D0A00002DE9F35F044602F094FA8346EF
:102FD00002F09BFA05464FF0000846465EA005F059
:102FE00087FA60A005F084FA02F092FAC8B120795D
:102FF000A84251D100252F464FF00A0B7F1C05F146
:10300000010AFFB20AF0FF0002F078FA8146014699
:1030100055A005F06DFAB7FBFBF10BFB117060B327
:103020002EE0BBF1000F37D02079A84234D1002523
:103030002F461FE07F1C05F1010AFFB20AF0FF00D6
:1030400002F05CFA8146014647A005F051FA0A20D9
:10305000B7FBF0F100FB117010B942A005F048FA7F
:10306000601942794A4503D080F805904FF0010875
:103070000AF0FF055D45DDD30EE03AA005F038FA11
:10308000601942794A4503D080F805904FF0010855
:103090000AF0FF05642DB1D332A005F029FA2EA065
:1030A00005F026FA2FA005F023FA4FF00109B8F138
:1030B000000F0CD02EA005F01BFA2AA005F018FA7C
:1030C0002046019904F01EFC2C4981F804902179D6
:1030D0002BA005F00DFA23A005F00AFA1EA005F0BA
:1030E00007FA20A005F004FA244F002542374FF0DC
:1030F0000A08761C6019F6B2417908090AD004283A
:1031000004D807EB800050F8041C0DE006280AD014
:10311000052808D014A005F0EBF9B6FBF8F108FB80
:10312000116018B105E0396918A0F4E70DA005F0A9
:10313000DFF96D1CEDB2642DDBD30AA005F0D8F9E0
:1031400013A005F0D5F907A005F0D2F90B490E3907
:1031500081F80490BDE8FC9F3E3E3E3E3E3E3E3E32
:103160003E3E00000D0A00002530325820000000CD
:10317000413020D6D8D0C2D0A3D1E9000A02002025
:103180003EB5DA2564C2D6C2B7B5A50025732000C6
:103190003C3C3C3C3C3C3C3C3C0000002DE9F043CA
:1031A00005790446A5F10A008DB089461D2846D848
:1031B000284602F0B0F98046611D02A804F0E9F843
:1031C000204F07F10C06B87868B1317870788142E9
:1031D00009D0019006980DF1080C00909CE80F00B2
:1031E000FFF7BEF80390184905EB850001EB80005E
:1031F000142202A9FCF7AEFFB8F1000F03D130781A
:10320000717888421BD04146029803F0CAF80290B8
:10321000142202A907A8FCF79DFF601D01900698E3
:1032200002AD009095E80F0004F00EFC49462046E0
:1032300004F068FB034901201331087138710DB0A7
:10324000BDE8F083FC010020E42500202DE9F047D3
:1032500006790446A6F10A008CB08A461D2859D882
:10326000304602F058F90546611D02A804F091F8B5
:103270002A481DB90178427891424BD0274FDDF89A
:103280000C800C3FB97869B101784078814209D04F
:10329000019006980090DDE9042341460298FFF76B
:1032A0005FF803902946029803F07BF80290F878C3
:1032B0004FF0010960B987F8039003992846A8EBFD
:1032C0000101FFF739F805460146304602F09BFA46
:1032D00045B12B461A46314611A005F009F917A051
:1032E00005F006F9601D0190069802AD009095E882
:1032F0000F0004F0A9FB5146204604F003FB0749E8
:1033000014220C3107A881F8049087F8049002A9D0
:10331000FCF720FF0CB0BDE8F08700000802002099
:103320003EB7D6BBFA2025642020B2EED6B52025C4
:103330006C7520203078252D385800000D0A0000CB
:1033400070B5134A00215170114902790A310A708F
:103350004079487001280BD1002002F050FA002477
:10336000641CE0B2002102F040FAE4B2642CF7D30E
:10337000084D002404EB840005EB8000142206496C
:10338000FCF7E8FE641CE4B2282CF3D370BD000007
:10339000FC010020E4250020908C0008704700000C
:1033A00070B5012417490B280BD2DFE800F00A069C
:1033B0000B0D0F111315170A1A0000F0C5FF124864
:1033C000047070BD00200AE0062008E00C7070BD9B
:1033D000022004E0032002E0042000E00520087041
:1033E00070BD0A4D00240021204602F00CFA204650
:1033F00002F091F845F82400641CE4B2282CF2D3C2
:1034000070BD0000CC000020010200200429002033
:1034100001490120087070470000002010B592B0EB
:10342000012000F0FFFFC4B222464FF4A0710E4805
:1034300001F042FC012002F06DFA402C11D248212B
:103440006846FCF7A0FE8DF80040224606490DF1C3
:103450000100FCF77FFE641CE2B26946034802F0FB
:1034600011FF12B010BD00001C250020D018002054
:1034700070470000014908607047000014040140D3
:1034800070B50D4D04461021284600F04DFA03207A
:1034900002F07EF9C4F3072002F07AF9E0B202F0FC
:1034A00077F9FF2002F074F904461021284600F055
:1034B0003DFA204670BD00000008014010B50446EA
:1034C00000F004F82046FFF7DBFF10BD70B50D4695
:1034D000044600F01FF80020401C80B26428FBD393
:1034E0000B4E1021304600F01FFA022002F050F976
:1034F000C4F3072002F04CF9E0B202F049F9284683
:1035000002F046F93046BDE87040102100F00EBAD6
:103510000008014010B5074C1021204600F004FAC5
:10352000062002F035F92046BDE81040102100F0D9
:10353000FDB90000000801402DE9F04115460E4696
:103540000746002405E03819FFF79AFF3055641C40
:10355000E4B2AC42F7D3BDE8F0812DE9F041154665
:103560000E460746002405E0315D3819FFF7AEFF2F
:10357000641CE4B2AC42F7D3BDE8F0812DE9F0471A
:1035800080464FF496713F48FCF7FDFD3E4D3D4EA1
:1035900008244FF04B0905F11007B8F10B0F49D281
:1035A000DFE808F048060E17232F3B4A5248610017
:1035B00036A004F09DFF3CA004F09AFF3BA01BE066
:1035C0003DA004F095FF38A004F092FF092243A12A
:1035D0001FE045A004F08CFF33A004F089FF49A050
:1035E000016831608088B08049E048A004F080FF25
:1035F0002DA004F07DFF4DA0D0E90010C6E9001019
:103600003DE04DA004F074FF27A004F071FF0922F3
:1036100051A11C48FCF79EFD31E052A004F068FF68
:1036200021A004F065FF57A0016831608088B08058
:1036300086F80690BDE8F08754A004F059FF1AA060
:1036400004F056FF59A0D7E75BA004F051FF16A085
:1036500004F04EFF5FA138680A68026089888180A3
:1036600080F806900BE05DA004F042FF0EA004F08D
:103670003FFF62A138680A680260496841606C7067
:10368000D8E7000058220020880000203ED5FDD455
:10369000DAB4A6C0EDB6CCD0C520B2B9B5A52050DD
:1036A00052494E54200000000D0A00005052494E6D
:1036B000542D4F4B000000003ED5FDD4DAB4A6C017
:1036C000EDB6CCD0C520C8A1CFFBCBF9D3D0B2D9B1
:1036D000D7F72043414E43454C20000043414E4321
:1036E000454C2D4F4B0000003ED5FDD4DAB4A6C0AA
:1036F000EDB6CCD0C520B3D4B4F3C5E2D0A12045FB
:10370000415420004541542D4F4B00003ED5FDD47F
:10371000DAB4A6C0EDB6CCD0C520B1BEBED6BADAFA
:10372000CCD2205350414445200000005350414426
:10373000452D4F4B000000003ED5FDD4DAB4A6C0A5
:10374000EDB6CCD0C520B1BEBED6BAECCCD22048A6
:1037500045415254532000004845415254532D4F87
:103760004B0000003ED5FDD4DAB4A6C0EDB6CCD0F7
:10377000C520B1BEBED6C3B7BBA820434C5542201E
:1037800000000000434C55422D4F4B003ED5FDD468
:10379000DAB4A6C0EDB6CCD0C520B1BEBED6B7BD9A
:1037A000BFE920424C4F434B20000000424C4F43A6
:1037B0004B2D4F4B000000003ED5FDD4DAB4A6C01F
:1037C000EDB6CCD0C520B1BEBED6CDF52048494E11
:1037D0004720000048494E472D4F4B003ED5FDD4B1
:1037E000DAB4A6C0EDB6CCD0C520C7E5B3FDB2EEC5
:1037F000D6B520434C45415220000000434C454182
:10380000522D4F4B0000000008B50121102001F09F
:103810000DFE4FF40070ADF8000003208DF802009B
:1038200010208DF803006946014800F003F808BD38
:1038300000100140F0B5CC78002204F00F03E4063C
:1038400001D58C7823430C784FF00F0C14F0FF0F48
:103850004FF0010E1BD005680E880EFA02F42640C8
:10386000A64210D196000CFA06F725EA070703FADC
:1038700006F5CE783D43282E02D0482E02D002E035
:10388000446100E00461521C082AE5D305600A88FF
:10389000FF2A1CD94468002202F108060EFA06F538
:1038A0000E882E40AE420ED196000CFA06F7BC43AD
:1038B00003FA06F7CE783C43282E00D14561CE7836
:1038C000482E00D10561521C082AE5D34460F0BDA2
:1038D000F0B5144C002801DAE36900E06368450D97
:1038E0002E0185B2C0F30157B540C0F30342032F48
:1038F00005D0C6020AD503269640B34307E023F05D
:103900007062636823F07063636002E0AB4343F06E
:10391000706201B12A43002801DAE261F0BD626001
:10392000F0BD000000000140416170470161704737
:103930002DE9F041124D06460124A87810B1012866
:103940001BD108E00A460FA14FF4FA7000F0E4F929
:103950000120A87011E03046FCF72CFC0A4F01460C
:103960003046BB883A6801F062F9002108B10324AF
:10397000A970B87C08B10224A9702046BDE8F08186
:103980008800002025730000A02300202DE9F041CD
:10399000164D02460124E87810B1012823D107E032
:1039A00013A14FF4FA7000F0B7F90120E8701AE0A3
:1039B000134E022113A0B388326801F038F90027B2
:1039C00020B1B188306803244754EF70B3880521D3
:1039D0000DA0326801F02BF908B10224EF70B07C21
:1039E00008B10224EF702046BDE8F0818800002075
:1039F00041542B434D47523D25640D0A0000000001
:103A0000A02300204F4B00004552524F52000000AF
:103A10002DE9F041814C824F0026607807F11805AE
:103A200005287BD006DC052811D2DFE800F012174C
:103A3000212B430006287BD008287AD0092806D1FC
:103A4000387800F011F902281AD0032818D0BDE800
:103A5000F08103F05FFD032827D0F8E700F00CFDAC
:103A60000328F4D120780128F1D102206070EEE71C
:103A70006CA16FA0FFF75CFF032816D00228E6D1E7
:103A80006670E4E76BA16AA0FFF752FF032805D038
:103A90000228DCD1A8880028F2D0D8E7AB8805211D
:103AA00067A02A6801F0C3F810B16078401CDDE718
:103AB0000120DBE7A079FFF769FF0526032816D070
:103AC0000228C4D1A0790022B0FBF6F106FB110058
:103AD000401CA0710620607051486421F43004F04D
:103AE00067FDBDE8F0414E48F43004F06BBDA98895
:103AF000322904D9A0793880286800F01DFBA0790C
:103B0000B0FBF6F106FB1100401CA0716670BDE829
:103B1000F0414DA14FF47A7000F0FEB8AB8802215D
:103B200043A02A6801F083F880B3AB88062101E046
:103B30005DE068E048A02A6801F079F8060015D039
:103B40002988A888711A401A87B27B1E721C062128
:103B500041A001F06CF810B1801B81B203E0062F88
:103B600004D9BF1FB9B2304600F0F0F960780528DB
:103B70000CD12B4800226421F43004F019FD2848B0
:103B8000F43004F01FFD6078401C6070A87C0028B1
:103B90003FF463AFAB8806212FA02A6801F047F8F5
:103BA000060015D02988A888711A401A85B26B1EA4
:103BB000721C062128A001F03AF810B1801B81B2D6
:103BC00003E0062D04D9AD1FA9B2304600F0BEF9BE
:103BD000607805287FF441AF114800226421F43059
:103BE00004F0E6FC0E48F43004F0ECFC5DE70C4811
:103BF000F43004F0D2FC0028CAD00948F43004F0B4
:103C0000D3FC032032E71648FCF7D4FA81B21548FA
:103C100000F09CF80328DDD1092027E78800002068
:103C20008823002041542B434D47463D310D0A0067
:103C30004F4B000041542B434D474C3D3F0D0A0074
:103C400022414C4C2200000041542B434D474C3D37
:103C5000414C4C0D0A0000002B434D474C3A0000EC
:103C60004D3D0008582200202DE9F0411A4D8046B4
:103C70000124287910B101282BD10DE003F04AFC72
:103C8000032826D128794246401C287113A14FF4FD
:103C9000FA7000F041F81CE0144E022114A0B38821
:103CA000326800F0C4FF002740B103242F71414661
:103CB00010A004F01DFC13A004F01AFCB07C40B16D
:103CC00002242F71414610A004F012FC0DA004F054
:103CD0000FFC2046BDE8F0818800002041542B43B2
:103CE0004D47443D25640D0A00000000A02300203C
:103CF0004F4B00003EC9BEB3FD2564B6CCD0C5B362
:103D0000C9B9A6000D0A00003EC9BEB3FD2564B6C0
:103D1000CCD0C5CAA7B0DC000FB4642130B599B0CF
:103D200005461EAB68461D9A02F0A4FE6846FCF7E5
:103D300041FA84B2284600F04DFF2146684600F063
:103D400069FF19B030BC5DF814FB00002DE9F047A5
:103D5000564C574F8146607901250026BB883A684A
:103D60008A464FF4FA78062877D2DFE800F0030895
:103D7000243C53774FA14046FFF7CEFF6AE0B87C62
:103D800008B10225667102214DA000F050FF40B13C
:103D900060794CA1401C6071D4E902234046FFF7D2
:103DA000BBFFBB8805214CA03A6800F040FF00280B
:103DB00079D0022576E0012149A000F038FF40B11A
:103DC00048A004F095FB4DA004F092FB6079401CE4
:103DD0006071B87C002866D049A004F089FB47A038
:103DE00004F086FBE5E74FF4FA6000F0F3FE484686
:103DF000FCF7E0F901464A4647A004F079FB3FA0F2
:103E000004F076FB4846FCF7D5F981B2484600F04D
:103E100001FF1FE04846FCF7CDF90146BB88484644
:103E20003A6800F004FF20B9B87C10B9B988514550
:103E300039D3B988386846543BA0396804F058FB38
:103E40002EA004F055FB42F2107000F0C3FE1A20C1
:103E500000F0DCFE6079401C607124E0052135A093
:103E600000F0E5FE38B10325667134A004F040FB94
:103E700022A004F03DFBBB88052117A03A6800F0A2
:103E8000D6FE38B1032566712CA004F031FB1BA0CF
:103E900004F02EFBB87C30B1B98838684654002055
:103EA00000F098FE66712846BDE8F0878800002083
:103EB000A023002041542B434D47533D3F0D0A00A2
:103EC0004F4B000041542B434D47533D22256C6C12
:103ED00075220D0A000000004552524F52000000AA
:103EE0003E0000003EB7A2CBCDB6CCD0C5C9E8D6C7
:103EF000C3B5E7BBB020204F4B0000000D0A000007
:103F00003EB7A2CBCDB6CCD0C5C9E8D6C3B5E7BBCA
:103F1000B0204572720000003E6C656E202564C4BE
:103F2000DAC8DD25730000003E3E31C4DAC8DD2565
:103F3000730000002B434D47530000003EB7A2CB57
:103F4000CDB6CCD0C5B3C9B9A60000002DE9F04765
:103F50009CB0064600208846ADF86800142110A8E1
:103F6000FCF711F9142115A8FCF70DF910AD15ABEC
:103F70001AAA58A130460095FCF724F9C0B20328CC
:103F800071D19DF840002B280DD1E81CFCF712F9E7
:103F9000C4B22246E91C10A8FCF7DCF8C4F11401F5
:103FA0002819FCF7F0F8524FBDF86800142138804A
:103FB00010A801F051FFC7E90201CDE900013988DD
:103FC00010AA4CA004F094FA55A004F091FA08F05D
:103FD000FF01304600F096FA050069D0A91BA8EB56
:103FE000010082B23D61BA8229784E4E002456F813
:103FF00024000378994208D16B7890F801C063459A
:1040000003D1AB788078834203D0641CE4B20B2CDC
:10401000EDD3002001E0401CC0B28242FBD8B9467B
:104020002946002002F0EAFC3E4F4FF0090A183FF3
:10403000D4B10B2C4AD200F0C1FD4D46D5E9021097
:10404000D7E9022351405840014331D156F82400AA
:10405000FCF7B0F80146AB8A56F824002A6900F054
:10406000E6FD58B32BE023E099F81410284601F040
:10407000F3FE2D4A821A71F102021CD3C7E9020134
:1040800001F0A1FB40216846FCF77DF8D7E9022347
:1040900026A1684602F0DAFC4FF496712548FCF739
:1040A00072F8424669462348FCF754F808207870B5
:1040B0001CB0BDE8F08787F801A0F9E70B24204683
:1040C000FFF75CFA2046FFF76BF9F1E700F076FDA9
:1040D000F1E700002B434D474C3A2025642C222564
:1040E0005B5E225D222C22255B5E225D222C2C0051
:1040F000882300203EB1BED0C5CFA2204944203D38
:104100002025642020CAD6BBFABAC5CEAA257320C2
:10411000206E756D4265723D256C6C750000000067
:104120000D0A0000A000002000E40B544F4B256C4A
:104130006C750000582200202DE9F0439BB00C461E
:104140000646142110A8FCF71EF8142115A8FCF748
:104150001AF810AB15AA5CA13046FCF733F8C0B2D0
:1041600002287DD19DF840002B280ED110AFF81CFD
:10417000FCF720F8C5B22A46F91C10A8FBF7EAFFA5
:10418000C5F114017819FBF7FEFF142110A801F006
:1041900063FE544F10AAC7E90201CDE90001398836
:1041A00051A004F0A5F95AA004F0A2F9E1B23046FA
:1041B00000F0A8F9050074D0A81B201A82B23D6156
:1041C000BA822978534E002456F824000378994285
:1041D00008D16B7890F801C0634503D1AB78807843
:1041E000834203D0641CE4B20B2CEDD3002001E029
:1041F000401CC0B28242FBD8B8462946002002F0DB
:10420000FDFB444F4FF00909183FCCB10B2C57D29E
:1042100000F0D4FC4546D5E90201D7E9022350401D
:10422000594008433DD156F82400FBF7C3FF01462F
:10423000AB8A56F824002A6900F0F9FCA0B338E0F4
:1042400098F81410284601F007FE334A821A71F1DB
:1042500002022AD3C7E9020101F0B5FA402100E0C9
:104260001FE06846FBF78FFFD7E902232BA16846C2
:1042700002F0ECFB4FF496712A48FBF784FF684686
:10428000FBF798FF024669462648FBF763FFD7E92C
:10429000022325A004F02CF91DA004F029F9082020
:1042A00078701BB0BDE8F08302E087F80190F8E772
:1042B0000B242046FFF762F92046FFF771F8F0E77C
:1042C00000F07CFCF1E700002B434D47523A2022DE
:1042D000255B5E225D222C22255B5E225D222C2C3A
:1042E0000000000088230020B1BED0C5CFA2204925
:1042F00044203D2025642020CAD6BBFABAC5CEAAE8
:10430000257320206E756D4265723D256C6C7500BD
:104310000D0A0000A000002000E40B544F4B256C58
:104320006C75000058220020D5FDD4DAB4A6C0ED8B
:1043300020C9E8D6C3B5E7BBB0B9DCC0EDD4B12025
:10434000256C6C75000000002DE9F04101F0E0F8EB
:1043500000283CD11FA004F0CBF821A004F0C8F83D
:10436000204841780A30407801B1401C0626C4B28A
:104370000D271FE0FBF7DCFE90FBF6F106FB1100BA
:10438000401CC0B201070D0E042808D8FBF7D0FE70
:1043900090FBF7F107FB1100401C2843C5B22A46E9
:1043A000214611A004F0A4F82946204601F01DFA88
:1043B000641CE4B2642CDDD90FA004F099F808A0C5
:1043C00004F096F8BDE8F041012001F018BABDE80C
:1043D000F0810000C2B7B5A5BDE1B9FB313A0000DC
:1043E0000D0A0000FC010020253032643A307825A7
:1043F0003032582000000000C2B7B5A5BDE1B9FBBE
:10440000320000000549096889B201EBC000044987
:1044100001EB4000008980B270470000505C004012
:10442000006000400549096889B201EBC0000449F9
:1044300001EB40008089C0F309007047505C0040E8
:10444000006000400449096889B201EBC0000349DB
:1044500031F8100080B27047505C004000600040AE
:10446000044901EB8000D0F8000CC0F301100001FA
:1044700070470000005000407CB516A118A0FFF75F
:1044800057FA0446032823D100251648ADF80050FA
:10449000ADF8045003890268052113A000F0C7FBA2
:1044A000B0B101AB6A4612A1FBF78CFEC0B2022884
:1044B0000ED1BDF804001249632808D1BDF80000F0
:1044C0000A2804D3202802D80120087000E00D70CB
:1044D00020467CBD41542B4353510D0A000000007F
:1044E0004F4B0000A02300202B4353513A00000003
:1044F0002B4353513A2025642C20256400000000F2
:104500008800002030B50C4605460B4602460221C5
:1045100007A000F08CFB48B1411B631AC21C0121AB
:1045200004A000F084FB08B1C01C30BD002030BDE9
:104530002C2C0000220000000A4810B50168001D64
:104540000468001D006808180BD00822064900F016
:1045500025F9054920460422BDE81040103100F03D
:104560001DB910BDE8F7FF1FF00000202DE9FF4F37
:1045700091B08846824607784578002640216846F3
:10458000FBF701FE0024A146A346694643E0052F40
:1045900037D2DFE807F003091A232D0018F80600C8
:1045A00049282ED101270EE018F80600432801D033
:1045B000002726E049200855641CE0B243220A5433
:1045C000401CC4B2022700251BE018F8060008555D
:1045D000421C641CD5B2E4B2032712E00DB16D1E7B
:1045E000EDB218F806000855641CE4B2042708E090
:1045F0000DB16D1EEDB218F806000855641CE4B24A
:104600001DB1B9F1000F09D103E000274FF00109F6
:1046100004E0761CF6B213988642B8D3224614986A
:10462000FBF798FD1E980470584666F3070024B106
:10463000B9F1000F04D0012103E06BF30F2002E079
:10464000022161F30F208AF800708AF8015015B03A
:10465000BDE8F08F30B591B00C4605464021684664
:10466000FBF791FD0F480068052819D14121B4FBE3
:10467000F1F001FB104229466846FBF76BFD012073
:10468000FFF7EEFE3028FAD040229100684602F093
:10469000C9F93C21012001F05FF9012001F082F904
:1046A00011B030BDEC0100202DE9F0411A4D074654
:1046B0000024287802282CD10026287C012812D03A
:1046C000287D012825D100233C223946FCF7C8FD6E
:1046D000014614281DD0641CE4B20A2C12D26420B6
:1046E00003F026FAE9E7012000233C223946FCF7D3
:1046F000B7FD014614280CD0641CE4B2032CDCD3B3
:1047000006A000E009A003F0F3FE0CA003F0F0FE09
:104710002E70BDE8F0810000BC2500207472616E2F
:104720007320457272312025303258007472616EE8
:104730007320457272322025303258000D0A000075
:1047400010B5134C2068017A022904D0042902D044
:10475000062905D015E0FEF7F5F92068007A11E08A
:104760004178052909D10178490606D1C07801F0C0
:1047700065F808480068006A804707480068806854
:104780008047082021680872BDE8104000F0C6BAD2
:10479000DC000020E4000020E0000020F0B5002351
:1047A0000A24302537261F4610E0B4EB107F02D9CB
:1047B00005EB107C01E006EB107C01F813C001EB67
:1047C000430C00015B1C8CF80170DBB29342ECD30C
:1047D000F0BD00002DE9F0415D480024D0F824111F
:1047E0005C4F3A7861F341023A70D0F80C01797865
:1047F00060F3410158487970D0F83011BA7861F30C
:104800004102BA70D0F82C01F978002560F341011B
:10481000F9700126781903F013FD785D000703D5C0
:1048200006FA05F02043C4B26D1CEDB2042DF1D39D
:10483000484DED1E687808B1401E687000210A20BE
:10484000032C10D0052C18D0092C28D0072C31D0DF
:104850000D2C39D0022C41D0082C49D0042C50D03A
:104860000F2C5AD05BE06A78002A58D12E706870FD
:10487000A878002811D139A009E06A78002A4ED121
:10488000022129706870A878002806D137A003F0AB
:104890002FFE3AA003F02CFEAE70BDE8F0816A78DE
:1048A000002A3CD1032129706870A8780028F4D12F
:1048B00033A0ECE76A787ABB042129706870A87885
:1048C0000028EAD132A0E2E76A782ABB05212970E4
:1048D0006870A8780028E0D131A0D8E76A78DAB902
:1048E000062129706870A8780028D6D130A0CEE7BC
:1048F0006A788AB929706870A8780028CDD130A06C
:10490000C5E7687840B9A8780028C6D13048067055
:10491000FFF71AFD2FA0BAE701E0687820B16878A8
:104920000443BAD1A970B8E7A8780028B5D12D4FB3
:1049300000240021204600F066FF204600F0EBFD39
:1049400047F82400641CE4B2282CF2D326A09EE78A
:1049500000802142CF000020000022423EB1BEBEB6
:10496000D620202020BADACCD20000003EB1BEBE54
:10497000D620202020BAECCCD20000000D0A000086
:104980003EB1BEBED620202020C3B7BBA800000089
:104990003EB1BEBED620202020B7BDBFE90000003A
:1049A0003EB1BEBED620202020CDF5202000000044
:1049B0003EB1BEBED6B3D4B4F3C5E3D0A10000006F
:1049C0003ED2A1BFD820202020C8A1CFFB000000EC
:1049D00001020020C9FAB3C9B2B9B5A5BDE1B9FB5E
:1049E0002000000004290020B2EED6B5CDACB2BD47
:1049F00020000000054900200A5C42F001020A5430
:104A0000401CC0B20428F7D370470000CF0000203C
:104A10000748817A074831B105210160064942F211
:104A20001070088001E00121016001F0ADBA0000C2
:104A300000250020EC01002002000020FEE7704766
:104A40007047000030B50F23C27801780125F2B11C
:104A5000144A126801F1E02102F4E062C2F5E0625A
:104A6000120AC2F10404D3404278A24084781C4068
:104A70001443220181F80024007800F01F018D40CA
:104A80004009800000F1E020C0F8005130BD01F085
:104A90001F0085404809800000F1E020C0F88051E7
:104AA00030BD00000CED00E00249084302490860F7
:104AB000704700000000FA050CED00E070B52F4DC6
:104AC000296808784C78420606D000F07F0001285B
:104AD00028D002282BD035E0092C06D0052C07D091
:104AE000032C0ED0012C14D02CE001F015F928E095
:104AF000C8787F282ED8887860BB888850BB887A91
:104B000027E0C87801281DD18888D8B901F020F99C
:104B100017E0C878012815D1888898B9487A8006A6
:104B20000AD40FE00B2C0DD101F068F909E0012C3B
:104B300002D0032C03D005E000F0F0FF01E001F00B
:104B400019F958B10E492046096849698847032870
:104B500002D018B108200DE009200BE0094A062018
:104B600000211268084B120403EBD2325160074A4D
:104B7000302111802968087270BD0000DC0000201F
:104B8000E0000020505C004000600040EC0000208D
:104B900009490122888928B1401E80B288810128F4
:104BA00000D18A74088A002805D0401E80B208828D
:104BB000012800D18A747047A023002004490020F6
:104BC0000A6802B108608874088188807047000014
:104BD000A023002070B50C4C06460025206800B1CB
:104BE00025600948A1881430FBF7CDFA0648143037
:104BF0002060C8202081A580E5806581A57426827B
:104C0000E581A581002070BDA0230020014602207F
:104C100001F0DEBE70B50C46054604E015F8011B38
:104C2000022001F0D5FE641EA4B2F7D270BDF0B52B
:104C300007001BD0D2B1994218D8002614E00024F6
:104C40002546901901E0641C6D1C8C4209D017F8B0
:104C500004C010F805E0F44503D106EB050C9C45B3
:104C6000F1D38C4203D0761C9E42E8D30020F0BDE5
:104C700010B50F4C2068007A022811D004280FD0FC
:104C8000032804D0052802D0072805D008E0FDF746
:104C9000B3FF2068007A04E006480068C0688047D7
:104CA000082021680872BDE8104000F037B8000005
:104CB000DC000020E0000020064B521C520803EBF1
:104CC000410105D031F8043B20F8023B521EF9D1D6
:104CD000704700000060004070470146012001F06D
:104CE00077BE2DE9F0411D46069C16460F46002C66
:104CF00012D0FFF7F2FF022C02D33846FFF7EDFF88
:104D0000032C02D33046FFF7E8FF042C04D32846D7
:104D1000BDE8F041FFF7E1BFBDE8F0810C4810B5F8
:104D200090F82C10002000F0BDFD0A480068007AC1
:104D3000082802D0092809D006E007494FF480501E
:104D40000880064910200880002010BD012010BDF9
:104D500074010020DC000020EA000020EC000020AC
:104D600010B5012001F0AAFC0648012101600021D4
:104D7000054A0160031D19604FF4E0511180016084
:104D8000002010BD405C0040E80000200FB464210A
:104D90002DE9F0419AB0804622AB01A8219A01F09A
:104DA00069FE01A8FBF706FAC6B201A920A003F02C
:104DB0009FFB0024032701AD33E0285D7F28285D99
:104DC00022D20A2806D0285D0D280BD0B8F1010F99
:104DD0000BD00DE0002321224A211B200097FFF772
:104DE00080FF1CE0641CE4B2F4E7285D2D2803D0AA
:104DF000285D00F0DBFA12E0641CE4B2285D303874
:104E0000C0B200F017F80AE07F2808D3285DFFF74A
:104E100064FF28194078FFF760FF641CE4B2641C4B
:104E2000E4B2B442C9D31AB0BDE8F0015DF814FB96
:104E30002573000010B500280ED005280CD80749AE
:104E400001EB400434F8020D000AFFF746FF20781A
:104E5000BDE81040FFF741BF10BD0000E08B000827
:104E600009490122488928B1401E80B248810128A1
:104E700000D10A74C889002805D0401E80B2C881BC
:104E8000012800D10A747047CC2400202DE9F0419C
:104E90000F4C07460D462068002600B126600C48DE
:104EA00040214038FBF76FF9094840382060402026
:104EB000E080A68026812674E7812DB1A581FA20A5
:104EC00060810020BDE8F081A6816681F9E70000DD
:104ED000CC2400202DE9F04FC3B0DFF868B30220E6
:104EE00042909BF80000032438B101283BD00026F3
:104EF000022878D0032805D168E1FDF737FB0128A7
:104F000001D038B399E1D0A003F0F2FAD1A003F0B8
:104F1000EFFA9BF800100023491C8BF800100322C5
:104F200069211D200094FFF7DCFE0023302221219F
:104F30001B200094FFF7D5FE0023012261211B20D6
:104F40000094FFF7CEFEC4A10020FFF71FFF002250
:104F5000642140E0C4A003F0CBFABEA003F0C8FA7D
:104F60000020429069E1C34803F017FB0028C9D034
:104F70000023022269211D200094FFF7B2FE0023C6
:104F800005224A211B200094FFF7ABFE00231A469E
:104F900021211B200094FFF7A4FE00231A46332191
:104FA0001B200094FFF79DFEB3A10020FFF7EEFE4B
:104FB000B7A10020FFF7EAFEBEA10020FFF7E6FE42
:104FC000C2A10020FFF7E2FE9BF800100022491C5E
:104FD0008BF80010C821A74803F0EAFAA54803F0AF
:104FE000F1FA2AE1FFE7A34803F0D7FA002889D0B5
:104FF000A04803F0D9FA0023032269211D20009460
:10500000FFF76FFE64210AA8FBF7BDF8642123A80F
:10501000FBF7B9F800241A270DF18C090DF1280AC5
:10502000651CE8B200F06AFA01090AF80410FBF7FF
:105030007FF890FBF7F107FB1100413009F80400FD
:10504000ECB2642CECD33C963D963E963F9640964F
:10505000419600244FF005083CAE3FADFBF768F8E1
:1050600090FBF8F208FB1200401C3055FBF760F88B
:1050700090FBF7F107FB110041302855641CE4B2A6
:105080000C2CEBD3002404EB44020DF1F00C05EBE7
:1050900042010CEB42000DF1180E037991F80580E6
:1050A00047790E798EE8C80183780DF1080E91F8E2
:1050B0000380C7788E788EE8C80149784078CDE9BA
:1050C000000115F812301CF8122084A10120FFF70E
:1050D0005DFE641CE4B2022CD5D30024574604EBD9
:1050E000440207EB420009EB420143794E79062B5B
:1050F00000D30523057991F80480062D00D30525FA
:10510000CDE90658CDE90836C378CD78062B00D313
:10511000052390F802808E78B8F1060F01D34FF086
:105120000508CDE90435CDE902864078497806289E
:1051300000D30520CDE9000119F8123017F812202C
:10514000062A00D3052265A10120FFF71FFE641C7B
:10515000E4B2102CC3D39DF88B009DF8EF200628F5
:1051600000D305209DF88A109DF8EE30062900D363
:105170000521CDE90402CDE902139DF889009DF8CF
:10518000ED10062800D305209DF888209DF8EC300E
:10519000CDE90001062A00D305225CA10120FFF71A
:1051A000F5FD00224FF47A61324803F001FA3148EC
:1051B00003F008FA60A003F09BF926A003F098F929
:1051C0009BF80010491C8BF8001036E0294803F0CA
:1051D000E4F9002831D0274803F0E6F95BA003F09A
:1051E00087F91CA003F084F900230A224A211B201E
:1051F0000094FFF776FD5AA10020FFF7C7FD62A1DA
:105200000120FFF7C3FD002364224A211B200094E4
:10521000FFF767FD002364224A211B200094FFF75B
:1052200060FD0220002300901A4669211B20FFF731
:1052300058FD012042908BF80060429843B0BDE8D1
:10524000F08F0000D30000203E31D6BDD5C5204FE1
:105250004B0000000D0A0000D4A4BEAF2DCEDECF5F
:10526000DFB0E60A000000003E31D6BDD5C52045BE
:1052700072720000E0240020BBFABAC53A20302048
:10528000302035203420312030203120350A0000F4
:105290003220302032203020C4EA2031203220D485
:1052A000C22032203220C8D5B5DA2030203220C2C8
:1052B000D60A0000B7C0B5C1C2B7B5A5C7B0C1BD59
:1052C000D0D0BDE1B9FBCEDED0A70A00BDE1B9FB6D
:1052D000D3EBD7D6C4B8CEDEB9D80A002D256420CA
:1052E000256320202D256420256320202D25642082
:1052F000256320202D256420256320202D25642072
:10530000256320202D25642025630A002D25642097
:10531000256320202D256420256320202D25642051
:10532000256320202D256420256320202020202097
:105330002020202020200A003EB4F2D3A1BBFA2076
:10534000CAE4C8EBCDEAB3C9310000003EB4F2D3E1
:10535000A1BBFA20CAE4C8EBCDEAB3C93200000011
:10536000B4F2D3A1D3DA32203020322030C4EA3173
:105370002032D4C2322032C8D5312034CAB13120D3
:1053800039B7D60A000000002D31BADACCD23A2D56
:1053900032BAECD0C43A2D33B2DDBBA83A2D34B7C3
:1053A000BDBFE93A2D35CDF50A0000002DE9F041E9
:1053B0000126DFF834800746002404EB440018F887
:1053C0000020BA4207D100EB08056878FFF785FC9A
:1053D000A878FFF782FC641CA4B2B442EDD338462F
:1053E000BDE8F041FFF779BCDC8B00080348D0F83A
:1053F000040108B1002070470120704700002142DD
:10540000034A516821F44041014351607047000054
:1054100000100240044A0029D16901D0014300E094
:105420008143D1617047000000100240044A002906
:10543000916901D0014300E0814391617047000010
:105440000010024030B5204A5168204B11F00C0189
:1054500003D0042901D0082901D0036012E051686B
:10546000536801F470114FF0020413F4803F04EB11
:10547000914102D053689B0301D5154B00E0134BBB
:105480005943016051680F2303EA1111114B5C5C11
:105490000168E14041605468072505EA14241C5D59
:1054A00021FA04F48460546805EAD4241B5DD940D1
:1054B000C1605268032303EA9232064B1B1F9A5CB9
:1054C000B1FBF2F1016130BD0010024000127A0020
:1054D00000093D001C0000200149C1F8D8007047B8
:1054E000000042421CB5082269462820FEF724F835
:1054F000DDE900011CBD322002F0D6BB6E2802D2CD
:10550000373002F0D1BB00207047332002F0CCBB13
:10551000342002F0C9BBF8B5054628280DD2002476
:105520006E4604EBC500A53002F0BEFB3055641C8E
:10553000E4B2042CF5D30098F8BD0020F8BD0000BB
:105540007CB505460020009001903C2928D895F8AC
:1055500038008DF8000095F839008DF8010095F8B5
:105560003A008DF802000F4995F83B008DF80300D2
:105570000889020A8DF804208DF805004889010A7F
:105580008DF806108DF80700002405EBC4000346D3
:105590000022694602F0E6FA641CE4B2072CF4D358
:1055A0007CBD0000642B00202DE9F041254C07282C
:1055B00000D020702078234DAD1E2870697881427C
:1055C00000D0687020780626052204271E49062888
:1055D0000BD2DFE800F0030C11161E27686810B12B
:1055E0002270BDE8F08100F031F82670F9E700F094
:1055F0002DF82770012022E0022060700320207027
:10560000EFE76078401E607060780028E9D127706D
:10561000E7E7086880B240F01000086022700A20B6
:105620006070DEE76078401E607060780028D8D136
:10563000086880B220F010000860267000206860C2
:10564000CFE70000F6010020405C004010B5064C9A
:10565000206880B220F004002060FFF7D9F94FF4F1
:105660003F40206010BD0000405C004030B587B076
:1056700001210520FFF7DAFE01210803FFF7D6FE1E
:1056800010208DF80300ADF80000264D03248DF89E
:10569000024069462846FEF7CDF818208DF8030031
:1056A000A020ADF800008DF8024069462846FEF7BC
:1056B000C1F848208DF803004020ADF800008DF8B7
:1056C000024069462846FEF7B5F810212846FEF745
:1056D0002DF90020ADF804004FF48271ADF80610EA
:1056E000ADF808000221ADF80A100121ADF80C1048
:1056F0004902ADF80E103821ADF81010ADF81200C7
:105700000720094CADF8140001A9204600F023F849
:105710000121204600F00AF8FF2000F039F807B018
:1057200030BD000000080140003001400029018820
:1057300002D041F0400101E021F0400101807047BA
:105740000246002012890A4200D001207047808959
:1057500070478181704730B502884C8802F441530C
:105760000A88CD8822438C882C4322430C8922430B
:105770004C8922438C892243CC8922431A430280DC
:10578000828B22F400628283098A018230BD00008C
:1057900070B50B4C054602212046FFF7D1FF0028CB
:1057A000F9D029462046FFF7D4FF01212046FFF714
:1057B000C7FF0028F9D02046FFF7C9FFC0B270BD6F
:1057C0000030014070471CB50024CDE900010822DB
:1057D00069462820FDF7C1FE641CE4B2082CF6D30C
:1057E0001CBD0146322002F06ABA6E2802D2373060
:1057F00002F065BA70470146332002F060BA0146F4
:10580000342002F05CBAF8B5054628280CD20024F2
:105810006E46009104EBC500315DA53002F04FFAF1
:10582000641CE4B2042CF5D3F8BD0000024920F05A
:105830000700086070470000505C0040F0B50E495A
:105840000E4E48F68F770D78002148F2800C0BE061
:10585000CAB206EB8203D3F8004C3C40144344EA3E
:105860000C04C3F8004C491CA942F1D3044940F090
:1058700080000860F0BD0000C4010020005000401E
:105880004C5C0040054A21F00101126892B202EB23
:10589000C000034A02EB400081607047505C00404A
:1058A000006000400D4A12683E2992B202EBC0002F
:1058B0000B4A02EB400209D94809C90601D1401E32
:1058C00080B24FF4004141EA802004E04808C90753
:1058D00000D0401C8002106070470000505C004007
:1058E0000C60004082000A480244D2F8000C4BF6DB
:1058F0008F731840CB0401D580F48050890401D502
:1059000080F4005048F280010843C2F8000C704750
:1059100000500040810007480844D0F8001C4BF6B6
:105920008F72114081F4405148F280021143C0F857
:10593000001C704700500040054A21F00101126828
:1059400092B202EBC000034A42F810107047000008
:10595000505C004000600040044A126892B202EBC2
:10596000C000034A02EB400041607047505C0040B9
:105970000060004082000A480244D2F8000C48F659
:10598000BF731840CB0601D580F01000890601D501
:1059900080F0200048F280010843C2F8000C7047F4
:1059A00000500040810007480844D0F8001C48F629
:1059B000BF72114081F0300148F280021143C0F8FB
:1059C000001C704700500040820005481044D0F889
:1059D000002C48F68F131A400A43C0F8002C704779
:1059E000005000400CB50022264800920192016848
:1059F00041F4803101604FF4A063016801F400318B
:105A000001910099491C0091019911B9009999429D
:105A1000F3D10168890333D5012101911A490A683C
:105A200042F010020A600A6822F003020A600A6863
:105A300042F002020A604168416041684160416889
:105A400041F480614160416821F47C11416041680A
:105A500041F4E8114160016841F080710160016822
:105A60008901FCD5416821F003014160416841F0A2
:105A7000020141604168C1F381010229FAD10CBDE4
:105A800001920CBD001002400020024010B54FF4FE
:105A90004040FFF7B5FCBDE81040FDF7B5BE10B5BE
:105AA0000020FFF719FD0121BDE81040C805FFF7F0
:105AB000B1BC000070B516480068174D0004C10B5A
:105AC00014480144098989B200EB41042868017A2D
:105AD00009290FD02178017061784170A088FBF707
